{
  "address": "0xfe46c93213FaE147C1ebc18bEefaa23a5BA2E5b3",
  "abi": [
    {
      "inputs": [
        {
          "internalType": "address",
          "name": "manager",
          "type": "address"
        },
        {
          "internalType": "contract IEntryPoint",
          "name": "supportedEntrypoint",
          "type": "address"
        },
        {
          "components": [
            {
              "internalType": "uint32",
              "name": "timeframeQuotaReset",
              "type": "uint32"
            },
            {
              "internalType": "uint16",
              "name": "requiredQuotaMultiplier",
              "type": "uint16"
            },
            {
              "internalType": "uint96",
              "name": "maxAvailableQuota",
              "type": "uint96"
            },
            {
              "internalType": "address",
              "name": "feeToken",
              "type": "address"
            },
            {
              "internalType": "uint32",
              "name": "quotaPerFeeToken",
              "type": "uint32"
            },
            {
              "internalType": "uint8",
              "name": "quotaPerFeeTokenScale",
              "type": "uint8"
            }
          ],
          "internalType": "struct QuotaMixinConfig",
          "name": "_quotaMixinconfig",
          "type": "tuple"
        },
        {
          "components": [
            {
              "internalType": "uint48",
              "name": "enableCoditionsDelay",
              "type": "uint48"
            },
            {
              "internalType": "contract ISlashingCondition[]",
              "name": "initialConditions",
              "type": "address[]"
            }
          ],
          "internalType": "struct SlashingMixinConfig",
          "name": "_slashingMixinconfig",
          "type": "tuple"
        }
      ],
      "stateMutability": "nonpayable",
      "type": "constructor"
    },
    {
      "inputs": [],
      "name": "InvalidSignature",
      "type": "error"
    },
    {
      "inputs": [],
      "name": "InvalidSignatureSValue",
      "type": "error"
    },
    {
      "inputs": [
        {
          "internalType": "bytes4",
          "name": "targetSelector",
          "type": "bytes4"
        }
      ],
      "name": "InvalidTarget",
      "type": "error"
    },
    {
      "inputs": [],
      "name": "InvalidUserOpPaymaster",
      "type": "error"
    },
    {
      "inputs": [
        {
          "internalType": "address",
          "name": "owner",
          "type": "address"
        }
      ],
      "name": "OwnableInvalidOwner",
      "type": "error"
    },
    {
      "inputs": [
        {
          "internalType": "address",
          "name": "account",
          "type": "address"
        }
      ],
      "name": "OwnableUnauthorizedAccount",
      "type": "error"
    },
    {
      "inputs": [
        {
          "internalType": "address",
          "name": "token",
          "type": "address"
        }
      ],
      "name": "SafeERC20FailedOperation",
      "type": "error"
    },
    {
      "anonymous": false,
      "inputs": [
        {
          "indexed": true,
          "internalType": "address",
          "name": "signer",
          "type": "address"
        },
        {
          "indexed": true,
          "internalType": "uint256",
          "name": "amount",
          "type": "uint256"
        }
      ],
      "name": "Deposit",
      "type": "event"
    },
    {
      "anonymous": false,
      "inputs": [
        {
          "indexed": true,
          "internalType": "contract ISlashingCondition",
          "name": "offendingCondition",
          "type": "address"
        },
        {
          "indexed": false,
          "internalType": "uint48",
          "name": "enabledUntil",
          "type": "uint48"
        }
      ],
      "name": "DisableCondition",
      "type": "event"
    },
    {
      "anonymous": false,
      "inputs": [
        {
          "indexed": true,
          "internalType": "contract ISlashingCondition",
          "name": "offendingCondition",
          "type": "address"
        },
        {
          "indexed": false,
          "internalType": "uint48",
          "name": "enabledFrom",
          "type": "uint48"
        }
      ],
      "name": "EnableCondition",
      "type": "event"
    },
    {
      "anonymous": false,
      "inputs": [
        {
          "indexed": true,
          "internalType": "address",
          "name": "previousOwner",
          "type": "address"
        },
        {
          "indexed": true,
          "internalType": "address",
          "name": "newOwner",
          "type": "address"
        }
      ],
      "name": "OwnershipTransferStarted",
      "type": "event"
    },
    {
      "anonymous": false,
      "inputs": [
        {
          "indexed": true,
          "internalType": "address",
          "name": "previousOwner",
          "type": "address"
        },
        {
          "indexed": true,
          "internalType": "address",
          "name": "newOwner",
          "type": "address"
        }
      ],
      "name": "OwnershipTransferred",
      "type": "event"
    },
    {
      "anonymous": false,
      "inputs": [
        {
          "indexed": true,
          "internalType": "contract ISlashingCondition",
          "name": "offendingCondition",
          "type": "address"
        },
        {
          "indexed": true,
          "internalType": "address",
          "name": "validator",
          "type": "address"
        },
        {
          "indexed": true,
          "internalType": "uint256",
          "name": "amount",
          "type": "uint256"
        }
      ],
      "name": "Slashed",
      "type": "event"
    },
    {
      "anonymous": false,
      "inputs": [
        {
          "indexed": true,
          "internalType": "address",
          "name": "signer",
          "type": "address"
        },
        {
          "indexed": true,
          "internalType": "uint256",
          "name": "amount",
          "type": "uint256"
        }
      ],
      "name": "Withdraw",
      "type": "event"
    },
    {
      "inputs": [],
      "name": "ENABLE_CONDITIONS_DELAY",
      "outputs": [
        {
          "internalType": "uint48",
          "name": "",
          "type": "uint48"
        }
      ],
      "stateMutability": "view",
      "type": "function"
    },
    {
      "inputs": [],
      "name": "FEE_TOKEN",
      "outputs": [
        {
          "internalType": "address",
          "name": "",
          "type": "address"
        }
      ],
      "stateMutability": "view",
      "type": "function"
    },
    {
      "inputs": [],
      "name": "MAX_AVAILABLE_QUOTA",
      "outputs": [
        {
          "internalType": "uint96",
          "name": "",
          "type": "uint96"
        }
      ],
      "stateMutability": "view",
      "type": "function"
    },
    {
      "inputs": [],
      "name": "QUOTA_ENABLED",
      "outputs": [
        {
          "internalType": "bool",
          "name": "",
          "type": "bool"
        }
      ],
      "stateMutability": "view",
      "type": "function"
    },
    {
      "inputs": [],
      "name": "QUOTA_PER_FEE_TOKEN",
      "outputs": [
        {
          "internalType": "uint32",
          "name": "",
          "type": "uint32"
        }
      ],
      "stateMutability": "view",
      "type": "function"
    },
    {
      "inputs": [],
      "name": "QUOTA_PER_FEE_TOKEN_SCALE",
      "outputs": [
        {
          "internalType": "uint8",
          "name": "",
          "type": "uint8"
        }
      ],
      "stateMutability": "view",
      "type": "function"
    },
    {
      "inputs": [],
      "name": "TIMEFRAME_QUOTA_RESET",
      "outputs": [
        {
          "internalType": "uint32",
          "name": "",
          "type": "uint32"
        }
      ],
      "stateMutability": "view",
      "type": "function"
    },
    {
      "inputs": [],
      "name": "acceptOwnership",
      "outputs": [],
      "stateMutability": "nonpayable",
      "type": "function"
    },
    {
      "inputs": [
        {
          "internalType": "uint32",
          "name": "unstakeDelaySec",
          "type": "uint32"
        }
      ],
      "name": "addStake",
      "outputs": [],
      "stateMutability": "payable",
      "type": "function"
    },
    {
      "inputs": [
        {
          "internalType": "address",
          "name": "signer",
          "type": "address"
        }
      ],
      "name": "availableFreeQuotaForSigner",
      "outputs": [
        {
          "internalType": "uint96",
          "name": "availableFreeQuota",
          "type": "uint96"
        },
        {
          "internalType": "uint96",
          "name": "usedSignerQuota",
          "type": "uint96"
        },
        {
          "internalType": "uint48",
          "name": "nextSignerQuotaReset",
          "type": "uint48"
        }
      ],
      "stateMutability": "view",
      "type": "function"
    },
    {
      "inputs": [],
      "name": "deposit",
      "outputs": [],
      "stateMutability": "payable",
      "type": "function"
    },
    {
      "inputs": [
        {
          "internalType": "address",
          "name": "signer",
          "type": "address"
        },
        {
          "internalType": "uint96",
          "name": "amount",
          "type": "uint96"
        }
      ],
      "name": "depositTokensForSigner",
      "outputs": [],
      "stateMutability": "nonpayable",
      "type": "function"
    },
    {
      "inputs": [
        {
          "internalType": "contract ISlashingCondition",
          "name": "",
          "type": "address"
        }
      ],
      "name": "enabledConditions",
      "outputs": [
        {
          "internalType": "uint48",
          "name": "enabledAfter",
          "type": "uint48"
        },
        {
          "internalType": "uint48",
          "name": "enabledUntil",
          "type": "uint48"
        }
      ],
      "stateMutability": "view",
      "type": "function"
    },
    {
      "inputs": [],
      "name": "entryPoint",
      "outputs": [
        {
          "internalType": "contract IEntryPoint",
          "name": "",
          "type": "address"
        }
      ],
      "stateMutability": "view",
      "type": "function"
    },
    {
      "inputs": [],
      "name": "getDeposit",
      "outputs": [
        {
          "internalType": "uint256",
          "name": "",
          "type": "uint256"
        }
      ],
      "stateMutability": "view",
      "type": "function"
    },
    {
      "inputs": [],
      "name": "getSupportedEntrypoint",
      "outputs": [
        {
          "internalType": "contract IEntryPoint",
          "name": "",
          "type": "address"
        }
      ],
      "stateMutability": "view",
      "type": "function"
    },
    {
      "inputs": [],
      "name": "owner",
      "outputs": [
        {
          "internalType": "address",
          "name": "",
          "type": "address"
        }
      ],
      "stateMutability": "view",
      "type": "function"
    },
    {
      "inputs": [],
      "name": "pendingOwner",
      "outputs": [
        {
          "internalType": "address",
          "name": "",
          "type": "address"
        }
      ],
      "stateMutability": "view",
      "type": "function"
    },
    {
      "inputs": [
        {
          "internalType": "enum IPaymaster.PostOpMode",
          "name": "mode",
          "type": "uint8"
        },
        {
          "internalType": "bytes",
          "name": "context",
          "type": "bytes"
        },
        {
          "internalType": "uint256",
          "name": "actualGasCost",
          "type": "uint256"
        },
        {
          "internalType": "uint256",
          "name": "actualUserOpFeePerGas",
          "type": "uint256"
        }
      ],
      "name": "postOp",
      "outputs": [],
      "stateMutability": "nonpayable",
      "type": "function"
    },
    {
      "inputs": [
        {
          "internalType": "address",
          "name": "",
          "type": "address"
        }
      ],
      "name": "quotaStatsForSigner",
      "outputs": [
        {
          "internalType": "uint96",
          "name": "tokenBalance",
          "type": "uint96"
        },
        {
          "internalType": "uint96",
          "name": "usedQuota",
          "type": "uint96"
        },
        {
          "internalType": "uint48",
          "name": "nextQuotaReset",
          "type": "uint48"
        }
      ],
      "stateMutability": "view",
      "type": "function"
    },
    {
      "inputs": [],
      "name": "renounceOwnership",
      "outputs": [],
      "stateMutability": "nonpayable",
      "type": "function"
    },
    {
      "inputs": [
        {
          "internalType": "contract ISlashingCondition",
          "name": "offendingCondition",
          "type": "address"
        },
        {
          "components": [
            {
              "internalType": "address",
              "name": "sender",
              "type": "address"
            },
            {
              "internalType": "uint256",
              "name": "nonce",
              "type": "uint256"
            },
            {
              "internalType": "bytes",
              "name": "initCode",
              "type": "bytes"
            },
            {
              "internalType": "bytes",
              "name": "callData",
              "type": "bytes"
            },
            {
              "internalType": "bytes32",
              "name": "accountGasLimits",
              "type": "bytes32"
            },
            {
              "internalType": "uint256",
              "name": "preVerificationGas",
              "type": "uint256"
            },
            {
              "internalType": "bytes32",
              "name": "gasFees",
              "type": "bytes32"
            },
            {
              "internalType": "bytes",
              "name": "paymasterAndData",
              "type": "bytes"
            },
            {
              "internalType": "bytes",
              "name": "signature",
              "type": "bytes"
            }
          ],
          "internalType": "struct PackedUserOperation",
          "name": "userOp",
          "type": "tuple"
        }
      ],
      "name": "slashValidator",
      "outputs": [],
      "stateMutability": "nonpayable",
      "type": "function"
    },
    {
      "inputs": [],
      "name": "slashedTokens",
      "outputs": [
        {
          "internalType": "uint256",
          "name": "",
          "type": "uint256"
        }
      ],
      "stateMutability": "view",
      "type": "function"
    },
    {
      "inputs": [
        {
          "internalType": "bytes32",
          "name": "",
          "type": "bytes32"
        }
      ],
      "name": "slashedUserOps",
      "outputs": [
        {
          "internalType": "uint256",
          "name": "",
          "type": "uint256"
        }
      ],
      "stateMutability": "view",
      "type": "function"
    },
    {
      "inputs": [
        {
          "internalType": "address",
          "name": "newOwner",
          "type": "address"
        }
      ],
      "name": "transferOwnership",
      "outputs": [],
      "stateMutability": "nonpayable",
      "type": "function"
    },
    {
      "inputs": [],
      "name": "unlockStake",
      "outputs": [],
      "stateMutability": "nonpayable",
      "type": "function"
    },
    {
      "inputs": [
        {
          "components": [
            {
              "internalType": "address",
              "name": "sender",
              "type": "address"
            },
            {
              "internalType": "uint256",
              "name": "nonce",
              "type": "uint256"
            },
            {
              "internalType": "bytes",
              "name": "initCode",
              "type": "bytes"
            },
            {
              "internalType": "bytes",
              "name": "callData",
              "type": "bytes"
            },
            {
              "internalType": "bytes32",
              "name": "accountGasLimits",
              "type": "bytes32"
            },
            {
              "internalType": "uint256",
              "name": "preVerificationGas",
              "type": "uint256"
            },
            {
              "internalType": "bytes32",
              "name": "gasFees",
              "type": "bytes32"
            },
            {
              "internalType": "bytes",
              "name": "paymasterAndData",
              "type": "bytes"
            },
            {
              "internalType": "bytes",
              "name": "signature",
              "type": "bytes"
            }
          ],
          "internalType": "struct PackedUserOperation",
          "name": "userOp",
          "type": "tuple"
        },
        {
          "internalType": "bytes32",
          "name": "userOpHash",
          "type": "bytes32"
        },
        {
          "internalType": "uint256",
          "name": "maxCost",
          "type": "uint256"
        }
      ],
      "name": "validatePaymasterUserOp",
      "outputs": [
        {
          "internalType": "bytes",
          "name": "context",
          "type": "bytes"
        },
        {
          "internalType": "uint256",
          "name": "validationData",
          "type": "uint256"
        }
      ],
      "stateMutability": "nonpayable",
      "type": "function"
    },
    {
      "inputs": [
        {
          "internalType": "bytes",
          "name": "signature",
          "type": "bytes"
        },
        {
          "internalType": "uint96",
          "name": "amount",
          "type": "uint96"
        },
        {
          "internalType": "address",
          "name": "beneficiary",
          "type": "address"
        },
        {
          "internalType": "uint256",
          "name": "nonce",
          "type": "uint256"
        }
      ],
      "name": "widthdrawTokensForSigner",
      "outputs": [],
      "stateMutability": "payable",
      "type": "function"
    },
    {
      "inputs": [
        {
          "internalType": "address payable",
          "name": "withdrawAddress",
          "type": "address"
        }
      ],
      "name": "withdrawStake",
      "outputs": [],
      "stateMutability": "nonpayable",
      "type": "function"
    },
    {
      "inputs": [
        {
          "internalType": "address payable",
          "name": "withdrawAddress",
          "type": "address"
        },
        {
          "internalType": "uint256",
          "name": "amount",
          "type": "uint256"
        }
      ],
      "name": "withdrawTo",
      "outputs": [],
      "stateMutability": "nonpayable",
      "type": "function"
    },
    {
      "inputs": [
        {
          "internalType": "address",
          "name": "",
          "type": "address"
        },
        {
          "internalType": "bytes32",
          "name": "",
          "type": "bytes32"
        }
      ],
      "name": "withdrawsForSigner",
      "outputs": [
        {
          "internalType": "uint256",
          "name": "",
          "type": "uint256"
        }
      ],
      "stateMutability": "view",
      "type": "function"
    }
  ],
  "args": [
    "0xF4f42442E2AE1d7Ea87087aF73B2Abb5536290C2",
    "0x4337084d9e255ff0702461cf8895ce9e3b5ff108",
    {
      "timeframeQuotaReset": 86400,
      "requiredQuotaMultiplier": 1,
      "maxAvailableQuota": 0,
      "feeToken": "0xfFf9976782d46CC05630D1f6eBAb18b2324d6B14",
      "quotaPerFeeToken": 1000,
      "quotaPerFeeTokenScale": 0
    },
    {
      "enableCoditionsDelay": 172800,
      "initialConditions": []
    }
  ],
  "numDeployments": 12,
  "solcInputHash": "7e4ea39aac3aeda7fc17da81095340a1",
  "bytecode": "0x61018080604052346104d3576132a9803803809161001d828561054c565b83398101908082039061012082126104d3576100388161056f565b602082015190926001600160a01b03821691908282036104d35760c090603f1901126104d3576040519260c084016001600160401b0381118582101761051d5760405261008760408201610583565b8452606081015161ffff811681036104d35760208501526080810151936001600160601b03851685036104d357604081019485526100c760a0830161056f565b606082019081526100da60c08401610583565b906080830191825260e08401519360ff851685036104d35760a08401948552610100810151906001600160401b0382116104d35701956040878b03126104d3576040519661012788610531565b805165ffffffffffff811681036104d35788526020810151906001600160401b0382116104d357018a601f820112156104d35780519a6001600160401b038c1161051d578b60051b916020806040519e8f906101858388018361054c565b815201938201019182116104d357602001915b8183106104fd5750505060208701998a5233156104ea5760018060a01b03196001541660015560205f543360018060a01b03198216175f55602460405180948193339060018060a01b03167f8be0079c531659141344cd1fd0a4f28419497f9722a3daafe3b4186f6b6457e05f80a36301ffc9a760e01b8252631313998b60e31b60048301525afa9081156104df575f916104a0575b501561045b5760809490945283516001600160a01b03908116151560a052915163ffffffff90811660c05295516001600160601b031660e05292511661010052905190921661012052905160ff16610140525165ffffffffffff9081166101605242165f5b83515181101561032657604051906102aa82610531565b82825260208201915f83528551928351831015610312576001936020858060a01b03918560051b010151165f52600560205265ffffffffffff60405f209251166bffffffffffff0000000000008354925160301b1691858060601b0319161717905501610293565b634e487b7160e01b5f52603260045260245ffd5b5f546001600160a01b03168333820361044857600180546001600160a01b0319166001600160a01b03929092169182179055604051917f38d16b8cac22d99fc7c124b9cd0de2d3fa1faef420bfe791d8c362d765e227005f80a3612d149081610595823960805181818161095d01528181610a6001528181610b2901528181610bfe01528181610fb301528181611fc8015281816120e9015281816121e00152612848015260a0518181816116dc0152612afb015260c051818181611b5601526125a7015260e051818181611f4c01526124ac0152610100518181816106300152611a33015261012051818181610ca30152818161125f01526124340152610140518181816111e80152818161178a015261245f015261016051816102bf0152f35b63118cdaa760e01b5f523360045260245ffd5b60405162461bcd60e51b815260206004820152601e60248201527f49456e747279506f696e7420696e74657266616365206d69736d6174636800006044820152606490fd5b90506020813d6020116104d7575b816104bb6020938361054c565b810103126104d3575180151581036104d3575f61022e565b5f80fd5b3d91506104ae565b6040513d5f823e3d90fd5b631e4fbdf760e01b5f525f60045260245ffd5b82516001600160a01b03811681036104d357815260209283019201610198565b634e487b7160e01b5f52604160045260245ffd5b604081019081106001600160401b0382111761051d57604052565b601f909101601f19168101906001600160401b0382119082101761051d57604052565b51906001600160a01b03821682036104d357565b519063ffffffff821682036104d35756fe60806040526004361015610011575f80fd5b5f5f3560e01c80630396cb601461208e5780630f5cb70814612052578063205c287814611f7057806338c4c62114611f09578063519e981514611e9157806352b7512c14611b7a5780636f9bb7bd14611b1b5780636f9bf91b14610c63578063715018a614611a5757806373717b08146119e857806379ba5097146118de5780637c627b211461181b5780637eec7d68146117ae57806381f243c3146117525780638da5cb5b1461170157806393df8c31146116a6578063941eaf5314610e285780639f202a0414610db3578063a3be4d7b14610d0f578063a99819be14610cc7578063ad3228c614610c68578063b0d691fe14610c63578063bb9fe6bf14610baf578063c23a5cea14610ad1578063c399ec88146109e8578063d0e30db01461091b578063d912dcca146107fe578063e002f088146102e3578063e2c7b3e014610282578063e30c3978146102305763f2fde38b1461016f575f80fd5b3461022d5760207ffffffffffffffffffffffffffffffffffffffffffffffffffffffffffffffffc36011261022d5773ffffffffffffffffffffffffffffffffffffffff6101bb612173565b6101c36127e5565b16807fffffffffffffffffffffffff0000000000000000000000000000000000000000600154161760015573ffffffffffffffffffffffffffffffffffffffff8254167f38d16b8cac22d99fc7c124b9cd0de2d3fa1faef420bfe791d8c362d765e227008380a380f35b80fd5b503461022d57807ffffffffffffffffffffffffffffffffffffffffffffffffffffffffffffffffc36011261022d57602073ffffffffffffffffffffffffffffffffffffffff60015416604051908152f35b503461022d57807ffffffffffffffffffffffffffffffffffffffffffffffffffffffffffffffffc36011261022d57602060405165ffffffffffff7f0000000000000000000000000000000000000000000000000000000000000000168152f35b5060807ffffffffffffffffffffffffffffffffffffffffffffffffffffffffffffffffc36011261022d5760043567ffffffffffffffff81116107fa5761032e903690600401612204565b50610337612232565b9060443573ffffffffffffffffffffffffffffffffffffffff81168091036107f6576bffffffffffffffffffffffff83169260405160208101907f47e79534a245952e8b16893a336b85a3d9ea9fa8c573f3d803afb92a794692188252466040820152306060820152606081526103af60808261224d565b51902061044b61047760405160208101907ff004bebf3ce3a32f609e24232a25277f97bc1a0843e36f180d0e414dd5a65b7a825288604082015286606082015260643560808201526080815261040660a08261224d565b51902060405192839160208301958690916042927f19010000000000000000000000000000000000000000000000000000000000008352600283015260228201520190565b037fffffffffffffffffffffffffffffffffffffffffffffffffffffffffffffffe0810183528261224d565b5190209260208101357f7fffffffffffffffffffffffffffffff5d576e7357a4501ddfe92f46681b20a081116107ce5760806020928892604051918883526040810135851a86840152356040830152606082015282805260015afa156107c35773ffffffffffffffffffffffffffffffffffffffff85511692831561079b57838652600360205260408620818752602052604086205461073d578386526003602052604086209086526020524260408620558285526002602052604085209081546bffffffffffffffffffffffff8116908682106106df5765ffffffffffff429160c01c16101561065b576bffffffffffffffffffffffff9161057991612361565b167fffffffffffffffffffffffffffffffffffffffff0000000000000000000000008254161790553081036105d1575b507f884edad9ce6fa2440d8a54cc123490eb96d2768479d49ff9c7366125a94243648380a380f35b61065590604051907fa9059cbb00000000000000000000000000000000000000000000000000000000602083015260248201528360448201526044815261061960648261224d565b73ffffffffffffffffffffffffffffffffffffffff7f000000000000000000000000000000000000000000000000000000000000000016612c57565b5f6105a9565b60846040517f08c379a000000000000000000000000000000000000000000000000000000000815260206004820152602b60248201527f546f6b656e732068617665206265656e207573656420647572696e672074686960448201527f732074696d656672616d650000000000000000000000000000000000000000006064820152fd5b60646040517f08c379a000000000000000000000000000000000000000000000000000000000815260206004820152601360248201527f496e73756666696369656e7420546f6b656e73000000000000000000000000006044820152fd5b60646040517f08c379a000000000000000000000000000000000000000000000000000000000815260206004820152602060248201527f5769746864726177616c2077617320616c726561647920706572666f726d65646044820152fd5b6004867f8baa579f000000000000000000000000000000000000000000000000000000008152fd5b6040513d86823e3d90fd5b6004877f617cf474000000000000000000000000000000000000000000000000000000008152fd5b8380fd5b5080fd5b503461022d5760407ffffffffffffffffffffffffffffffffffffffffffffffffffffffffffffffffc36011261022d57610836612173565b6bffffffffffffffffffffffff73ffffffffffffffffffffffffffffffffffffffff610860612232565b9216918284526002602052604084208261087d83828454166127bb565b167fffffffffffffffffffffffffffffffffffffffff00000000000000000000000082541617905516906108f46040517f23b872dd0000000000000000000000000000000000000000000000000000000060208201523360248201523060448201528360648201526064815261061960848261224d565b7fe1fffcc4923d04b559f4d29a8bfc6cda04eb5b0d3c460751c2402c5c5cc9109c8380a380f35b50807ffffffffffffffffffffffffffffffffffffffffffffffffffffffffffffffffc36011261022d578073ffffffffffffffffffffffffffffffffffffffff7f000000000000000000000000000000000000000000000000000000000000000016803b156109e55781602491604051928380927fb760faf900000000000000000000000000000000000000000000000000000000825230600483015234905af180156109da576109c95750f35b816109d39161224d565b61022d5780f35b6040513d84823e3d90fd5b50fd5b503461022d57807ffffffffffffffffffffffffffffffffffffffffffffffffffffffffffffffffc36011261022d576040517f70a0823100000000000000000000000000000000000000000000000000000000815230600482015260208160248173ffffffffffffffffffffffffffffffffffffffff7f0000000000000000000000000000000000000000000000000000000000000000165afa9081156109da578291610a9b575b602082604051908152f35b90506020813d602011610ac9575b81610ab66020938361224d565b810103126107fa5760209150515f610a90565b3d9150610aa9565b503461022d5760207ffffffffffffffffffffffffffffffffffffffffffffffffffffffffffffffffc36011261022d5780610b0a612173565b610b126127e5565b73ffffffffffffffffffffffffffffffffffffffff7f00000000000000000000000000000000000000000000000000000000000000001690813b15610bab5773ffffffffffffffffffffffffffffffffffffffff602484928360405195869485937fc23a5cea0000000000000000000000000000000000000000000000000000000085521660048401525af180156109da576109c95750f35b5050fd5b503461022d57807ffffffffffffffffffffffffffffffffffffffffffffffffffffffffffffffffc36011261022d57610be66127e5565b8073ffffffffffffffffffffffffffffffffffffffff7f000000000000000000000000000000000000000000000000000000000000000016803b156109e5578180916004604051809481937fbb9fe6bf0000000000000000000000000000000000000000000000000000000083525af180156109da576109c95750f35b612196565b503461022d57807ffffffffffffffffffffffffffffffffffffffffffffffffffffffffffffffffc36011261022d57602060405163ffffffff7f0000000000000000000000000000000000000000000000000000000000000000168152f35b503461022d5760207ffffffffffffffffffffffffffffffffffffffffffffffffffffffffffffffffc36011261022d5760406020916004358152600683522054604051908152f35b503461022d5760207ffffffffffffffffffffffffffffffffffffffffffffffffffffffffffffffffc36011261022d576040610daf9173ffffffffffffffffffffffffffffffffffffffff610d62612173565b1681526002602090815291902054604080516bffffffffffffffffffffffff8084168252606084811c9091169482019490945260c09290921c65ffffffffffff1690820152918291820190565b0390f35b503461022d5760207ffffffffffffffffffffffffffffffffffffffffffffffffffffffffffffffffc36011261022d576040809173ffffffffffffffffffffffffffffffffffffffff610e04612173565b1681526005602052205465ffffffffffff825191818116835260301c166020820152f35b503461022d5760407ffffffffffffffffffffffffffffffffffffffffffffffffffffffffffffffffc36011261022d57610e60612173565b906024359067ffffffffffffffff821161022d5781600401926101207ffffffffffffffffffffffffffffffffffffffffffffffffffffffffffffffffc84360301126107fa57610eaf8461298a565b73ffffffffffffffffffffffffffffffffffffffff3091160361167e579065ffffffffffff9173ffffffffffffffffffffffffffffffffffffffff610ef386612a0c565b94909416911692838352600560205260408320604051906040820182811067ffffffffffffffff8211176116515791849160209493604052549065ffffffffffff8083169283835260301c16948591015210928315611648575b5082611623575b5050156115c557604051937f22cdde4c0000000000000000000000000000000000000000000000000000000085526020600486015260208580610f9a602482018561269b565b038173ffffffffffffffffffffffffffffffffffffffff7f0000000000000000000000000000000000000000000000000000000000000000165afa9485156109da578295611591575b50803573ffffffffffffffffffffffffffffffffffffffff811680910361158d5761044b61109960405160208101907f47e79534a245952e8b16893a336b85a3d9ea9fa8c573f3d803afb92a7946921882524660408201523060608201526060815261105060808261224d565b5190209260405160208101917f05a0a1db773d73251a561ef1fe2b420121ab814b9980222b3b139b653496620f835260408201528960608201526060815261040660808261224d565b5190206110aa61010486018361276a565b506020810135907f7fffffffffffffffffffffffffffffff5d576e7357a4501ddfe92f46681b20a082116115655760209285926080926040519283526040810135851a86840152356040830152606082015282805260015afa156115585773ffffffffffffffffffffffffffffffffffffffff825116938415611530576040517f2e31f340000000000000000000000000000000000000000000000000000000008152856004820152604060248201526020818061116b604482018761269b565b038187895af19081156107c35784916114f5575b501561147257858352600660205260408320546114145760848101359160e482016111aa818361276a565b602411611410579060146111c09201359261276a565b60341161140c5761125892611285949260246bffffffffffffffffffffffff9301359061120c7f0000000000000000000000000000000000000000000000000000000000000000612319565b946fffffffffffffffffffffffffffffffff8060a48160c4880135169601359460801c169260801c16906fffffffffffffffffffffffffffffffff81169060801c010101010216612306565b63ffffffff7f0000000000000000000000000000000000000000000000000000000000000000169061232a565b838252600260205260408220546bffffffffffffffffffffffff1690818111156113f757505b6bffffffffffffffffffffffff8116948515611399578252600660205284604083205560045485810180911161136c57600455838252600260205260408220916bffffffffffffffffffffffff835416908682106106df5761065b576bffffffffffffffffffffffff9161131e91612361565b167fffffffffffffffffffffffffffffffffffffffff0000000000000000000000008254161790557f96e0041f14ae401fab2384e3c29da20cb0263ef760c47847db1f13403cea654c5f80a4005b6024837f4e487b710000000000000000000000000000000000000000000000000000000081526011600452fd5b60646040517f08c379a000000000000000000000000000000000000000000000000000000000815260206004820152601060248201527f4e6f7468696e6720746f20736c617368000000000000000000000000000000006044820152fd5b6bffffffffffffffffffffffff9150166112ab565b8480fd5b8580fd5b60646040517f08c379a000000000000000000000000000000000000000000000000000000000815260206004820152601a60248201527f557365724f702077617320616c726561647920736c61736865640000000000006044820152fd5b60846040517f08c379a0000000000000000000000000000000000000000000000000000000008152602060048201526024808201527f557365724f7020646f6573206e6f74206f6666656e642074686520636f6e646960448201527f74696f6e000000000000000000000000000000000000000000000000000000006064820152fd5b90506020813d602011611528575b816115106020938361224d565b810103126107f6575180151581036107f6575f61117f565b3d9150611503565b6004837f8baa579f000000000000000000000000000000000000000000000000000000008152fd5b50604051903d90823e3d90fd5b6004857f617cf474000000000000000000000000000000000000000000000000000000008152fd5b8280fd5b9094506020813d6020116115bd575b816115ad6020938361224d565b810103126107fa5751935f610fe3565b3d91506115a0565b60646040517f08c379a000000000000000000000000000000000000000000000000000000000815260206004820152601460248201527f436f6e646974696f6e206e6f74206163746976650000000000000000000000006044820152fd5b81925065ffffffffffff161090811561163f575b505f80610f54565b9050155f611637565b1592505f610f4d565b6024867f4e487b710000000000000000000000000000000000000000000000000000000081526041600452fd5b6004827f48882656000000000000000000000000000000000000000000000000000000008152fd5b503461022d57807ffffffffffffffffffffffffffffffffffffffffffffffffffffffffffffffffc36011261022d5760206040517f000000000000000000000000000000000000000000000000000000000000000015158152f35b503461022d57807ffffffffffffffffffffffffffffffffffffffffffffffffffffffffffffffffc36011261022d5773ffffffffffffffffffffffffffffffffffffffff6020915416604051908152f35b503461022d57807ffffffffffffffffffffffffffffffffffffffffffffffffffffffffffffffffc36011261022d57602060405160ff7f0000000000000000000000000000000000000000000000000000000000000000168152f35b503461022d5760407ffffffffffffffffffffffffffffffffffffffffffffffffffffffffffffffffc36011261022d57604060209173ffffffffffffffffffffffffffffffffffffffff611800612173565b16815260038352818120602435825283522054604051908152f35b503461022d5760807ffffffffffffffffffffffffffffffffffffffffffffffffffffffffffffffffc36011261022d576003600435101561022d5760243567ffffffffffffffff81116107fa57611876903690600401612204565b5050611880612831565b60646040517f08c379a000000000000000000000000000000000000000000000000000000000815260206004820152600d60248201527f6d757374206f76657272696465000000000000000000000000000000000000006044820152fd5b503461022d57807ffffffffffffffffffffffffffffffffffffffffffffffffffffffffffffffffc36011261022d573373ffffffffffffffffffffffffffffffffffffffff60015416036119bc577fffffffffffffffffffffffff0000000000000000000000000000000000000000600154166001558054337fffffffffffffffffffffffff0000000000000000000000000000000000000000821617825573ffffffffffffffffffffffffffffffffffffffff3391167f8be0079c531659141344cd1fd0a4f28419497f9722a3daafe3b4186f6b6457e08380a380f35b807f118cdaa7000000000000000000000000000000000000000000000000000000006024925233600452fd5b503461022d57807ffffffffffffffffffffffffffffffffffffffffffffffffffffffffffffffffc36011261022d57602060405173ffffffffffffffffffffffffffffffffffffffff7f0000000000000000000000000000000000000000000000000000000000000000168152f35b503461022d57807ffffffffffffffffffffffffffffffffffffffffffffffffffffffffffffffffc36011261022d57611a8e6127e5565b7fffffffffffffffffffffffff0000000000000000000000000000000000000000600154166001558073ffffffffffffffffffffffffffffffffffffffff81547fffffffffffffffffffffffff000000000000000000000000000000000000000081168355167f8be0079c531659141344cd1fd0a4f28419497f9722a3daafe3b4186f6b6457e08280a380f35b503461022d57807ffffffffffffffffffffffffffffffffffffffffffffffffffffffffffffffffc36011261022d57602060405163ffffffff7f0000000000000000000000000000000000000000000000000000000000000000168152f35b503461022d5760607ffffffffffffffffffffffffffffffffffffffffffffffffffffffffffffffffc36011261022d576004359067ffffffffffffffff821161022d5781600401916101207ffffffffffffffffffffffffffffffffffffffffffffffffffffffffffffffffc82360301126107fa57611bf7612831565b60648101611c687fe1ea48fc000000000000000000000000000000000000000000000000000000007fffffffff00000000000000000000000000000000000000000000000000000000611c53611c4d858961276a565b906128ce565b1614611c62611c4d848861276a565b90612934565b611c718461298a565b73ffffffffffffffffffffffffffffffffffffffff30911603611e6957611cce91611cc761010492611c62611c4d3073ffffffffffffffffffffffffffffffffffffffff611cbe8b61298a565b1614928961276a565b018361276a565b5060208101357f7fffffffffffffffffffffffffffffff5d576e7357a4501ddfe92f46681b20a08111611e4157608060209284926040519160243583526040810135851a86840152356040830152606082015282805260015afa15611e355780519173ffffffffffffffffffffffffffffffffffffffff831615611e0d57917fffffffffffffffffffffffffffffffffffffffffffffffffffffffffffffffe0601f606093611dac611da07fffffffffffff000000000000000000000000000000000000000000000000000097612a0c565b91909560443590612af9565b611e075760015b79ffffffffffff0000000000000000000000000000000000000000604051988997604089528951958660408b01528660808c8c015e8a878b01015260d01b169260a01b161717602085015201168101030190f35b81611db3565b6004827f8baa579f000000000000000000000000000000000000000000000000000000008152fd5b604051903d90823e3d90fd5b6004837f617cf474000000000000000000000000000000000000000000000000000000008152fd5b6004837f48882656000000000000000000000000000000000000000000000000000000008152fd5b503461022d5760207ffffffffffffffffffffffffffffffffffffffffffffffffffffffffffffffffc36011261022d57610daf611ed4611ecf612173565b61238b565b604080516bffffffffffffffffffffffff948516815293909216602084015265ffffffffffff16908201529081906060820190565b503461022d57807ffffffffffffffffffffffffffffffffffffffffffffffffffffffffffffffffc36011261022d5760206040516bffffffffffffffffffffffff7f0000000000000000000000000000000000000000000000000000000000000000168152f35b503461022d5760407ffffffffffffffffffffffffffffffffffffffffffffffffffffffffffffffffc36011261022d5780611fa9612173565b611fb16127e5565b73ffffffffffffffffffffffffffffffffffffffff7f00000000000000000000000000000000000000000000000000000000000000001690813b15610bab5773ffffffffffffffffffffffffffffffffffffffff604484928360405195869485937f205c287800000000000000000000000000000000000000000000000000000000855216600484015260243560248401525af180156109da576109c95750f35b503461022d57807ffffffffffffffffffffffffffffffffffffffffffffffffffffffffffffffffc36011261022d576020600454604051908152f35b5060207ffffffffffffffffffffffffffffffffffffffffffffffffffffffffffffffffc36011261216f5760043563ffffffff811680910361216f576120d26127e5565b73ffffffffffffffffffffffffffffffffffffffff7f00000000000000000000000000000000000000000000000000000000000000001690813b1561216f575f906024604051809481937f0396cb60000000000000000000000000000000000000000000000000000000008352600483015234905af1801561216457612156575080f35b61216291505f9061224d565b005b6040513d5f823e3d90fd5b5f80fd5b6004359073ffffffffffffffffffffffffffffffffffffffff8216820361216f57565b3461216f575f7ffffffffffffffffffffffffffffffffffffffffffffffffffffffffffffffffc36011261216f57602060405173ffffffffffffffffffffffffffffffffffffffff7f0000000000000000000000000000000000000000000000000000000000000000168152f35b9181601f8401121561216f5782359167ffffffffffffffff831161216f576020838186019501011161216f57565b602435906bffffffffffffffffffffffff8216820361216f57565b90601f7fffffffffffffffffffffffffffffffffffffffffffffffffffffffffffffffe0910116810190811067ffffffffffffffff82111761228e57604052565b7f4e487b71000000000000000000000000000000000000000000000000000000005f52604160045260245ffd5b9065ffffffffffff8091169116039065ffffffffffff82116122d957565b7f4e487b71000000000000000000000000000000000000000000000000000000005f52601160045260245ffd5b818102929181159184041417156122d957565b60ff16604d81116122d957600a0a90565b8115612334570490565b7f4e487b71000000000000000000000000000000000000000000000000000000005f52601260045260245ffd5b906bffffffffffffffffffffffff809116911603906bffffffffffffffffffffffff82116122d957565b73ffffffffffffffffffffffffffffffffffffffff165f52600260205260405f20604051906060820182811067ffffffffffffffff82111761228e57604052546bffffffffffffffffffffffff8116825265ffffffffffff60208301916bffffffffffffffffffffffff8160601c16835260c01c1690816040840152814281115f14612586575061245a6bffffffffffffffffffffffff80612489935116945b511663ffffffff7f00000000000000000000000000000000000000000000000000000000000000001690612306565b6124837f0000000000000000000000000000000000000000000000000000000000000000612319565b9061232a565b6bffffffffffffffffffffffff8111612528576bffffffffffffffffffffffff167f00000000000000000000000000000000000000000000000000000000000000006bffffffffffffffffffffffff8116801515908161251e575b50612516575b50826bffffffffffffffffffffffff828116908216116125105761250d91612361565b92565b50505f92565b90505f6124ea565b905082115f6124e4565b60646040517f08c379a000000000000000000000000000000000000000000000000000000000815260206004820152601960248201527f4d6178207369676e65722071756f746120746f6f2068696768000000000000006044820152fd5b929150505f9161259f65ffffffffffff421691826122bb565b9063ffffffff7f0000000000000000000000000000000000000000000000000000000000000000169182156123345765ffffffffffff9183836125e4931606906122bb565b160165ffffffffffff81116122d95761245a6bffffffffffffffffffffffff612489929361242b565b90357fffffffffffffffffffffffffffffffffffffffffffffffffffffffffffffffe18236030181121561216f57016020813591019167ffffffffffffffff821161216f57813603831361216f57565b601f82602094937fffffffffffffffffffffffffffffffffffffffffffffffffffffffffffffffe093818652868601375f8582860101520116010190565b80359173ffffffffffffffffffffffffffffffffffffffff831680930361216f576127679281526020820135602082015261275861274c6127136126f86126e5604087018761260d565b610120604088015261012087019161265d565b612705606087018761260d565b90868303606088015261265d565b6080850135608085015260a085013560a085015260c085013560c085015261273e60e086018661260d565b9085830360e087015261265d565b9261010081019061260d565b9161010081850391015261265d565b90565b9035907fffffffffffffffffffffffffffffffffffffffffffffffffffffffffffffffe18136030182121561216f570180359067ffffffffffffffff821161216f5760200191813603831361216f57565b906bffffffffffffffffffffffff809116911601906bffffffffffffffffffffffff82116122d957565b73ffffffffffffffffffffffffffffffffffffffff5f5416330361280557565b7f118cdaa7000000000000000000000000000000000000000000000000000000005f523360045260245ffd5b73ffffffffffffffffffffffffffffffffffffffff7f000000000000000000000000000000000000000000000000000000000000000016330361287057565b60646040517f08c379a000000000000000000000000000000000000000000000000000000000815260206004820152601560248201527f53656e646572206e6f7420456e747279506f696e7400000000000000000000006044820152fd5b919091357fffffffff0000000000000000000000000000000000000000000000000000000081169260048110612902575050565b7fffffffff00000000000000000000000000000000000000000000000000000000929350829060040360031b1b161690565b1561293c5750565b7fffffffff00000000000000000000000000000000000000000000000000000000907f839d9ad2000000000000000000000000000000000000000000000000000000005f521660045260245ffd5b6129989060e081019061276a565b60141161216f573560601c90565b919091357fffffffffffff0000000000000000000000000000000000000000000000000000811692600681106129da575050565b7fffffffffffff0000000000000000000000000000000000000000000000000000929350829060060360031b1b161690565b9060e08201612a1b818461276a565b9190506040809210612a9c57612a31818561276a565b909190603a1161216f57612a4c60066034612a5594016129a6565b60d01c9461276a565b909190603a821061216f57811161216f577fffffffffffffffffffffffffffffffffffffffffffffffffffffffffffffffc6603a612a9693019101906129a6565b60d01c90565b606482517f08c379a000000000000000000000000000000000000000000000000000000000815260206004820152601660248201527f496e76616c69642056616c696461746f722044617461000000000000000000006044820152fd5b7f0000000000000000000000000000000000000000000000000000000000000000158015612c4f575b612c48576bffffffffffffffffffffffff612b3c8261238b565b9491929092168111612c405773ffffffffffffffffffffffffffffffffffffffff916bffffffffffffffffffffffff612b769216906127bb565b91165f52600260205260405f209182549065ffffffffffff8260c01c1665ffffffffffff821603612bef575b50507fffffffffffffffff000000000000000000000000ffffffffffffffffffffffff77ffffffffffffffffffffffff00000000000000000000000083549260601b169116179055600190565b7dffffffffffff0000000000000000000000000000000000000000000000007fffff000000000000ffffffffffffffffffffffffffffffffffffffffffffffff9160c01b1691161782555f80612ba2565b505050505f90565b5050600190565b508115612b22565b905f602091828151910182855af115612164575f513d612cd5575073ffffffffffffffffffffffffffffffffffffffff81163b155b612c935750565b73ffffffffffffffffffffffffffffffffffffffff907f5274afe7000000000000000000000000000000000000000000000000000000005f521660045260245ffd5b60011415612c8c56fea264697066735822122013b66011e4139d12b6893b791773c70e64e51c79c5e1aeb86e484a058f5b36ff64736f6c634300081d0033",
  "devdoc": {
    "errors": {
      "OwnableInvalidOwner(address)": [
        {
          "details": "The owner is not a valid owner account. (eg. `address(0)`)"
        }
      ],
      "OwnableUnauthorizedAccount(address)": [
        {
          "details": "The caller account is not authorized to perform an operation."
        }
      ],
      "SafeERC20FailedOperation(address)": [
        {
          "details": "An operation with an ERC-20 token failed."
        }
      ]
    },
    "kind": "dev",
    "methods": {
      "acceptOwnership()": {
        "details": "The new owner accepts the ownership transfer."
      },
      "addStake(uint32)": {
        "params": {
          "unstakeDelaySec": "- The unstake delay for this paymaster. Can only be increased."
        }
      },
      "owner()": {
        "details": "Returns the address of the current owner."
      },
      "pendingOwner()": {
        "details": "Returns the address of the pending owner."
      },
      "postOp(uint8,bytes,uint256,uint256)": {
        "params": {
          "actualGasCost": "- Actual cost of gas used so far (without this postOp call).",
          "actualUserOpFeePerGas": "- the gas price this UserOp pays. This value is based on the UserOp's maxFeePerGas                        and maxPriorityFee (and basefee)                        It is not the same as tx.gasprice, which is what the bundler pays.",
          "context": "- The context value returned by validatePaymasterUserOp",
          "mode": "- Enum with the following options:                        opSucceeded - User operation succeeded.                        opReverted  - User op reverted. The paymaster still has to pay for gas.                        postOpReverted - never passed in a call to postOp()."
        }
      },
      "renounceOwnership()": {
        "details": "Leaves the contract without owner. It will not be possible to call `onlyOwner` functions. Can only be called by the current owner. NOTE: Renouncing ownership will leave the contract without an owner, thereby disabling any functionality that is only available to the owner."
      },
      "transferOwnership(address)": {
        "details": "Starts the ownership transfer of the contract to a new account. Replaces the pending transfer if there is one. Can only be called by the current owner. Setting `newOwner` to the zero address is allowed; this can be used to cancel an initiated ownership transfer."
      },
      "validatePaymasterUserOp((address,uint256,bytes,bytes,bytes32,uint256,bytes32,bytes,bytes),bytes32,uint256)": {
        "params": {
          "maxCost": "- The maximum cost of this transaction (based on maximum gas and gas price from userOp).",
          "userOp": "- The user operation.",
          "userOpHash": "- Hash of the user's request data."
        },
        "returns": {
          "context": "       - Value to send to a postOp. Zero length to signify postOp is not required.",
          "validationData": "- Signature and time-range of this operation, encoded the same as the return                          value of validateUserOperation.                          <20-byte> aggregatorOrSigFail - 0 for valid signature, 1 to mark signature failure,                                                    other values are invalid for paymaster.                          <6-byte> validUntil - Last timestamp this operation is valid at, or 0 for \"indefinitely\"                          <6-byte> validAfter - first timestamp this operation is valid                          Note that the validation code cannot use block.timestamp (or block.number) directly."
        }
      },
      "withdrawStake(address)": {
        "params": {
          "withdrawAddress": "- The address to send withdrawn value."
        }
      },
      "withdrawTo(address,uint256)": {
        "params": {
          "amount": "- Amount to withdraw.",
          "withdrawAddress": "- Target to send to."
        }
      }
    },
    "version": 1
  },
  "userdoc": {
    "errors": {
      "InvalidSignature()": [
        {
          "notice": "Thrown if `ecrecover` yields `address(0)`."
        }
      ],
      "InvalidSignatureSValue()": [
        {
          "notice": "Thrown if the S value of the signature is not from the lower half of the curve."
        }
      ]
    },
    "kind": "user",
    "methods": {
      "addStake(uint32)": {
        "notice": "Add stake for this paymaster. This method can also carry eth value to add to the current stake."
      },
      "deposit()": {
        "notice": "Add a deposit for this paymaster, used for paying for transaction fees."
      },
      "getDeposit()": {
        "notice": "Return current paymaster's deposit on the entryPoint."
      },
      "postOp(uint8,bytes,uint256,uint256)": {
        "notice": "Post-operation handler. Must verify sender is the entryPoint."
      },
      "unlockStake()": {
        "notice": "Unlock the stake, in order to withdraw it. The paymaster can't serve requests once unlocked, until it calls addStake again"
      },
      "validatePaymasterUserOp((address,uint256,bytes,bytes,bytes32,uint256,bytes32,bytes,bytes),bytes32,uint256)": {
        "notice": "Payment validation: check if paymaster agrees to pay. Must verify sender is the entryPoint. Revert to reject this request. Note that bundlers will reject this method if it changes the state, unless the paymaster is trusted (whitelisted). The paymaster pre-pays using its deposit, and receive back a refund after the postOp method returns."
      },
      "withdrawStake(address)": {
        "notice": "Withdraw the entire paymaster's stake. stake must be unlocked first (and then wait for the unstakeDelay to be over)"
      },
      "withdrawTo(address,uint256)": {
        "notice": "Withdraw value from the deposit."
      }
    },
    "version": 1
  },
  "storageLayout": {
    "storage": [
      {
        "astId": 1241,
        "contract": "src/SafeHarbourPaymaster.sol:SafeHarbourPaymaster",
        "label": "_owner",
        "offset": 0,
        "slot": "0",
        "type": "t_address"
      },
      {
        "astId": 1389,
        "contract": "src/SafeHarbourPaymaster.sol:SafeHarbourPaymaster",
        "label": "_pendingOwner",
        "offset": 0,
        "slot": "1",
        "type": "t_address"
      },
      {
        "astId": 4292,
        "contract": "src/SafeHarbourPaymaster.sol:SafeHarbourPaymaster",
        "label": "quotaStatsForSigner",
        "offset": 0,
        "slot": "2",
        "type": "t_mapping(t_address,t_struct(QuotaStats)4256_storage)"
      },
      {
        "astId": 4298,
        "contract": "src/SafeHarbourPaymaster.sol:SafeHarbourPaymaster",
        "label": "withdrawsForSigner",
        "offset": 0,
        "slot": "3",
        "type": "t_mapping(t_address,t_mapping(t_bytes32,t_uint256))"
      },
      {
        "astId": 4853,
        "contract": "src/SafeHarbourPaymaster.sol:SafeHarbourPaymaster",
        "label": "slashedTokens",
        "offset": 0,
        "slot": "4",
        "type": "t_uint256"
      },
      {
        "astId": 4859,
        "contract": "src/SafeHarbourPaymaster.sol:SafeHarbourPaymaster",
        "label": "enabledConditions",
        "offset": 0,
        "slot": "5",
        "type": "t_mapping(t_contract(ISlashingCondition)2954,t_struct(ConditionStatus)4826_storage)"
      },
      {
        "astId": 4863,
        "contract": "src/SafeHarbourPaymaster.sol:SafeHarbourPaymaster",
        "label": "slashedUserOps",
        "offset": 0,
        "slot": "6",
        "type": "t_mapping(t_bytes32,t_uint256)"
      }
    ],
    "types": {
      "t_address": {
        "encoding": "inplace",
        "label": "address",
        "numberOfBytes": "20"
      },
      "t_bytes32": {
        "encoding": "inplace",
        "label": "bytes32",
        "numberOfBytes": "32"
      },
      "t_contract(ISlashingCondition)2954": {
        "encoding": "inplace",
        "label": "contract ISlashingCondition",
        "numberOfBytes": "20"
      },
      "t_mapping(t_address,t_mapping(t_bytes32,t_uint256))": {
        "encoding": "mapping",
        "key": "t_address",
        "label": "mapping(address => mapping(bytes32 => uint256))",
        "numberOfBytes": "32",
        "value": "t_mapping(t_bytes32,t_uint256)"
      },
      "t_mapping(t_address,t_struct(QuotaStats)4256_storage)": {
        "encoding": "mapping",
        "key": "t_address",
        "label": "mapping(address => struct QuotaStats)",
        "numberOfBytes": "32",
        "value": "t_struct(QuotaStats)4256_storage"
      },
      "t_mapping(t_bytes32,t_uint256)": {
        "encoding": "mapping",
        "key": "t_bytes32",
        "label": "mapping(bytes32 => uint256)",
        "numberOfBytes": "32",
        "value": "t_uint256"
      },
      "t_mapping(t_contract(ISlashingCondition)2954,t_struct(ConditionStatus)4826_storage)": {
        "encoding": "mapping",
        "key": "t_contract(ISlashingCondition)2954",
        "label": "mapping(contract ISlashingCondition => struct SlashingMixin.ConditionStatus)",
        "numberOfBytes": "32",
        "value": "t_struct(ConditionStatus)4826_storage"
      },
      "t_struct(ConditionStatus)4826_storage": {
        "encoding": "inplace",
        "label": "struct SlashingMixin.ConditionStatus",
        "members": [
          {
            "astId": 4823,
            "contract": "src/SafeHarbourPaymaster.sol:SafeHarbourPaymaster",
            "label": "enabledAfter",
            "offset": 0,
            "slot": "0",
            "type": "t_uint48"
          },
          {
            "astId": 4825,
            "contract": "src/SafeHarbourPaymaster.sol:SafeHarbourPaymaster",
            "label": "enabledUntil",
            "offset": 6,
            "slot": "0",
            "type": "t_uint48"
          }
        ],
        "numberOfBytes": "32"
      },
      "t_struct(QuotaStats)4256_storage": {
        "encoding": "inplace",
        "label": "struct QuotaStats",
        "members": [
          {
            "astId": 4251,
            "contract": "src/SafeHarbourPaymaster.sol:SafeHarbourPaymaster",
            "label": "tokenBalance",
            "offset": 0,
            "slot": "0",
            "type": "t_uint96"
          },
          {
            "astId": 4253,
            "contract": "src/SafeHarbourPaymaster.sol:SafeHarbourPaymaster",
            "label": "usedQuota",
            "offset": 12,
            "slot": "0",
            "type": "t_uint96"
          },
          {
            "astId": 4255,
            "contract": "src/SafeHarbourPaymaster.sol:SafeHarbourPaymaster",
            "label": "nextQuotaReset",
            "offset": 24,
            "slot": "0",
            "type": "t_uint48"
          }
        ],
        "numberOfBytes": "32"
      },
      "t_uint256": {
        "encoding": "inplace",
        "label": "uint256",
        "numberOfBytes": "32"
      },
      "t_uint48": {
        "encoding": "inplace",
        "label": "uint48",
        "numberOfBytes": "6"
      },
      "t_uint96": {
        "encoding": "inplace",
        "label": "uint96",
        "numberOfBytes": "12"
      }
    }
  }
}