{
  "address": "0x570e7926Ff2300680eb10a29db8Ab59b48C92319",
  "abi": [
    {
      "inputs": [
        {
          "components": [
            {
              "internalType": "address",
              "name": "entryPoint",
              "type": "address"
            },
            {
              "internalType": "uint256",
              "name": "maxPriorityFee",
              "type": "uint256"
            },
            {
              "internalType": "uint256",
              "name": "preVerificationGasPerByte",
              "type": "uint256"
            },
            {
              "internalType": "uint256",
              "name": "preVerificationBaseGas",
              "type": "uint256"
            },
            {
              "internalType": "uint256",
              "name": "verificationGasPerByte",
              "type": "uint256"
            },
            {
              "internalType": "uint256",
              "name": "callGasPerByte",
              "type": "uint256"
            }
          ],
          "internalType": "struct ERC4337Mixin.ERC4337MixinConfig",
          "name": "_erc4337Mixinconfig",
          "type": "tuple"
        },
        {
          "components": [
            {
              "internalType": "uint64",
              "name": "timeframeQuotaReset",
              "type": "uint64"
            },
            {
              "internalType": "uint16",
              "name": "requiredQuotaMultiplier",
              "type": "uint16"
            },
            {
              "internalType": "uint32",
              "name": "quotaPerDepositedFeeToken",
              "type": "uint32"
            },
            {
              "internalType": "uint32",
              "name": "maxFreeQuota",
              "type": "uint32"
            },
            {
              "internalType": "address",
              "name": "feeToken",
              "type": "address"
            },
            {
              "internalType": "uint8",
              "name": "feeTokenDecimals",
              "type": "uint8"
            }
          ],
          "internalType": "struct QuotaMixin.QuotaMixinConfig",
          "name": "_quotaMixinconfig",
          "type": "tuple"
        }
      ],
      "stateMutability": "nonpayable",
      "type": "constructor"
    },
    {
      "inputs": [],
      "name": "InvalidECDSASignatureLength",
      "type": "error"
    },
    {
      "inputs": [
        {
          "internalType": "address",
          "name": "entryPoint",
          "type": "address"
        }
      ],
      "name": "InvalidEntryPoint",
      "type": "error"
    },
    {
      "inputs": [],
      "name": "InvalidSignature",
      "type": "error"
    },
    {
      "inputs": [],
      "name": "InvalidSignatureSValue",
      "type": "error"
    },
    {
      "inputs": [
        {
          "internalType": "bytes4",
          "name": "targetSelector",
          "type": "bytes4"
        }
      ],
      "name": "InvalidTarget",
      "type": "error"
    },
    {
      "inputs": [],
      "name": "InvalidUserOpPaymasterAndData",
      "type": "error"
    },
    {
      "inputs": [
        {
          "internalType": "address",
          "name": "token",
          "type": "address"
        }
      ],
      "name": "SafeERC20FailedOperation",
      "type": "error"
    },
    {
      "inputs": [
        {
          "internalType": "address",
          "name": "signer",
          "type": "address"
        },
        {
          "internalType": "bytes32",
          "name": "safeTxHash",
          "type": "bytes32"
        }
      ],
      "name": "SignerAlreadySignedTransaction",
      "type": "error"
    },
    {
      "inputs": [
        {
          "internalType": "uint256",
          "name": "expectedNonce",
          "type": "uint256"
        }
      ],
      "name": "UnexpectedNonce",
      "type": "error"
    },
    {
      "inputs": [
        {
          "internalType": "bytes32",
          "name": "expectedSafeTxHash",
          "type": "bytes32"
        }
      ],
      "name": "UnexpectedSafeTxHash",
      "type": "error"
    },
    {
      "inputs": [
        {
          "internalType": "bytes32",
          "name": "extractedR",
          "type": "bytes32"
        }
      ],
      "name": "UnexpectedSignatureR",
      "type": "error"
    },
    {
      "inputs": [
        {
          "internalType": "bytes32",
          "name": "extractedVS",
          "type": "bytes32"
        }
      ],
      "name": "UnexpectedSignatureVS",
      "type": "error"
    },
    {
      "inputs": [
        {
          "internalType": "address",
          "name": "recoveredSigner",
          "type": "address"
        }
      ],
      "name": "UnexpectedSigner",
      "type": "error"
    },
    {
      "inputs": [],
      "name": "ValueDoesNotFitInUint128",
      "type": "error"
    },
    {
      "anonymous": false,
      "inputs": [
        {
          "indexed": true,
          "internalType": "address",
          "name": "signer",
          "type": "address"
        },
        {
          "indexed": true,
          "internalType": "uint256",
          "name": "amount",
          "type": "uint256"
        }
      ],
      "name": "Deposit",
      "type": "event"
    },
    {
      "anonymous": false,
      "inputs": [
        {
          "indexed": true,
          "internalType": "bytes32",
          "name": "safeTxHash",
          "type": "bytes32"
        },
        {
          "indexed": true,
          "internalType": "address",
          "name": "safe",
          "type": "address"
        },
        {
          "indexed": true,
          "internalType": "uint256",
          "name": "chainId",
          "type": "uint256"
        },
        {
          "indexed": false,
          "internalType": "uint256",
          "name": "nonce",
          "type": "uint256"
        },
        {
          "indexed": false,
          "internalType": "address",
          "name": "to",
          "type": "address"
        },
        {
          "indexed": false,
          "internalType": "uint256",
          "name": "value",
          "type": "uint256"
        },
        {
          "indexed": false,
          "internalType": "uint8",
          "name": "operation",
          "type": "uint8"
        },
        {
          "indexed": false,
          "internalType": "uint256",
          "name": "safeTxGas",
          "type": "uint256"
        },
        {
          "indexed": false,
          "internalType": "uint256",
          "name": "baseGas",
          "type": "uint256"
        },
        {
          "indexed": false,
          "internalType": "uint256",
          "name": "gasPrice",
          "type": "uint256"
        },
        {
          "indexed": false,
          "internalType": "address",
          "name": "gasToken",
          "type": "address"
        },
        {
          "indexed": false,
          "internalType": "address",
          "name": "refundReceiver",
          "type": "address"
        },
        {
          "indexed": false,
          "internalType": "bytes",
          "name": "data",
          "type": "bytes"
        }
      ],
      "name": "NewTransaction",
      "type": "event"
    },
    {
      "anonymous": false,
      "inputs": [
        {
          "indexed": true,
          "internalType": "address",
          "name": "signer",
          "type": "address"
        },
        {
          "indexed": true,
          "internalType": "address",
          "name": "safe",
          "type": "address"
        },
        {
          "indexed": true,
          "internalType": "bytes32",
          "name": "safeTxHash",
          "type": "bytes32"
        },
        {
          "indexed": false,
          "internalType": "uint256",
          "name": "chainId",
          "type": "uint256"
        },
        {
          "indexed": false,
          "internalType": "uint256",
          "name": "nonce",
          "type": "uint256"
        },
        {
          "indexed": false,
          "internalType": "uint256",
          "name": "listIndex",
          "type": "uint256"
        }
      ],
      "name": "SignatureStored",
      "type": "event"
    },
    {
      "anonymous": false,
      "inputs": [
        {
          "indexed": true,
          "internalType": "address",
          "name": "signer",
          "type": "address"
        },
        {
          "indexed": true,
          "internalType": "uint256",
          "name": "amount",
          "type": "uint256"
        }
      ],
      "name": "Withdraw",
      "type": "event"
    },
    {
      "inputs": [],
      "name": "CALL_GAS_PER_BYTE",
      "outputs": [
        {
          "internalType": "uint256",
          "name": "",
          "type": "uint256"
        }
      ],
      "stateMutability": "view",
      "type": "function"
    },
    {
      "inputs": [],
      "name": "FEE_TOKEN",
      "outputs": [
        {
          "internalType": "address",
          "name": "",
          "type": "address"
        }
      ],
      "stateMutability": "view",
      "type": "function"
    },
    {
      "inputs": [],
      "name": "FEE_TOKEN_DECIMALS",
      "outputs": [
        {
          "internalType": "uint8",
          "name": "",
          "type": "uint8"
        }
      ],
      "stateMutability": "view",
      "type": "function"
    },
    {
      "inputs": [],
      "name": "FREE_QUOTA_PER_DEPOSITED_FEE_TOKEN",
      "outputs": [
        {
          "internalType": "uint32",
          "name": "",
          "type": "uint32"
        }
      ],
      "stateMutability": "view",
      "type": "function"
    },
    {
      "inputs": [],
      "name": "MAX_FREE_QUOTA",
      "outputs": [
        {
          "internalType": "uint32",
          "name": "",
          "type": "uint32"
        }
      ],
      "stateMutability": "view",
      "type": "function"
    },
    {
      "inputs": [],
      "name": "MAX_PRIORITY_FEE",
      "outputs": [
        {
          "internalType": "uint256",
          "name": "",
          "type": "uint256"
        }
      ],
      "stateMutability": "view",
      "type": "function"
    },
    {
      "inputs": [],
      "name": "PRE_VERIFICATION_BASE_GAS",
      "outputs": [
        {
          "internalType": "uint256",
          "name": "",
          "type": "uint256"
        }
      ],
      "stateMutability": "view",
      "type": "function"
    },
    {
      "inputs": [],
      "name": "PRE_VERIFICATION_GAS_PER_BYTE",
      "outputs": [
        {
          "internalType": "uint256",
          "name": "",
          "type": "uint256"
        }
      ],
      "stateMutability": "view",
      "type": "function"
    },
    {
      "inputs": [],
      "name": "REQUIRED_QUOTA_MULTIPLIER",
      "outputs": [
        {
          "internalType": "uint16",
          "name": "",
          "type": "uint16"
        }
      ],
      "stateMutability": "view",
      "type": "function"
    },
    {
      "inputs": [],
      "name": "SUPPORTED_ENTRYPOINT",
      "outputs": [
        {
          "internalType": "address",
          "name": "",
          "type": "address"
        }
      ],
      "stateMutability": "view",
      "type": "function"
    },
    {
      "inputs": [],
      "name": "TIMEFRAME_QUOTA_RESET",
      "outputs": [
        {
          "internalType": "uint64",
          "name": "",
          "type": "uint64"
        }
      ],
      "stateMutability": "view",
      "type": "function"
    },
    {
      "inputs": [],
      "name": "VERIFICATION_GAS_PER_BYTE",
      "outputs": [
        {
          "internalType": "uint256",
          "name": "",
          "type": "uint256"
        }
      ],
      "stateMutability": "view",
      "type": "function"
    },
    {
      "inputs": [
        {
          "internalType": "address",
          "name": "signer",
          "type": "address"
        }
      ],
      "name": "availableFreeQuotaForSigner",
      "outputs": [
        {
          "internalType": "uint64",
          "name": "availableFreeQuota",
          "type": "uint64"
        },
        {
          "internalType": "uint64",
          "name": "usedSignerQuota",
          "type": "uint64"
        },
        {
          "internalType": "uint64",
          "name": "nextSignerQuotaReset",
          "type": "uint64"
        }
      ],
      "stateMutability": "view",
      "type": "function"
    },
    {
      "inputs": [
        {
          "internalType": "address",
          "name": "signer",
          "type": "address"
        },
        {
          "internalType": "uint128",
          "name": "amount",
          "type": "uint128"
        }
      ],
      "name": "depositTokensForSigner",
      "outputs": [],
      "stateMutability": "nonpayable",
      "type": "function"
    },
    {
      "inputs": [
        {
          "internalType": "address",
          "name": "safeAddress",
          "type": "address"
        },
        {
          "internalType": "uint256",
          "name": "chainId",
          "type": "uint256"
        },
        {
          "internalType": "uint256",
          "name": "nonce",
          "type": "uint256"
        },
        {
          "internalType": "address",
          "name": "to",
          "type": "address"
        },
        {
          "internalType": "uint256",
          "name": "value",
          "type": "uint256"
        },
        {
          "internalType": "bytes",
          "name": "data",
          "type": "bytes"
        },
        {
          "internalType": "uint8",
          "name": "operation",
          "type": "uint8"
        },
        {
          "internalType": "uint256",
          "name": "safeTxGas",
          "type": "uint256"
        },
        {
          "internalType": "uint256",
          "name": "baseGas",
          "type": "uint256"
        },
        {
          "internalType": "uint256",
          "name": "gasPrice",
          "type": "uint256"
        },
        {
          "internalType": "address",
          "name": "gasToken",
          "type": "address"
        },
        {
          "internalType": "address",
          "name": "refundReceiver",
          "type": "address"
        },
        {
          "internalType": "bytes",
          "name": "signature",
          "type": "bytes"
        }
      ],
      "name": "enqueueTransaction",
      "outputs": [
        {
          "internalType": "uint256",
          "name": "listIndex",
          "type": "uint256"
        }
      ],
      "stateMutability": "nonpayable",
      "type": "function"
    },
    {
      "inputs": [
        {
          "internalType": "address",
          "name": "signer",
          "type": "address"
        }
      ],
      "name": "getNonce",
      "outputs": [
        {
          "internalType": "uint256",
          "name": "",
          "type": "uint256"
        }
      ],
      "stateMutability": "view",
      "type": "function"
    },
    {
      "inputs": [
        {
          "internalType": "address",
          "name": "",
          "type": "address"
        }
      ],
      "name": "quotaStatsForSigner",
      "outputs": [
        {
          "internalType": "uint128",
          "name": "tokenBalance",
          "type": "uint128"
        },
        {
          "internalType": "uint64",
          "name": "usedQuota",
          "type": "uint64"
        },
        {
          "internalType": "uint64",
          "name": "nextQuotaReset",
          "type": "uint64"
        }
      ],
      "stateMutability": "view",
      "type": "function"
    },
    {
      "inputs": [
        {
          "internalType": "address",
          "name": "signerAddress",
          "type": "address"
        },
        {
          "internalType": "address",
          "name": "safeAddress",
          "type": "address"
        },
        {
          "internalType": "uint256",
          "name": "chainId",
          "type": "uint256"
        },
        {
          "internalType": "uint256",
          "name": "nonce",
          "type": "uint256"
        },
        {
          "internalType": "uint256",
          "name": "start",
          "type": "uint256"
        },
        {
          "internalType": "uint256",
          "name": "count",
          "type": "uint256"
        }
      ],
      "name": "retrieveSignatures",
      "outputs": [
        {
          "components": [
            {
              "internalType": "bytes32",
              "name": "r",
              "type": "bytes32"
            },
            {
              "internalType": "bytes32",
              "name": "vs",
              "type": "bytes32"
            },
            {
              "internalType": "bytes32",
              "name": "txHash",
              "type": "bytes32"
            }
          ],
          "internalType": "struct SignatureDataWithTxHashIndex[]",
          "name": "page",
          "type": "tuple[]"
        },
        {
          "internalType": "uint256",
          "name": "totalCount",
          "type": "uint256"
        }
      ],
      "stateMutability": "view",
      "type": "function"
    },
    {
      "inputs": [
        {
          "internalType": "address",
          "name": "signerAddress",
          "type": "address"
        },
        {
          "internalType": "address",
          "name": "safeAddress",
          "type": "address"
        },
        {
          "internalType": "uint256",
          "name": "chainId",
          "type": "uint256"
        },
        {
          "internalType": "uint256",
          "name": "nonce",
          "type": "uint256"
        }
      ],
      "name": "retrieveSignaturesCount",
      "outputs": [
        {
          "internalType": "uint256",
          "name": "count",
          "type": "uint256"
        }
      ],
      "stateMutability": "view",
      "type": "function"
    },
    {
      "inputs": [
        {
          "internalType": "bytes32",
          "name": "safeTxHash",
          "type": "bytes32"
        }
      ],
      "name": "retrieveTransaction",
      "outputs": [
        {
          "components": [
            {
              "internalType": "bool",
              "name": "stored",
              "type": "bool"
            },
            {
              "internalType": "uint8",
              "name": "operation",
              "type": "uint8"
            },
            {
              "internalType": "address",
              "name": "to",
              "type": "address"
            },
            {
              "internalType": "uint128",
              "name": "value",
              "type": "uint128"
            },
            {
              "internalType": "uint128",
              "name": "safeTxGas",
              "type": "uint128"
            },
            {
              "internalType": "uint128",
              "name": "baseGas",
              "type": "uint128"
            },
            {
              "internalType": "uint128",
              "name": "gasPrice",
              "type": "uint128"
            },
            {
              "internalType": "address",
              "name": "gasToken",
              "type": "address"
            },
            {
              "internalType": "address",
              "name": "refundReceiver",
              "type": "address"
            },
            {
              "internalType": "bytes",
              "name": "data",
              "type": "bytes"
            }
          ],
          "internalType": "struct SafeTransaction",
          "name": "txParams",
          "type": "tuple"
        }
      ],
      "stateMutability": "view",
      "type": "function"
    },
    {
      "inputs": [
        {
          "internalType": "bytes32",
          "name": "safeTxHash",
          "type": "bytes32"
        },
        {
          "internalType": "address",
          "name": "safeAddress",
          "type": "address"
        },
        {
          "internalType": "uint256",
          "name": "chainId",
          "type": "uint256"
        },
        {
          "internalType": "uint256",
          "name": "nonce",
          "type": "uint256"
        },
        {
          "internalType": "address",
          "name": "to",
          "type": "address"
        },
        {
          "internalType": "uint256",
          "name": "value",
          "type": "uint256"
        },
        {
          "internalType": "bytes",
          "name": "data",
          "type": "bytes"
        },
        {
          "internalType": "uint8",
          "name": "operation",
          "type": "uint8"
        },
        {
          "internalType": "uint256",
          "name": "safeTxGas",
          "type": "uint256"
        },
        {
          "internalType": "uint256",
          "name": "baseGas",
          "type": "uint256"
        },
        {
          "internalType": "uint256",
          "name": "gasPrice",
          "type": "uint256"
        },
        {
          "internalType": "address",
          "name": "gasToken",
          "type": "address"
        },
        {
          "internalType": "address",
          "name": "refundReceiver",
          "type": "address"
        },
        {
          "internalType": "address",
          "name": "signer",
          "type": "address"
        },
        {
          "internalType": "bytes32",
          "name": "r",
          "type": "bytes32"
        },
        {
          "internalType": "bytes32",
          "name": "vs",
          "type": "bytes32"
        }
      ],
      "name": "storeTransaction",
      "outputs": [
        {
          "internalType": "uint256",
          "name": "listIndex",
          "type": "uint256"
        }
      ],
      "stateMutability": "nonpayable",
      "type": "function"
    },
    {
      "inputs": [
        {
          "components": [
            {
              "internalType": "address",
              "name": "sender",
              "type": "address"
            },
            {
              "internalType": "uint256",
              "name": "nonce",
              "type": "uint256"
            },
            {
              "internalType": "bytes",
              "name": "initCode",
              "type": "bytes"
            },
            {
              "internalType": "bytes",
              "name": "callData",
              "type": "bytes"
            },
            {
              "internalType": "bytes32",
              "name": "accountGasLimits",
              "type": "bytes32"
            },
            {
              "internalType": "uint256",
              "name": "preVerificationGas",
              "type": "uint256"
            },
            {
              "internalType": "bytes32",
              "name": "gasFees",
              "type": "bytes32"
            },
            {
              "internalType": "bytes",
              "name": "paymasterAndData",
              "type": "bytes"
            },
            {
              "internalType": "bytes",
              "name": "signature",
              "type": "bytes"
            }
          ],
          "internalType": "struct PackedUserOperation",
          "name": "userOp",
          "type": "tuple"
        },
        {
          "internalType": "bytes32",
          "name": "",
          "type": "bytes32"
        },
        {
          "internalType": "uint256",
          "name": "",
          "type": "uint256"
        }
      ],
      "name": "validateUserOp",
      "outputs": [
        {
          "internalType": "uint256",
          "name": "validationData",
          "type": "uint256"
        }
      ],
      "stateMutability": "nonpayable",
      "type": "function"
    },
    {
      "inputs": [
        {
          "internalType": "bytes",
          "name": "signature",
          "type": "bytes"
        },
        {
          "internalType": "uint128",
          "name": "amount",
          "type": "uint128"
        },
        {
          "internalType": "address",
          "name": "beneficiary",
          "type": "address"
        },
        {
          "internalType": "uint256",
          "name": "nonce",
          "type": "uint256"
        }
      ],
      "name": "widthdrawTokensForSigner",
      "outputs": [],
      "stateMutability": "payable",
      "type": "function"
    },
    {
      "inputs": [
        {
          "internalType": "address",
          "name": "",
          "type": "address"
        },
        {
          "internalType": "bytes32",
          "name": "",
          "type": "bytes32"
        }
      ],
      "name": "withdrawsForSigner",
      "outputs": [
        {
          "internalType": "uint256",
          "name": "",
          "type": "uint256"
        }
      ],
      "stateMutability": "view",
      "type": "function"
    }
  ],
  "args": [
    {
      "entryPoint": "0x4337084d9e255ff0702461cf8895ce9e3b5ff108",
      "maxPriorityFee": "2000000000",
      "preVerificationGasPerByte": 25,
      "preVerificationBaseGas": 40000,
      "verificationGasPerByte": 200,
      "callGasPerByte": 1000
    },
    {
      "timeframeQuotaReset": 86400,
      "requiredQuotaMultiplier": 1,
      "quotaPerDepositedFeeToken": 1000000,
      "maxFreeQuota": 5000,
      "feeToken": "0xfFf9976782d46CC05630D1f6eBAb18b2324d6B14",
      "feeTokenDecimals": 18
    }
  ],
  "numDeployments": 6,
  "solcInputHash": "16b53e9dd32acdd99a485b9d75058e40",
  "bytecode": "0x6102006040523461028e5760405161337b38819003601f8101601f191683016001600160401b038111848210176102925783928291604052833981010390610180821261028e5760c0821261028e576100566102a6565b90610060816102c5565b82526020810151926020830193845260408201519060408401918252606083015194606085019586526080840151946080810195865260c060a08601519360a0830194855260bf19011261028e576100b66102a6565b60c08601519091906001600160401b038116810361028e57825260e08601519161ffff8316830361028e57602081019283526100f561010088016102d9565b906040810191825261010a61012089016102d9565b95606082019687526101606101226101408b016102c5565b99608084019a8b5201519960ff8b168b0361028e5760a08381019b8c5294516001600160a01b039081166080529651909452965160c052985160e05290516101005293516101205295516001600160401b031661014052915163ffffffff90811661016052945161ffff1661018052519093166101a052519091166101c0525160ff166101e05260405161309090816102eb823960805181818161022b0152818161145101528181611b960152612105015260a05181818161057201526117a6015260c0518181816112a8015261251c015260e051818181610c55015261254301526101005181818161112c015261257c0152610120518181816105ca01526125c101526101405181818161118d01526123d4015261016051818181610bfc0152612256015261018051818181610625015261260101526101a0518181816111eb01526122d301526101c05181818161097a01526110d301526101e051818181610caf01526122800152f35b5f80fd5b634e487b7160e01b5f52604160045260245ffd5b6040519060c082016001600160401b0381118382101761029257604052565b51906001600160a01b038216820361028e57565b519063ffffffff8216820361028e5756fe60a0806040526004361015610012575f80fd5b5f3560e01c908163137e051e14611b4e575080631573a55d14611aaa5780631846652a1461196c57806319822f7c146113c35780632220debb1461130c5780632d0335ab146112cb57806339ba5c8a14611273578063519e98151461120f57806353f74a10146111b15780636f9bb7bd1461114f578063700e4ca9146110f757806373717b081461108957806375f398fe14610d425780637eec7d6814610cd357806388ee6cf414610c785780639229f4cf14610c205780639f9b5ef414610bc2578063a3be4d7b14610b32578063b930d9ad14610649578063c0f06efd146105ed578063c7efacb114610595578063c90e34461461053d578063dd030c67146102885763e1ea48fc14610124575f80fd5b34610284576102007ffffffffffffffffffffffffffffffffffffffffffffffffffffffffffffffffc3601126102845760043561015f611bdd565b60443590606435916084359373ffffffffffffffffffffffffffffffffffffffff851685036102845760c43567ffffffffffffffff8111610284576101a8903690600401611c43565b94909260e43560ff81168103610284576101c0611c00565b610184359073ffffffffffffffffffffffffffffffffffffffff82168203610284576101a4359673ffffffffffffffffffffffffffffffffffffffff881688036102845760209a8961026d9561027c9c6102523373ffffffffffffffffffffffffffffffffffffffff7f0000000000000000000000000000000000000000000000000000000000000000163314611c71565b61014435948b61012435958c8c610104359760a435946128c2565b6101e435946101c43594612e0b565b604051908152f35b5f80fd5b34610284576101a07ffffffffffffffffffffffffffffffffffffffffffffffffffffffffffffffffc360112610284576102c0611bba565b60643573ffffffffffffffffffffffffffffffffffffffff811681036102845760a43567ffffffffffffffff811161028457610300903690600401611c43565b909260c435919060ff8316830361028457610144359073ffffffffffffffffffffffffffffffffffffffff821682036102845761033b611c00565b93610184359467ffffffffffffffff8611610284576103606041963690600401611c43565b96909603610515576103998185610124358b89878d610388610104359460e43594369161248f565b90608435906044356024358e612746565b937f7fffffffffffffffffffffffffffffff5d576e7357a4501ddfe92f46681b20a06020880135116104ed5760205f608060405188815260408b0135831a848201528a356040820152838b0135606082015282805260015afa156104e2575f519573ffffffffffffffffffffffffffffffffffffffff8716156104ba5760209961027c99610440956101243593610104359360e43593608435906044356024358d8f6128c2565b815f526004865260405f2073ffffffffffffffffffffffffffffffffffffffff84165f528652610479828460ff60405f20541615611d72565b858401357fffffffffffffffffffffffffffffffffffffffffffffffffffffffffffffffe560408601355f1a0160ff1b179335926044359160243591612e0b565b7f8baa579f000000000000000000000000000000000000000000000000000000005f5260045ffd5b6040513d5f823e3d90fd5b7f617cf474000000000000000000000000000000000000000000000000000000005f5260045ffd5b7f85e6258e000000000000000000000000000000000000000000000000000000005f5260045ffd5b34610284575f7ffffffffffffffffffffffffffffffffffffffffffffffffffffffffffffffffc3601126102845760206040517f00000000000000000000000000000000000000000000000000000000000000008152f35b34610284575f7ffffffffffffffffffffffffffffffffffffffffffffffffffffffffffffffffc3601126102845760206040517f00000000000000000000000000000000000000000000000000000000000000008152f35b34610284575f7ffffffffffffffffffffffffffffffffffffffffffffffffffffffffffffffffc36011261028457602060405161ffff7f0000000000000000000000000000000000000000000000000000000000000000168152f35b60807ffffffffffffffffffffffffffffffffffffffffffffffffffffffffffffffffc3601126102845760043567ffffffffffffffff811161028457610693903690600401611c43565b5061069c611c24565b906044359173ffffffffffffffffffffffffffffffffffffffff8316809303610284576fffffffffffffffffffffffffffffffff169160405160208101907f47e79534a245952e8b16893a336b85a3d9ea9fa8c573f3d803afb92a79469218825246604082015230606082015260608152610718608082611e26565b5190206107b46107e060405160208101907ff004bebf3ce3a32f609e24232a25277f97bc1a0843e36f180d0e414dd5a65b7a825287604082015285606082015260643560808201526080815261076f60a082611e26565b51902060405192839160208301958690916042927f19010000000000000000000000000000000000000000000000000000000000008352600283015260228201520190565b037fffffffffffffffffffffffffffffffffffffffffffffffffffffffffffffffe08101835282611e26565b519020916020810135907f7fffffffffffffffffffffffffffffff5d576e7357a4501ddfe92f46681b20a082116104ed5760805f91602093604051918783526040810135851a86840152356040830152606082015282805260015afa156104e25773ffffffffffffffffffffffffffffffffffffffff5f51169182156104ba57825f52600160205260405f20815f5260205260405f2054610ad457825f52600160205260405f20905f526020524260405f2055815f525f60205260405f209081546fffffffffffffffffffffffffffffffff811690858210610a7657429060c01c10156109f257849003916fffffffffffffffffffffffffffffffff83116109c5576fffffffffffffffffffffffffffffffff61099f93167fffffffffffffffffffffffffffffffff00000000000000000000000000000000825416179055604051907fa9059cbb000000000000000000000000000000000000000000000000000000006020830152602482015283604482015260448152610963606482611e26565b73ffffffffffffffffffffffffffffffffffffffff7f000000000000000000000000000000000000000000000000000000000000000016612f7f565b7f884edad9ce6fa2440d8a54cc123490eb96d2768479d49ff9c7366125a94243645f80a3005b7f4e487b71000000000000000000000000000000000000000000000000000000005f52601160045260245ffd5b60846040517f08c379a000000000000000000000000000000000000000000000000000000000815260206004820152602b60248201527f546f6b656e732068617665206265656e207573656420647572696e672074686960448201527f732074696d656672616d650000000000000000000000000000000000000000006064820152fd5b60646040517f08c379a000000000000000000000000000000000000000000000000000000000815260206004820152601360248201527f496e73756666696369656e7420546f6b656e73000000000000000000000000006044820152fd5b60646040517f08c379a000000000000000000000000000000000000000000000000000000000815260206004820152602060248201527f5769746864726177616c2077617320616c726561647920706572666f726d65646044820152fd5b346102845760207ffffffffffffffffffffffffffffffffffffffffffffffffffffffffffffffffc3601126102845773ffffffffffffffffffffffffffffffffffffffff610b7e611bba565b165f525f602052606060405f2054604051906fffffffffffffffffffffffffffffffff8116825267ffffffffffffffff8160801c16602083015260c01c6040820152f35b34610284575f7ffffffffffffffffffffffffffffffffffffffffffffffffffffffffffffffffc36011261028457602060405163ffffffff7f0000000000000000000000000000000000000000000000000000000000000000168152f35b34610284575f7ffffffffffffffffffffffffffffffffffffffffffffffffffffffffffffffffc3601126102845760206040517f00000000000000000000000000000000000000000000000000000000000000008152f35b34610284575f7ffffffffffffffffffffffffffffffffffffffffffffffffffffffffffffffffc36011261028457602060405160ff7f0000000000000000000000000000000000000000000000000000000000000000168152f35b346102845760407ffffffffffffffffffffffffffffffffffffffffffffffffffffffffffffffffc3601126102845773ffffffffffffffffffffffffffffffffffffffff610d1f611bba565b165f52600160205260405f206024355f52602052602060405f2054604051908152f35b346102845760207ffffffffffffffffffffffffffffffffffffffffffffffffffffffffffffffffc360112610284576060610120604051610d8281611dc0565b5f81525f60208201525f60408201525f838201525f60808201525f60a08201525f60c08201525f60e08201525f61010082015201526004355f52600260205260405f20604051610dd181611dc0565b815460ff811615158252602082019260ff8260081c16845273ffffffffffffffffffffffffffffffffffffffff604084019260101c168252600181015460608401906fffffffffffffffffffffffffffffffff81168252608085019060801c815260028301549060a08601906fffffffffffffffffffffffffffffffff8316825260c087019260801c835273ffffffffffffffffffffffffffffffffffffffff6003860154169360e08801948552600573ffffffffffffffffffffffffffffffffffffffff600488015416966101008a01978852019660405180985f90805490610eba8261243e565b808552916001811690811561104c5750600114611010575b505003610edf9089611e26565b6101208901978852604051998a9960208b5251151560208b01525160ff1660408a01525173ffffffffffffffffffffffffffffffffffffffff166060890152516fffffffffffffffffffffffffffffffff166080880152516fffffffffffffffffffffffffffffffff1660a0870152516fffffffffffffffffffffffffffffffff1660c0860152516fffffffffffffffffffffffffffffffff1660e08501525173ffffffffffffffffffffffffffffffffffffffff166101008401525173ffffffffffffffffffffffffffffffffffffffff166101208301525161014082016101409052805180918161016085015260200161018084015e808201610180015f9052601f017fffffffffffffffffffffffffffffffffffffffffffffffffffffffffffffffe0168101036101800190f35b5f908152602081209092505b81831061103157505081016020018c80610ed2565b80602092948385600194549201015201910190918a9261101c565b9050602093507fffffffffffffffffffffffffffffffffffffffffffffffffffffffffffffff0091501682840152151560051b8201018c80610ed2565b34610284575f7ffffffffffffffffffffffffffffffffffffffffffffffffffffffffffffffffc36011261028457602060405173ffffffffffffffffffffffffffffffffffffffff7f0000000000000000000000000000000000000000000000000000000000000000168152f35b34610284575f7ffffffffffffffffffffffffffffffffffffffffffffffffffffffffffffffffc3601126102845760206040517f00000000000000000000000000000000000000000000000000000000000000008152f35b34610284575f7ffffffffffffffffffffffffffffffffffffffffffffffffffffffffffffffffc36011261028457602060405167ffffffffffffffff7f0000000000000000000000000000000000000000000000000000000000000000168152f35b34610284575f7ffffffffffffffffffffffffffffffffffffffffffffffffffffffffffffffffc36011261028457602060405163ffffffff7f0000000000000000000000000000000000000000000000000000000000000000168152f35b346102845760207ffffffffffffffffffffffffffffffffffffffffffffffffffffffffffffffffc36011261028457606067ffffffffffffffff8061125a611255611bba565b6121be565b9193908160405195168552166020840152166040820152f35b34610284575f7ffffffffffffffffffffffffffffffffffffffffffffffffffffffffffffffffc3601126102845760206040517f00000000000000000000000000000000000000000000000000000000000000008152f35b346102845760207ffffffffffffffffffffffffffffffffffffffffffffffffffffffffffffffffc36011261028457602061027c611307611bba565b6120a0565b346102845760c07ffffffffffffffffffffffffffffffffffffffffffffffffffffffffffffffffc36011261028457611364611346611bba565b61134e611bdd565b9060a43591608435916064359160443591611ee6565b9060405190604082019260408352815180945260206060840192015f945b80861061139757505082935060208301520390f35b909260206060600192604087518051835284810151858401520151604082015201940195019490611382565b346102845760607ffffffffffffffffffffffffffffffffffffffffffffffffffffffffffffffffc3601126102845760043567ffffffffffffffff81116102845780600401906101207ffffffffffffffffffffffffffffffffffffffffffffffffffffffffffffffffc8236030112610284576114783373ffffffffffffffffffffffffffffffffffffffff7f0000000000000000000000000000000000000000000000000000000000000000163314611c71565b61148560e4820183611cbb565b905061194457610104810190604161149d8385611cbb565b90500361051557606481017fe1ea48fc000000000000000000000000000000000000000000000000000000007fffffffff000000000000000000000000000000000000000000000000000000006114fd6114f78488611cbb565b90611d0c565b161461150c6114f78387611cbb565b90156118f6575061151d9084611cbb565b80600493929311610284578201916102007ffffffffffffffffffffffffffffffffffffffffffffffffffffffffffffffffc82850301126102845760048101359061156a602482016124f3565b91611577608483016124f3565b9460c483013567ffffffffffffffff811161028457830190806023830112156102845781602460046115ac940135910161248f565b60e483013560ff811681036102845761166d906115cc61016486016124f3565b906115da61018487016124f3565b986115e86101a488016124f3565b976101c48801359773ffffffffffffffffffffffffffffffffffffffff80806101e48401359c169d169516938761014483013594610124840135946101048501359473ffffffffffffffffffffffffffffffffffffffff60a482013593169173ffffffffffffffffffffffffffffffffffffffff604460648401359301359116612746565b8281036118cb575051956102408701968781116109c557610244018097116109c5576116d490825f52600460205260405f2073ffffffffffffffffffffffffffffffffffffffff88165f526020526116ce838860ff60405f20541615611d72565b88611cbb565b50918235604060208501359401355f1a927f7fffffffffffffffffffffffffffffff5d576e7357a4501ddfe92f46681b20a085116104ed575f6080602092604051908152868482015284604082015287606082015282805260015afa156104e25773ffffffffffffffffffffffffffffffffffffffff5f511680156104ba57870361189f57810361187457507fffffffffffffffffffffffffffffffffffffffffffffffffffffffffffffffe50160ff1b1781036118495750611796826120a0565b8060248301350361181e575060c47f000000000000000000000000000000000000000000000000000000000000000091013560801c11928315611809575b5082156117f7575b5050156117ef5760206001604051908152f35b60205f61027c565b61180192506125fc565b1581806117dc565b6118169193508290612514565b1591836117d4565b7fec6e82cd000000000000000000000000000000000000000000000000000000005f5260045260245ffd5b7f5ac4a43b000000000000000000000000000000000000000000000000000000005f5260045260245ffd5b7f42f4d17e000000000000000000000000000000000000000000000000000000005f5260045260245ffd5b867fa150e3da000000000000000000000000000000000000000000000000000000005f5260045260245ffd5b7fef8711f5000000000000000000000000000000000000000000000000000000005f5260045260245ffd5b7fffffffff00000000000000000000000000000000000000000000000000000000907f839d9ad2000000000000000000000000000000000000000000000000000000005f521660045260245ffd5b7fea42a443000000000000000000000000000000000000000000000000000000005f5260045ffd5b346102845760407ffffffffffffffffffffffffffffffffffffffffffffffffffffffffffffffffc360112610284576119a3611bba565b73ffffffffffffffffffffffffffffffffffffffff6119c0611c24565b9116805f525f60205260405f206fffffffffffffffffffffffffffffffff8082541693168093016fffffffffffffffffffffffffffffffff81116109c5576fffffffffffffffffffffffffffffffff167fffffffffffffffffffffffffffffffff00000000000000000000000000000000825416179055611a846040517f23b872dd00000000000000000000000000000000000000000000000000000000602082015233602482015230604482015283606482015260648152610963608482611e26565b7fe1fffcc4923d04b559f4d29a8bfc6cda04eb5b0d3c460751c2402c5c5cc9109c5f80a3005b346102845760807ffffffffffffffffffffffffffffffffffffffffffffffffffffffffffffffffc36011261028457611ae1611bba565b73ffffffffffffffffffffffffffffffffffffffff611afe611bdd565b91165f52600360205273ffffffffffffffffffffffffffffffffffffffff60405f2091165f5260205260405f206044355f5260205260405f206064355f52602052602060405f2054604051908152f35b34610284575f7ffffffffffffffffffffffffffffffffffffffffffffffffffffffffffffffffc3601126102845760209073ffffffffffffffffffffffffffffffffffffffff7f0000000000000000000000000000000000000000000000000000000000000000168152f35b6004359073ffffffffffffffffffffffffffffffffffffffff8216820361028457565b6024359073ffffffffffffffffffffffffffffffffffffffff8216820361028457565b610164359073ffffffffffffffffffffffffffffffffffffffff8216820361028457565b602435906fffffffffffffffffffffffffffffffff8216820361028457565b9181601f840112156102845782359167ffffffffffffffff8311610284576020838186019501011161028457565b15611c795750565b73ffffffffffffffffffffffffffffffffffffffff907f1d6ddbf4000000000000000000000000000000000000000000000000000000005f521660045260245ffd5b9035907fffffffffffffffffffffffffffffffffffffffffffffffffffffffffffffffe181360301821215610284570180359067ffffffffffffffff82116102845760200191813603831361028457565b919091357fffffffff0000000000000000000000000000000000000000000000000000000081169260048110611d40575050565b7fffffffff00000000000000000000000000000000000000000000000000000000929350829060040360031b1b161690565b15611d7b575050565b73ffffffffffffffffffffffffffffffffffffffff907f41e3e888000000000000000000000000000000000000000000000000000000005f521660045260245260445ffd5b610140810190811067ffffffffffffffff821117611ddd57604052565b7f4e487b71000000000000000000000000000000000000000000000000000000005f52604160045260245ffd5b6060810190811067ffffffffffffffff821117611ddd57604052565b90601f7fffffffffffffffffffffffffffffffffffffffffffffffffffffffffffffffe0910116810190811067ffffffffffffffff821117611ddd57604052565b67ffffffffffffffff8111611ddd5760051b60200190565b919082018092116109c557565b8054821015611ea5575f52600360205f20910201905f90565b7f4e487b71000000000000000000000000000000000000000000000000000000005f52603260045260245ffd5b8051821015611ea55760209160051b010190565b73ffffffffffffffffffffffffffffffffffffffff90969496165f52600360205273ffffffffffffffffffffffffffffffffffffffff60405f2091165f5260205260405f20905f5260205260405f20905f5260205260405f208054928385101561205057611f549085611e7f565b90838211612048575b8482039182116109c557611f7082611e67565b90611f7e6040519283611e26565b8282527fffffffffffffffffffffffffffffffffffffffffffffffffffffffffffffffe0611fab84611e67565b015f5b81811061201f57505081955f5b848110611fc9575050505050565b80611fdf611fd960019385611e7f565b85611e8c565b50600260405191611fef83611e0a565b805483528481015460208401520154604082015261200d8287611ed2565b526120188186611ed2565b5001611fbb565b60209060405161202e81611e0a565b5f81525f838201525f604082015282828701015201611fae565b839150611f5d565b509192509050604051612064602082611e26565b5f81525f805b8181106120775750509190565b60209060405161208681611e0a565b5f81525f838201525f60408201528282860101520161206a565b73ffffffffffffffffffffffffffffffffffffffff604051917f35567e1a00000000000000000000000000000000000000000000000000000000835230600484015216602482015260208160448173ffffffffffffffffffffffffffffffffffffffff7f0000000000000000000000000000000000000000000000000000000000000000165afa9081156104e2575f91612138575090565b90506020813d60201161215f575b8161215360209383611e26565b81010312610284575190565b3d9150612146565b9067ffffffffffffffff8091169116039067ffffffffffffffff82116109c557565b9067ffffffffffffffff8091169116019067ffffffffffffffff82116109c557565b818102929181159184041417156109c557565b73ffffffffffffffffffffffffffffffffffffffff165f525f60205260405f20604051906121eb82611e0a565b546fffffffffffffffffffffffffffffffff81168252602082019067ffffffffffffffff8160801c16825260c01c90816040840152814281115f146123b657506fffffffffffffffffffffffffffffffff67ffffffffffffffff61227c925116935b511663ffffffff7f000000000000000000000000000000000000000000000000000000000000000016906121ab565b60ff7f000000000000000000000000000000000000000000000000000000000000000016604d81116109c557600a0a908115612389570467ffffffffffffffff811161232b5767ffffffffffffffff1663ffffffff7f000000000000000000000000000000000000000000000000000000000000000016808211612323575b508267ffffffffffffffff8281169082161161231d5761231a91612167565b92565b50505f92565b90505f6122fb565b60646040517f08c379a000000000000000000000000000000000000000000000000000000000815260206004820152601960248201527f4d6178207369676e65722071756f746120746f6f2068696768000000000000006044820152fd5b7f4e487b71000000000000000000000000000000000000000000000000000000005f52601260045260245ffd5b929150505f916123d167ffffffffffffffff42169182612167565b907f000000000000000000000000000000000000000000000000000000000000000067ffffffffffffffff8116908115612389576124336fffffffffffffffffffffffffffffffff936124389367ffffffffffffffff61227c97160690612167565b612189565b9261224d565b90600182811c92168015612485575b602083101461245857565b7f4e487b71000000000000000000000000000000000000000000000000000000005f52602260045260245ffd5b91607f169161244d565b92919267ffffffffffffffff8211611ddd57604051916124d760207fffffffffffffffffffffffffffffffffffffffffffffffffffffffffffffffe0601f8401160184611e26565b829481845281830111610284578281602093845f960137010152565b359073ffffffffffffffffffffffffffffffffffffffff8216820361028457565b6125686125417f0000000000000000000000000000000000000000000000000000000000000000846121ab565b7f000000000000000000000000000000000000000000000000000000000000000090611e7f565b60a0820135116125f65760800135906125a17f0000000000000000000000000000000000000000000000000000000000000000826121ab565b8260801c116125f6576125e66fffffffffffffffffffffffffffffffff917f0000000000000000000000000000000000000000000000000000000000000000906121ab565b9116116125f257600190565b5f90565b50505f90565b61ffff7f000000000000000000000000000000000000000000000000000000000000000016801561273e576126479267ffffffffffffffff61263d846121be565b96919390946121ab565b911681116127365773ffffffffffffffffffffffffffffffffffffffff9167ffffffffffffffff612679921690612189565b91165f525f60205260405f20918254908160c01c67ffffffffffffffff8216036126eb575b50507fffffffffffffffff0000000000000000ffffffffffffffffffffffffffffffff77ffffffffffffffff0000000000000000000000000000000083549260801b169116179055600190565b7fffffffffffffffff00000000000000000000000000000000000000000000000077ffffffffffffffffffffffffffffffffffffffffffffffff9160c01b1691161782555f8061269e565b505050505f90565b505050600190565b9a9692999591979398949a6040519060208201927f47e79534a245952e8b16893a336b85a3d9ea9fa8c573f3d803afb92a794692188452604083015273ffffffffffffffffffffffffffffffffffffffff166060820152606081526127ac608082611e26565b51902099805190602001206040519860208a019a7fbb8310d486368db6bd6f849402fdd73ad53d316b5a4b2644ad6efe0f941286d88c5273ffffffffffffffffffffffffffffffffffffffff1660408b015260608a0152608089015260ff1660a088015260c087015260e086015261010085015273ffffffffffffffffffffffffffffffffffffffff1661012084015273ffffffffffffffffffffffffffffffffffffffff16610140830152610160820152610160815261286f61018082611e26565b5190206040517f19010000000000000000000000000000000000000000000000000000000000006020820190815260228201939093526042808201929092529081526128bc606282611e26565b51902090565b9a959893909994919c97929b966080528a5f52600260205260405f209687549060ff8216156128fd575b505050505050505050505050505050565b73ffffffffffffffffffffffffffffffffffffffff9160017fffffffffffffffffffff0000000000000000000000000000000000000000000061ff008860081b1692161775ffffffffffffffffffffffffffffffffffffffff00008560101b161717895583612dbf575b85612d69575b86612d1d575b87612cc7575b169687612c96575b73ffffffffffffffffffffffffffffffffffffffff8916612c4f575b608051612aab575b506040519b8c5273ffffffffffffffffffffffffffffffffffffffff1660208c015260408b015260ff1660608a0152608089015260a088015260c087015260e086015273ffffffffffffffffffffffffffffffffffffffff1661010085015261012084016101409052608051610140850152608051906101608501376080518301610160015f905273ffffffffffffffffffffffffffffffffffffffff169180608051601f017fffffffffffffffffffffffffffffffffffffffffffffffffffffffffffffffe016810103610160017f3fcaf82260999b0a1a77f3006e142f8a15153ca131932b8b3b42ba67f44e02a391a45f80808080808080808080808080806128ec565b67ffffffffffffffff60805111611ddd57612ac9600582015461243e565b601f8111612c03575b505f601f60805111600114612b36576005905f90608051612b2b575b5060805160011b907fffffffffffffffffffffffffffffffffffffffffffffffffffffffffffffffff60805160031b1c1916179101555b5f6129a5565b90508b01355f612aee565b600582015f5260205f20905f5b8c7fffffffffffffffffffffffffffffffffffffffffffffffffffffffffffffffe0608051168210612beb5750506080517fffffffffffffffffffffffffffffffffffffffffffffffffffffffffffffffe0811610612bb1575b505060056001608051811b01910155612b25565b7fffffffffffffffffffffffffffffffffffffffffffffffffffffffffffffffff60f860805160031b161c19908c01351690555f80612b9d565b60018394602093948493013581550193019101612b43565b600582015f5260205f20601f6080510160051c810191602060805110612c45575b601f0160051c01905b818110612c3a5750612ad2565b5f8155600101612c2d565b9091508190612c24565b6004810173ffffffffffffffffffffffffffffffffffffffff8a167fffffffffffffffffffffffff000000000000000000000000000000000000000082541617905561299d565b60038101887fffffffffffffffffffffffff0000000000000000000000000000000000000000825416179055612981565b612d18612cd389613006565b60028b01906fffffffffffffffffffffffffffffffff7fffffffffffffffffffffffffffffffff0000000000000000000000000000000083549260801b169116179055565b612979565b612d2687613006565b6fffffffffffffffffffffffffffffffff60028b0191167fffffffffffffffffffffffffffffffff00000000000000000000000000000000825416179055612973565b612dba612d7587613006565b60018b01906fffffffffffffffffffffffffffffffff7fffffffffffffffffffffffffffffffff0000000000000000000000000000000083549260801b169116179055565b61296d565b612dc884613006565b6fffffffffffffffffffffffffffffffff60018b0191167fffffffffffffffffffffffffffffffff00000000000000000000000000000000825416179055612967565b73ffffffffffffffffffffffffffffffffffffffff909796939795929495865f52600460205260405f208282165f5260205260405f2060017fffffffffffffffffffffffffffffffffffffffffffffffffffffffffffffff008254161790551692835f52600360205260405f2073ffffffffffffffffffffffffffffffffffffffff83165f5260205260405f20855f5260205260405f20885f5260205260405f209182549860405194612ebd86611e0a565b8552602085019283526040850193888552680100000000000000008b1015611ddd578a612eef91600182018155611e8c565b612f5357600260609573ffffffffffffffffffffffffffffffffffffffff957f8ca934463363b9653ec99615768595e2f35a0b21bab215117cf38b4038882c41985184555160018401555191015560405196875260208701528860408701521693a4565b7f4e487b71000000000000000000000000000000000000000000000000000000005f525f60045260245ffd5b905f602091828151910182855af1156104e2575f513d612ffd575073ffffffffffffffffffffffffffffffffffffffff81163b155b612fbb5750565b73ffffffffffffffffffffffffffffffffffffffff907f5274afe7000000000000000000000000000000000000000000000000000000005f521660045260245ffd5b60011415612fb4565b6fffffffffffffffffffffffffffffffff8111613032576fffffffffffffffffffffffffffffffff1690565b7f5e978e24000000000000000000000000000000000000000000000000000000005f5260045ffdfea2646970667358221220ecdac52acb96f66b88a3712051d38356d5748124bbfa5dac8d3b4312a350021164736f6c634300081d0033",
  "devdoc": {
    "details": "The {SignatureStored} event is the only hook required by indexers; however, the contract is      fully functional without any offchain infrastructure.",
    "errors": {
      "SafeERC20FailedOperation(address)": [
        {
          "details": "An operation with an ERC-20 token failed."
        }
      ],
      "SignerAlreadySignedTransaction(address,bytes32)": [
        {
          "params": {
            "safeTxHash": "The EIP-712 hash of the Safe transaction.",
            "signer": "Signer address."
          }
        }
      ]
    },
    "events": {
      "NewTransaction(bytes32,address,uint256,uint256,address,uint256,uint8,uint256,uint256,uint256,address,address,bytes)": {
        "params": {
          "baseGas": "Fixed overhead reimbursed to the submitting signer.",
          "chainId": "Intended execution chain.",
          "data": "Calldata executed by the Safe.",
          "gasPrice": "Gas price used for reimbursement.",
          "gasToken": "ERC-20 token address for refunds.",
          "nonce": "Safe nonce.",
          "operation": "0 = CALL, 1 = DELEGATECALL.",
          "refundReceiver": "Address receiving the gas refund.",
          "safe": "Safe Smart-Account the transaction targets.",
          "safeTxGas": "Gas forwarded to the inner call.",
          "safeTxHash": "EIP-712 hash identifying the SafeTx.",
          "to": "Destination of the inner call/delegatecall.",
          "value": "ETH value forwarded by the Safe."
        }
      },
      "SignatureStored(address,address,bytes32,uint256,uint256,uint256)": {
        "params": {
          "chainId": "Intended execution chain.",
          "listIndex": "Position of the signature in the signerspecific array.",
          "nonce": "Safe nonce.",
          "safe": "Safe SmartAccount the transaction targets.",
          "safeTxHash": "EIP712 hash identifying the SafeTx.",
          "signer": "Address recovered from the provided signature."
        }
      }
    },
    "kind": "dev",
    "methods": {
      "enqueueTransaction(address,uint256,uint256,address,uint256,bytes,uint8,uint256,uint256,uint256,address,address,bytes)": {
        "custom:events": "Emits {SignatureStored}.",
        "details": "If `safeTxHash` has been seen before, its parameters are *not* validated nor overwritten       the call simply appends the `(r,s)` pair for `signer`.",
        "params": {
          "baseGas": "Fixed overhead reimbursed to the submitting signer.",
          "chainId": "Chain id the transaction is meant for.",
          "data": "Calldata executed by the Safe.",
          "gasPrice": "Gas price used for reimbursement.",
          "gasToken": "ERC20 token address for refunds (`address(0)` = ETH).",
          "nonce": "Safe nonce.",
          "operation": "0 = CALL, 1 = DELEGATECALL.",
          "refundReceiver": "Address receiving the gas refund.",
          "safeAddress": "Target Safe SmartAccount.",
          "safeTxGas": "Gas forwarded to the inner call.",
          "signature": "**Single** 65byte ECDSA signature.",
          "to": "Destination of the inner call/delegatecall.",
          "value": "ETH value forwarded by the Safe."
        },
        "returns": {
          "listIndex": "    Index of the stored signature in the signerspecific list."
        }
      },
      "retrieveSignatures(address,address,uint256,uint256,uint256,uint256)": {
        "params": {
          "chainId": "Target chain id.",
          "count": "Maximum number of entries to return.",
          "nonce": "Safe nonce.",
          "safeAddress": "Safe SmartAccount.",
          "signerAddress": "Address that created the signatures.",
          "start": "Zerobased start index of the slice."
        },
        "returns": {
          "page": "      Array slice `[start  start+count)` (may be shorter).",
          "totalCount": "Total number of signatures stored for the tuple."
        }
      },
      "retrieveSignaturesCount(address,address,uint256,uint256)": {
        "params": {
          "chainId": "Target chain id.",
          "nonce": "Safe nonce.",
          "safeAddress": "Safe SmartAccount.",
          "signerAddress": "Signer address."
        },
        "returns": {
          "count": "Length of the signature list."
        }
      },
      "retrieveTransaction(bytes32)": {
        "params": {
          "safeTxHash": "EIP712 digest of the transaction."
        },
        "returns": {
          "txParams": "Struct with all SafeTx parameters (zeroinitialised if unknown)."
        }
      }
    },
    "stateVariables": {
      "_hasSignerSignedTx": {
        "details": "Tracks if a signer has already submitted *any* signature for a specific safeTxHash,      preventing duplicate signatures for the *exact same* transaction digest.      This complements `_sigData` by ensuring uniqueness per (safeTxHash, signer) pair. Mapping `safeTxHash  signer  bool`"
      }
    },
    "title": "SafeInternationalHarbour",
    "version": 1
  },
  "userdoc": {
    "errors": {
      "InvalidECDSASignatureLength()": [
        {
          "notice": "Thrown when a signature blob is not exactly 65 bytes."
        }
      ],
      "InvalidSignature()": [
        {
          "notice": "Thrown if `ecrecover` yields `address(0)`."
        }
      ],
      "InvalidSignatureSValue()": [
        {
          "notice": "Thrown if the S value of the signature is not from the lower half of the curve."
        }
      ],
      "SignerAlreadySignedTransaction(address,bytes32)": [
        {
          "notice": "Thrown when attempting to store a signature for a transaction (safeTxHash) that the signer has already provided a signature for."
        }
      ],
      "ValueDoesNotFitInUint128()": [
        {
          "notice": "Thrown when a value doesn't fit in a uint128."
        }
      ]
    },
    "events": {
      "NewTransaction(bytes32,address,uint256,uint256,address,uint256,uint8,uint256,uint256,uint256,address,address,bytes)": {
        "notice": "Emitted when a transaction is first stored."
      },
      "SignatureStored(address,address,bytes32,uint256,uint256,uint256)": {
        "notice": "Emitted whenever a new signature is stored (and possibly the parameters on first sight)."
      }
    },
    "kind": "user",
    "methods": {
      "SUPPORTED_ENTRYPOINT()": {
        "notice": "The address of the EntryPoint contract supported by this module."
      },
      "enqueueTransaction(address,uint256,uint256,address,uint256,bytes,uint8,uint256,uint256,uint256,address,address,bytes)": {
        "notice": "Publish a Safe transaction and/or append a signature to it."
      },
      "getNonce(address)": {
        "notice": "Return the account nonce. This method returns the next sequential nonce. For a nonce of a specific key, use `entrypoint.getNonce(account, key)`"
      },
      "retrieveSignatures(address,address,uint256,uint256,uint256,uint256)": {
        "notice": "Paginated getter for signature entries."
      },
      "retrieveSignaturesCount(address,address,uint256,uint256)": {
        "notice": "Convenience getter returning the **number** of signatures stored for the key tuple."
      },
      "retrieveTransaction(bytes32)": {
        "notice": "Retrieve the full parameter set of a Safe transaction."
      }
    },
    "notice": "Permissionless, appendonly registry that lets **any EOA signer** publish Safe         transactions (\"SafeTx\") and their signatures. Clients without an offchain indexer can reconstruct the full multisig payload with only:         1. the Safe address;         2. the target `chainId`;         3. the Safe `nonce`; and         4. the current Safe owners set. Each unique `safeTxHash` (EIP712 digest of the SafeTx struct) is persisted **once** together with its parameters. Signatures are appended under the composite key `(signer, safe, chainId, nonce)`, enabling onchain, gasefficient lookups. ###  Contractbased signers unsupported Only ECDSA signatures from externallyowned accounts (EOAs) are supported. Contract wallets that rely on ERC1271 or similar cannot be verified onchain in a chainagnostic way and are therefore **not supported**.",
    "version": 1
  },
  "storageLayout": {
    "storage": [
      {
        "astId": 3888,
        "contract": "src/SafeInternationalHarbour.sol:SafeInternationalHarbour",
        "label": "quotaStatsForSigner",
        "offset": 0,
        "slot": "0",
        "type": "t_mapping(t_address,t_struct(QuotaStats)3852_storage)"
      },
      {
        "astId": 3894,
        "contract": "src/SafeInternationalHarbour.sol:SafeInternationalHarbour",
        "label": "withdrawsForSigner",
        "offset": 0,
        "slot": "1",
        "type": "t_mapping(t_address,t_mapping(t_bytes32,t_uint256))"
      },
      {
        "astId": 2318,
        "contract": "src/SafeInternationalHarbour.sol:SafeInternationalHarbour",
        "label": "_txDetails",
        "offset": 0,
        "slot": "2",
        "type": "t_mapping(t_bytes32,t_struct(SafeTransaction)3085_storage)"
      },
      {
        "astId": 2331,
        "contract": "src/SafeInternationalHarbour.sol:SafeInternationalHarbour",
        "label": "_sigData",
        "offset": 0,
        "slot": "3",
        "type": "t_mapping(t_address,t_mapping(t_address,t_mapping(t_uint256,t_mapping(t_uint256,t_array(t_struct(SignatureDataWithTxHashIndex)3093_storage)dyn_storage))))"
      },
      {
        "astId": 2338,
        "contract": "src/SafeInternationalHarbour.sol:SafeInternationalHarbour",
        "label": "_hasSignerSignedTx",
        "offset": 0,
        "slot": "4",
        "type": "t_mapping(t_bytes32,t_mapping(t_address,t_bool))"
      }
    ],
    "types": {
      "t_address": {
        "encoding": "inplace",
        "label": "address",
        "numberOfBytes": "20"
      },
      "t_array(t_struct(SignatureDataWithTxHashIndex)3093_storage)dyn_storage": {
        "base": "t_struct(SignatureDataWithTxHashIndex)3093_storage",
        "encoding": "dynamic_array",
        "label": "struct SignatureDataWithTxHashIndex[]",
        "numberOfBytes": "32"
      },
      "t_bool": {
        "encoding": "inplace",
        "label": "bool",
        "numberOfBytes": "1"
      },
      "t_bytes32": {
        "encoding": "inplace",
        "label": "bytes32",
        "numberOfBytes": "32"
      },
      "t_bytes_storage": {
        "encoding": "bytes",
        "label": "bytes",
        "numberOfBytes": "32"
      },
      "t_mapping(t_address,t_bool)": {
        "encoding": "mapping",
        "key": "t_address",
        "label": "mapping(address => bool)",
        "numberOfBytes": "32",
        "value": "t_bool"
      },
      "t_mapping(t_address,t_mapping(t_address,t_mapping(t_uint256,t_mapping(t_uint256,t_array(t_struct(SignatureDataWithTxHashIndex)3093_storage)dyn_storage))))": {
        "encoding": "mapping",
        "key": "t_address",
        "label": "mapping(address => mapping(address => mapping(uint256 => mapping(uint256 => struct SignatureDataWithTxHashIndex[]))))",
        "numberOfBytes": "32",
        "value": "t_mapping(t_address,t_mapping(t_uint256,t_mapping(t_uint256,t_array(t_struct(SignatureDataWithTxHashIndex)3093_storage)dyn_storage)))"
      },
      "t_mapping(t_address,t_mapping(t_bytes32,t_uint256))": {
        "encoding": "mapping",
        "key": "t_address",
        "label": "mapping(address => mapping(bytes32 => uint256))",
        "numberOfBytes": "32",
        "value": "t_mapping(t_bytes32,t_uint256)"
      },
      "t_mapping(t_address,t_mapping(t_uint256,t_mapping(t_uint256,t_array(t_struct(SignatureDataWithTxHashIndex)3093_storage)dyn_storage)))": {
        "encoding": "mapping",
        "key": "t_address",
        "label": "mapping(address => mapping(uint256 => mapping(uint256 => struct SignatureDataWithTxHashIndex[])))",
        "numberOfBytes": "32",
        "value": "t_mapping(t_uint256,t_mapping(t_uint256,t_array(t_struct(SignatureDataWithTxHashIndex)3093_storage)dyn_storage))"
      },
      "t_mapping(t_address,t_struct(QuotaStats)3852_storage)": {
        "encoding": "mapping",
        "key": "t_address",
        "label": "mapping(address => struct QuotaStats)",
        "numberOfBytes": "32",
        "value": "t_struct(QuotaStats)3852_storage"
      },
      "t_mapping(t_bytes32,t_mapping(t_address,t_bool))": {
        "encoding": "mapping",
        "key": "t_bytes32",
        "label": "mapping(bytes32 => mapping(address => bool))",
        "numberOfBytes": "32",
        "value": "t_mapping(t_address,t_bool)"
      },
      "t_mapping(t_bytes32,t_struct(SafeTransaction)3085_storage)": {
        "encoding": "mapping",
        "key": "t_bytes32",
        "label": "mapping(bytes32 => struct SafeTransaction)",
        "numberOfBytes": "32",
        "value": "t_struct(SafeTransaction)3085_storage"
      },
      "t_mapping(t_bytes32,t_uint256)": {
        "encoding": "mapping",
        "key": "t_bytes32",
        "label": "mapping(bytes32 => uint256)",
        "numberOfBytes": "32",
        "value": "t_uint256"
      },
      "t_mapping(t_uint256,t_array(t_struct(SignatureDataWithTxHashIndex)3093_storage)dyn_storage)": {
        "encoding": "mapping",
        "key": "t_uint256",
        "label": "mapping(uint256 => struct SignatureDataWithTxHashIndex[])",
        "numberOfBytes": "32",
        "value": "t_array(t_struct(SignatureDataWithTxHashIndex)3093_storage)dyn_storage"
      },
      "t_mapping(t_uint256,t_mapping(t_uint256,t_array(t_struct(SignatureDataWithTxHashIndex)3093_storage)dyn_storage))": {
        "encoding": "mapping",
        "key": "t_uint256",
        "label": "mapping(uint256 => mapping(uint256 => struct SignatureDataWithTxHashIndex[]))",
        "numberOfBytes": "32",
        "value": "t_mapping(t_uint256,t_array(t_struct(SignatureDataWithTxHashIndex)3093_storage)dyn_storage)"
      },
      "t_struct(QuotaStats)3852_storage": {
        "encoding": "inplace",
        "label": "struct QuotaStats",
        "members": [
          {
            "astId": 3847,
            "contract": "src/SafeInternationalHarbour.sol:SafeInternationalHarbour",
            "label": "tokenBalance",
            "offset": 0,
            "slot": "0",
            "type": "t_uint128"
          },
          {
            "astId": 3849,
            "contract": "src/SafeInternationalHarbour.sol:SafeInternationalHarbour",
            "label": "usedQuota",
            "offset": 16,
            "slot": "0",
            "type": "t_uint64"
          },
          {
            "astId": 3851,
            "contract": "src/SafeInternationalHarbour.sol:SafeInternationalHarbour",
            "label": "nextQuotaReset",
            "offset": 24,
            "slot": "0",
            "type": "t_uint64"
          }
        ],
        "numberOfBytes": "32"
      },
      "t_struct(SafeTransaction)3085_storage": {
        "encoding": "inplace",
        "label": "struct SafeTransaction",
        "members": [
          {
            "astId": 3066,
            "contract": "src/SafeInternationalHarbour.sol:SafeInternationalHarbour",
            "label": "stored",
            "offset": 0,
            "slot": "0",
            "type": "t_bool"
          },
          {
            "astId": 3068,
            "contract": "src/SafeInternationalHarbour.sol:SafeInternationalHarbour",
            "label": "operation",
            "offset": 1,
            "slot": "0",
            "type": "t_uint8"
          },
          {
            "astId": 3070,
            "contract": "src/SafeInternationalHarbour.sol:SafeInternationalHarbour",
            "label": "to",
            "offset": 2,
            "slot": "0",
            "type": "t_address"
          },
          {
            "astId": 3072,
            "contract": "src/SafeInternationalHarbour.sol:SafeInternationalHarbour",
            "label": "value",
            "offset": 0,
            "slot": "1",
            "type": "t_uint128"
          },
          {
            "astId": 3074,
            "contract": "src/SafeInternationalHarbour.sol:SafeInternationalHarbour",
            "label": "safeTxGas",
            "offset": 16,
            "slot": "1",
            "type": "t_uint128"
          },
          {
            "astId": 3076,
            "contract": "src/SafeInternationalHarbour.sol:SafeInternationalHarbour",
            "label": "baseGas",
            "offset": 0,
            "slot": "2",
            "type": "t_uint128"
          },
          {
            "astId": 3078,
            "contract": "src/SafeInternationalHarbour.sol:SafeInternationalHarbour",
            "label": "gasPrice",
            "offset": 16,
            "slot": "2",
            "type": "t_uint128"
          },
          {
            "astId": 3080,
            "contract": "src/SafeInternationalHarbour.sol:SafeInternationalHarbour",
            "label": "gasToken",
            "offset": 0,
            "slot": "3",
            "type": "t_address"
          },
          {
            "astId": 3082,
            "contract": "src/SafeInternationalHarbour.sol:SafeInternationalHarbour",
            "label": "refundReceiver",
            "offset": 0,
            "slot": "4",
            "type": "t_address"
          },
          {
            "astId": 3084,
            "contract": "src/SafeInternationalHarbour.sol:SafeInternationalHarbour",
            "label": "data",
            "offset": 0,
            "slot": "5",
            "type": "t_bytes_storage"
          }
        ],
        "numberOfBytes": "192"
      },
      "t_struct(SignatureDataWithTxHashIndex)3093_storage": {
        "encoding": "inplace",
        "label": "struct SignatureDataWithTxHashIndex",
        "members": [
          {
            "astId": 3088,
            "contract": "src/SafeInternationalHarbour.sol:SafeInternationalHarbour",
            "label": "r",
            "offset": 0,
            "slot": "0",
            "type": "t_bytes32"
          },
          {
            "astId": 3090,
            "contract": "src/SafeInternationalHarbour.sol:SafeInternationalHarbour",
            "label": "vs",
            "offset": 0,
            "slot": "1",
            "type": "t_bytes32"
          },
          {
            "astId": 3092,
            "contract": "src/SafeInternationalHarbour.sol:SafeInternationalHarbour",
            "label": "txHash",
            "offset": 0,
            "slot": "2",
            "type": "t_bytes32"
          }
        ],
        "numberOfBytes": "96"
      },
      "t_uint128": {
        "encoding": "inplace",
        "label": "uint128",
        "numberOfBytes": "16"
      },
      "t_uint256": {
        "encoding": "inplace",
        "label": "uint256",
        "numberOfBytes": "32"
      },
      "t_uint64": {
        "encoding": "inplace",
        "label": "uint64",
        "numberOfBytes": "8"
      },
      "t_uint8": {
        "encoding": "inplace",
        "label": "uint8",
        "numberOfBytes": "1"
      }
    }
  }
}