{
  "address": "0xd5Acb337a3B205Bfa4f0b5441D7BA3872d5B921a",
  "abi": [
    {
      "inputs": [
        {
          "internalType": "address",
          "name": "_entryPoint",
          "type": "address"
        }
      ],
      "stateMutability": "nonpayable",
      "type": "constructor"
    },
    {
      "inputs": [],
      "name": "InvalidECDSASignatureLength",
      "type": "error"
    },
    {
      "inputs": [
        {
          "internalType": "address",
          "name": "entryPoint",
          "type": "address"
        }
      ],
      "name": "InvalidEntryPoint",
      "type": "error"
    },
    {
      "inputs": [],
      "name": "InvalidSignature",
      "type": "error"
    },
    {
      "inputs": [],
      "name": "InvalidSignatureSValue",
      "type": "error"
    },
    {
      "inputs": [
        {
          "internalType": "bytes4",
          "name": "targetSelector",
          "type": "bytes4"
        }
      ],
      "name": "InvalidTarget",
      "type": "error"
    },
    {
      "inputs": [],
      "name": "InvalidUserOpPaymasterAndData",
      "type": "error"
    },
    {
      "inputs": [
        {
          "internalType": "address",
          "name": "signer",
          "type": "address"
        },
        {
          "internalType": "bytes32",
          "name": "safeTxHash",
          "type": "bytes32"
        }
      ],
      "name": "SignerAlreadySignedTransaction",
      "type": "error"
    },
    {
      "inputs": [
        {
          "internalType": "uint256",
          "name": "expectedNonce",
          "type": "uint256"
        }
      ],
      "name": "UnexpectedNonce",
      "type": "error"
    },
    {
      "inputs": [
        {
          "internalType": "bytes32",
          "name": "expectedSafeTxHash",
          "type": "bytes32"
        }
      ],
      "name": "UnexpectedSafeTxHash",
      "type": "error"
    },
    {
      "inputs": [
        {
          "internalType": "bytes32",
          "name": "extractedR",
          "type": "bytes32"
        }
      ],
      "name": "UnexpectedSignatureR",
      "type": "error"
    },
    {
      "inputs": [
        {
          "internalType": "bytes32",
          "name": "extractedVS",
          "type": "bytes32"
        }
      ],
      "name": "UnexpectedSignatureVS",
      "type": "error"
    },
    {
      "inputs": [
        {
          "internalType": "address",
          "name": "recoveredSigner",
          "type": "address"
        }
      ],
      "name": "UnexpectedSigner",
      "type": "error"
    },
    {
      "inputs": [],
      "name": "ValueDoesNotFitInUint128",
      "type": "error"
    },
    {
      "anonymous": false,
      "inputs": [
        {
          "indexed": true,
          "internalType": "bytes32",
          "name": "safeTxHash",
          "type": "bytes32"
        },
        {
          "indexed": true,
          "internalType": "address",
          "name": "safe",
          "type": "address"
        },
        {
          "indexed": true,
          "internalType": "uint256",
          "name": "chainId",
          "type": "uint256"
        },
        {
          "indexed": false,
          "internalType": "uint256",
          "name": "nonce",
          "type": "uint256"
        },
        {
          "indexed": false,
          "internalType": "address",
          "name": "to",
          "type": "address"
        },
        {
          "indexed": false,
          "internalType": "uint256",
          "name": "value",
          "type": "uint256"
        },
        {
          "indexed": false,
          "internalType": "uint8",
          "name": "operation",
          "type": "uint8"
        },
        {
          "indexed": false,
          "internalType": "uint256",
          "name": "safeTxGas",
          "type": "uint256"
        },
        {
          "indexed": false,
          "internalType": "uint256",
          "name": "baseGas",
          "type": "uint256"
        },
        {
          "indexed": false,
          "internalType": "uint256",
          "name": "gasPrice",
          "type": "uint256"
        },
        {
          "indexed": false,
          "internalType": "address",
          "name": "gasToken",
          "type": "address"
        },
        {
          "indexed": false,
          "internalType": "address",
          "name": "refundReceiver",
          "type": "address"
        },
        {
          "indexed": false,
          "internalType": "bytes",
          "name": "data",
          "type": "bytes"
        }
      ],
      "name": "NewTransaction",
      "type": "event"
    },
    {
      "anonymous": false,
      "inputs": [
        {
          "indexed": true,
          "internalType": "address",
          "name": "signer",
          "type": "address"
        },
        {
          "indexed": true,
          "internalType": "address",
          "name": "safe",
          "type": "address"
        },
        {
          "indexed": true,
          "internalType": "bytes32",
          "name": "safeTxHash",
          "type": "bytes32"
        },
        {
          "indexed": false,
          "internalType": "uint256",
          "name": "chainId",
          "type": "uint256"
        },
        {
          "indexed": false,
          "internalType": "uint256",
          "name": "nonce",
          "type": "uint256"
        },
        {
          "indexed": false,
          "internalType": "uint256",
          "name": "listIndex",
          "type": "uint256"
        }
      ],
      "name": "SignatureStored",
      "type": "event"
    },
    {
      "inputs": [],
      "name": "SUPPORTED_ENTRYPOINT",
      "outputs": [
        {
          "internalType": "address",
          "name": "",
          "type": "address"
        }
      ],
      "stateMutability": "view",
      "type": "function"
    },
    {
      "inputs": [
        {
          "internalType": "address",
          "name": "safeAddress",
          "type": "address"
        },
        {
          "internalType": "uint256",
          "name": "chainId",
          "type": "uint256"
        },
        {
          "internalType": "uint256",
          "name": "nonce",
          "type": "uint256"
        },
        {
          "internalType": "address",
          "name": "to",
          "type": "address"
        },
        {
          "internalType": "uint256",
          "name": "value",
          "type": "uint256"
        },
        {
          "internalType": "bytes",
          "name": "data",
          "type": "bytes"
        },
        {
          "internalType": "uint8",
          "name": "operation",
          "type": "uint8"
        },
        {
          "internalType": "uint256",
          "name": "safeTxGas",
          "type": "uint256"
        },
        {
          "internalType": "uint256",
          "name": "baseGas",
          "type": "uint256"
        },
        {
          "internalType": "uint256",
          "name": "gasPrice",
          "type": "uint256"
        },
        {
          "internalType": "address",
          "name": "gasToken",
          "type": "address"
        },
        {
          "internalType": "address",
          "name": "refundReceiver",
          "type": "address"
        },
        {
          "internalType": "bytes",
          "name": "signature",
          "type": "bytes"
        }
      ],
      "name": "enqueueTransaction",
      "outputs": [
        {
          "internalType": "uint256",
          "name": "listIndex",
          "type": "uint256"
        }
      ],
      "stateMutability": "nonpayable",
      "type": "function"
    },
    {
      "inputs": [
        {
          "internalType": "address",
          "name": "signer",
          "type": "address"
        }
      ],
      "name": "getNonce",
      "outputs": [
        {
          "internalType": "uint256",
          "name": "",
          "type": "uint256"
        }
      ],
      "stateMutability": "view",
      "type": "function"
    },
    {
      "inputs": [
        {
          "internalType": "address",
          "name": "signerAddress",
          "type": "address"
        },
        {
          "internalType": "address",
          "name": "safeAddress",
          "type": "address"
        },
        {
          "internalType": "uint256",
          "name": "chainId",
          "type": "uint256"
        },
        {
          "internalType": "uint256",
          "name": "nonce",
          "type": "uint256"
        },
        {
          "internalType": "uint256",
          "name": "start",
          "type": "uint256"
        },
        {
          "internalType": "uint256",
          "name": "count",
          "type": "uint256"
        }
      ],
      "name": "retrieveSignatures",
      "outputs": [
        {
          "components": [
            {
              "internalType": "bytes32",
              "name": "r",
              "type": "bytes32"
            },
            {
              "internalType": "bytes32",
              "name": "vs",
              "type": "bytes32"
            },
            {
              "internalType": "bytes32",
              "name": "txHash",
              "type": "bytes32"
            }
          ],
          "internalType": "struct SignatureDataWithTxHashIndex[]",
          "name": "page",
          "type": "tuple[]"
        },
        {
          "internalType": "uint256",
          "name": "totalCount",
          "type": "uint256"
        }
      ],
      "stateMutability": "view",
      "type": "function"
    },
    {
      "inputs": [
        {
          "internalType": "address",
          "name": "signerAddress",
          "type": "address"
        },
        {
          "internalType": "address",
          "name": "safeAddress",
          "type": "address"
        },
        {
          "internalType": "uint256",
          "name": "chainId",
          "type": "uint256"
        },
        {
          "internalType": "uint256",
          "name": "nonce",
          "type": "uint256"
        }
      ],
      "name": "retrieveSignaturesCount",
      "outputs": [
        {
          "internalType": "uint256",
          "name": "count",
          "type": "uint256"
        }
      ],
      "stateMutability": "view",
      "type": "function"
    },
    {
      "inputs": [
        {
          "internalType": "bytes32",
          "name": "safeTxHash",
          "type": "bytes32"
        }
      ],
      "name": "retrieveTransaction",
      "outputs": [
        {
          "components": [
            {
              "internalType": "bool",
              "name": "stored",
              "type": "bool"
            },
            {
              "internalType": "uint8",
              "name": "operation",
              "type": "uint8"
            },
            {
              "internalType": "address",
              "name": "to",
              "type": "address"
            },
            {
              "internalType": "uint128",
              "name": "value",
              "type": "uint128"
            },
            {
              "internalType": "uint128",
              "name": "safeTxGas",
              "type": "uint128"
            },
            {
              "internalType": "uint128",
              "name": "baseGas",
              "type": "uint128"
            },
            {
              "internalType": "uint128",
              "name": "gasPrice",
              "type": "uint128"
            },
            {
              "internalType": "address",
              "name": "gasToken",
              "type": "address"
            },
            {
              "internalType": "address",
              "name": "refundReceiver",
              "type": "address"
            },
            {
              "internalType": "bytes",
              "name": "data",
              "type": "bytes"
            }
          ],
          "internalType": "struct SafeTransaction",
          "name": "txParams",
          "type": "tuple"
        }
      ],
      "stateMutability": "view",
      "type": "function"
    },
    {
      "inputs": [
        {
          "internalType": "bytes32",
          "name": "safeTxHash",
          "type": "bytes32"
        },
        {
          "internalType": "address",
          "name": "safeAddress",
          "type": "address"
        },
        {
          "internalType": "uint256",
          "name": "chainId",
          "type": "uint256"
        },
        {
          "internalType": "uint256",
          "name": "nonce",
          "type": "uint256"
        },
        {
          "internalType": "address",
          "name": "to",
          "type": "address"
        },
        {
          "internalType": "uint256",
          "name": "value",
          "type": "uint256"
        },
        {
          "internalType": "bytes",
          "name": "data",
          "type": "bytes"
        },
        {
          "internalType": "uint8",
          "name": "operation",
          "type": "uint8"
        },
        {
          "internalType": "uint256",
          "name": "safeTxGas",
          "type": "uint256"
        },
        {
          "internalType": "uint256",
          "name": "baseGas",
          "type": "uint256"
        },
        {
          "internalType": "uint256",
          "name": "gasPrice",
          "type": "uint256"
        },
        {
          "internalType": "address",
          "name": "gasToken",
          "type": "address"
        },
        {
          "internalType": "address",
          "name": "refundReceiver",
          "type": "address"
        },
        {
          "internalType": "address",
          "name": "signer",
          "type": "address"
        },
        {
          "internalType": "bytes32",
          "name": "r",
          "type": "bytes32"
        },
        {
          "internalType": "bytes32",
          "name": "vs",
          "type": "bytes32"
        }
      ],
      "name": "storeTransaction",
      "outputs": [
        {
          "internalType": "uint256",
          "name": "listIndex",
          "type": "uint256"
        }
      ],
      "stateMutability": "nonpayable",
      "type": "function"
    },
    {
      "inputs": [
        {
          "components": [
            {
              "internalType": "address",
              "name": "sender",
              "type": "address"
            },
            {
              "internalType": "uint256",
              "name": "nonce",
              "type": "uint256"
            },
            {
              "internalType": "bytes",
              "name": "initCode",
              "type": "bytes"
            },
            {
              "internalType": "bytes",
              "name": "callData",
              "type": "bytes"
            },
            {
              "internalType": "bytes32",
              "name": "accountGasLimits",
              "type": "bytes32"
            },
            {
              "internalType": "uint256",
              "name": "preVerificationGas",
              "type": "uint256"
            },
            {
              "internalType": "bytes32",
              "name": "gasFees",
              "type": "bytes32"
            },
            {
              "internalType": "bytes",
              "name": "paymasterAndData",
              "type": "bytes"
            },
            {
              "internalType": "bytes",
              "name": "signature",
              "type": "bytes"
            }
          ],
          "internalType": "struct PackedUserOperation",
          "name": "userOp",
          "type": "tuple"
        },
        {
          "internalType": "bytes32",
          "name": "",
          "type": "bytes32"
        },
        {
          "internalType": "uint256",
          "name": "missingAccountFunds",
          "type": "uint256"
        }
      ],
      "name": "validateUserOp",
      "outputs": [
        {
          "internalType": "uint256",
          "name": "validationData",
          "type": "uint256"
        }
      ],
      "stateMutability": "nonpayable",
      "type": "function"
    }
  ],
  "transactionHash": "0x9d31d368ea0352002cfcaaddac69700198e5e5cb151ddf40c11f5b949bd884e5",
  "args": [
    "0x4337084d9e255ff0702461cf8895ce9e3b5ff108"
  ],
  "numDeployments": 1,
  "solcInputHash": "204b9582b8ddd0509e995804b40ea321",
  "bytecode": "0x60a03461007f57601f611f3138819003918201601f19168301916001600160401b038311848410176100835780849260209460405283398101031261007f57516001600160a01b038116810361007f57608052604051611e999081610098823960805181818161017b0152818161095d01528181610f1b01526114d20152f35b5f80fd5b634e487b7160e01b5f52604160045260245ffdfe60a0806040526004361015610012575f80fd5b5f3560e01c908163137e051e14610ed3575080631573a55d14610e2f57806319822f7c146108cb5780632220debb146108145780632d0335ab146107d357806375f398fe1461048d578063dd030c67146101d85763e1ea48fc14610074575f80fd5b346101d4576102007ffffffffffffffffffffffffffffffffffffffffffffffffffffffffffffffffc3601126101d4576004356100af610f62565b60443590606435916084359373ffffffffffffffffffffffffffffffffffffffff851685036101d45760c43567ffffffffffffffff81116101d4576100f8903690600401610fa9565b94909260e43560ff811681036101d457610110610f85565b610184359073ffffffffffffffffffffffffffffffffffffffff821682036101d4576101a4359673ffffffffffffffffffffffffffffffffffffffff881688036101d45760209a896101bd956101cc9c6101a23373ffffffffffffffffffffffffffffffffffffffff7f0000000000000000000000000000000000000000000000000000000000000000163314610fd7565b61014435948b61012435958c8c610104359760a43594611753565b6101e435946101c43594611c9b565b604051908152f35b5f80fd5b346101d4576101a07ffffffffffffffffffffffffffffffffffffffffffffffffffffffffffffffffc3601126101d457610210610f3f565b60643573ffffffffffffffffffffffffffffffffffffffff811681036101d45760a43567ffffffffffffffff81116101d457610250903690600401610fa9565b909260c435919060ff831683036101d457610144359073ffffffffffffffffffffffffffffffffffffffff821682036101d45761028b610f85565b93610184359467ffffffffffffffff86116101d4576102b06041963690600401610fa9565b96909603610465576102e98185610124358b89878d6102d8610104359460e435943691611585565b90608435906044356024358e6115dc565b937f7fffffffffffffffffffffffffffffff5d576e7357a4501ddfe92f46681b20a060208801351161043d5760205f608060405188815260408b0135831a848201528a356040820152838b0135606082015282805260015afa15610432575f519573ffffffffffffffffffffffffffffffffffffffff87161561040a576020996101cc99610390956101243593610104359360e43593608435906044356024358d8f611753565b815f526002865260405f2073ffffffffffffffffffffffffffffffffffffffff84165f5286526103c9828460ff60405f205416156110d8565b858401357fffffffffffffffffffffffffffffffffffffffffffffffffffffffffffffffe560408601355f1a0160ff1b179335926044359160243591611c9b565b7f8baa579f000000000000000000000000000000000000000000000000000000005f5260045ffd5b6040513d5f823e3d90fd5b7f617cf474000000000000000000000000000000000000000000000000000000005f5260045ffd5b7f85e6258e000000000000000000000000000000000000000000000000000000005f5260045ffd5b346101d45760207ffffffffffffffffffffffffffffffffffffffffffffffffffffffffffffffffc3601126101d45760606101206040516104cd81611126565b5f81525f60208201525f60408201525f838201525f60808201525f60a08201525f60c08201525f60e08201525f61010082015201526004355f525f60205260405f2060405161051b81611126565b815460ff811615158252602082019260ff8260081c16845273ffffffffffffffffffffffffffffffffffffffff604084019260101c168252600181015460608401906fffffffffffffffffffffffffffffffff81168252608085019060801c815260028301549060a08601906fffffffffffffffffffffffffffffffff8316825260c087019260801c835273ffffffffffffffffffffffffffffffffffffffff6003860154169360e08801948552600573ffffffffffffffffffffffffffffffffffffffff600488015416966101008a01978852019660405180985f9080549061060482611534565b8085529160018116908115610796575060011461075a575b505003610629908961118c565b6101208901978852604051998a9960208b5251151560208b01525160ff1660408a01525173ffffffffffffffffffffffffffffffffffffffff166060890152516fffffffffffffffffffffffffffffffff166080880152516fffffffffffffffffffffffffffffffff1660a0870152516fffffffffffffffffffffffffffffffff1660c0860152516fffffffffffffffffffffffffffffffff1660e08501525173ffffffffffffffffffffffffffffffffffffffff166101008401525173ffffffffffffffffffffffffffffffffffffffff166101208301525161014082016101409052805180918161016085015260200161018084015e808201610180015f9052601f017fffffffffffffffffffffffffffffffffffffffffffffffffffffffffffffffe0168101036101800190f35b5f908152602081209092505b81831061077b57505081016020018c8061061c565b80602092948385600194549201015201910190918a92610766565b9050602093507fffffffffffffffffffffffffffffffffffffffffffffffffffffffffffffff0091501682840152151560051b8201018c8061061c565b346101d45760207ffffffffffffffffffffffffffffffffffffffffffffffffffffffffffffffffc3601126101d45760206101cc61080f610f3f565b61146d565b346101d45760c07ffffffffffffffffffffffffffffffffffffffffffffffffffffffffffffffffc3601126101d45761086c61084e610f3f565b610856610f62565b9060a435916084359160643591604435916112b3565b9060405190604082019260408352815180945260206060840192015f945b80861061089f57505082935060208301520390f35b90926020606060019260408751805183528481015185840152015160408201520194019501949061088a565b346101d45760607ffffffffffffffffffffffffffffffffffffffffffffffffffffffffffffffffc3601126101d45760043567ffffffffffffffff81116101d45780600401906101207ffffffffffffffffffffffffffffffffffffffffffffffffffffffffffffffffc82360301126101d457604435916109843373ffffffffffffffffffffffffffffffffffffffff7f0000000000000000000000000000000000000000000000000000000000000000163314610fd7565b61099160e4830182611021565b9050610e0757610104820160416109a88284611021565b90500361046557606483017fe1ea48fc000000000000000000000000000000000000000000000000000000007fffffffff00000000000000000000000000000000000000000000000000000000610a08610a028487611021565b90611072565b1614610a17610a028386611021565b9015610db95750610a289083611021565b806004939293116101d4578201906102007ffffffffffffffffffffffffffffffffffffffffffffffffffffffffffffffffc84840301126101d457600483013590610a75602485016115bb565b94610a82608486016115bb565b9360c486013567ffffffffffffffff81116101d457860190806023830112156101d4578160246004610ab79401359101611585565b60e48601359460ff861686036101d457610b7891610ad861016489016115bb565b91610ae66101848a016115bb565b99610af46101a48b016115bb565b996101c48101359973ffffffffffffffffffffffffffffffffffffffff80806101e48501359e169e1696169461014483013594610124840135946101048501359473ffffffffffffffffffffffffffffffffffffffff60a482013593169173ffffffffffffffffffffffffffffffffffffffff6044606484013593013591166115dc565b838103610d8e575090610bc591835f52600260205260405f2073ffffffffffffffffffffffffffffffffffffffff88165f52602052610bc0848860ff60405f205416156110d8565b611021565b50918235604060208501359401355f1a927f7fffffffffffffffffffffffffffffff5d576e7357a4501ddfe92f46681b20a0851161043d575f6080602092604051908152868482015284604082015287606082015282805260015afa156104325773ffffffffffffffffffffffffffffffffffffffff5f5116801561040a578603610d62578103610d3757507fffffffffffffffffffffffffffffffffffffffffffffffffffffffffffffffe50160ff1b178103610d0c575090610c8a60249261146d565b918291013503610ce1575080610ca5575b60206040515f8152f35b5f80808093335af1503d15610cdc573d610cbe816111cd565b90610ccc604051928361118c565b81525f60203d92013e5b80610c9b565b610cd6565b7fec6e82cd000000000000000000000000000000000000000000000000000000005f5260045260245ffd5b7f5ac4a43b000000000000000000000000000000000000000000000000000000005f5260045260245ffd5b7f42f4d17e000000000000000000000000000000000000000000000000000000005f5260045260245ffd5b857fa150e3da000000000000000000000000000000000000000000000000000000005f5260045260245ffd5b7fef8711f5000000000000000000000000000000000000000000000000000000005f5260045260245ffd5b7fffffffff00000000000000000000000000000000000000000000000000000000907f839d9ad2000000000000000000000000000000000000000000000000000000005f521660045260245ffd5b7fea42a443000000000000000000000000000000000000000000000000000000005f5260045ffd5b346101d45760807ffffffffffffffffffffffffffffffffffffffffffffffffffffffffffffffffc3601126101d457610e66610f3f565b73ffffffffffffffffffffffffffffffffffffffff610e83610f62565b91165f52600160205273ffffffffffffffffffffffffffffffffffffffff60405f2091165f5260205260405f206044355f5260205260405f206064355f52602052602060405f2054604051908152f35b346101d4575f7ffffffffffffffffffffffffffffffffffffffffffffffffffffffffffffffffc3601126101d45760209073ffffffffffffffffffffffffffffffffffffffff7f0000000000000000000000000000000000000000000000000000000000000000168152f35b6004359073ffffffffffffffffffffffffffffffffffffffff821682036101d457565b6024359073ffffffffffffffffffffffffffffffffffffffff821682036101d457565b610164359073ffffffffffffffffffffffffffffffffffffffff821682036101d457565b9181601f840112156101d45782359167ffffffffffffffff83116101d457602083818601950101116101d457565b15610fdf5750565b73ffffffffffffffffffffffffffffffffffffffff907f1d6ddbf4000000000000000000000000000000000000000000000000000000005f521660045260245ffd5b9035907fffffffffffffffffffffffffffffffffffffffffffffffffffffffffffffffe1813603018212156101d4570180359067ffffffffffffffff82116101d4576020019181360383136101d457565b919091357fffffffff00000000000000000000000000000000000000000000000000000000811692600481106110a6575050565b7fffffffff00000000000000000000000000000000000000000000000000000000929350829060040360031b1b161690565b156110e1575050565b73ffffffffffffffffffffffffffffffffffffffff907f41e3e888000000000000000000000000000000000000000000000000000000005f521660045260245260445ffd5b610140810190811067ffffffffffffffff82111761114357604052565b7f4e487b71000000000000000000000000000000000000000000000000000000005f52604160045260245ffd5b6060810190811067ffffffffffffffff82111761114357604052565b90601f7fffffffffffffffffffffffffffffffffffffffffffffffffffffffffffffffe0910116810190811067ffffffffffffffff82111761114357604052565b67ffffffffffffffff811161114357601f017fffffffffffffffffffffffffffffffffffffffffffffffffffffffffffffffe01660200190565b67ffffffffffffffff81116111435760051b60200190565b9190820180921161122c57565b7f4e487b71000000000000000000000000000000000000000000000000000000005f52601160045260245ffd5b8054821015611272575f52600360205f20910201905f90565b7f4e487b71000000000000000000000000000000000000000000000000000000005f52603260045260245ffd5b80518210156112725760209160051b010190565b73ffffffffffffffffffffffffffffffffffffffff90969496165f52600160205273ffffffffffffffffffffffffffffffffffffffff60405f2091165f5260205260405f20905f5260205260405f20905f5260205260405f208054928385101561141d57611321908561121f565b90838211611415575b84820391821161122c5761133d82611207565b9061134b604051928361118c565b8282527fffffffffffffffffffffffffffffffffffffffffffffffffffffffffffffffe061137884611207565b015f5b8181106113ec57505081955f5b848110611396575050505050565b806113ac6113a66001938561121f565b85611259565b506002604051916113bc83611170565b80548352848101546020840152015460408201526113da828761129f565b526113e5818661129f565b5001611388565b6020906040516113fb81611170565b5f81525f838201525f60408201528282870101520161137b565b83915061132a565b50919250905060405161143160208261118c565b5f81525f805b8181106114445750509190565b60209060405161145381611170565b5f81525f838201525f604082015282828601015201611437565b73ffffffffffffffffffffffffffffffffffffffff604051917f35567e1a00000000000000000000000000000000000000000000000000000000835230600484015216602482015260208160448173ffffffffffffffffffffffffffffffffffffffff7f0000000000000000000000000000000000000000000000000000000000000000165afa908115610432575f91611505575090565b90506020813d60201161152c575b816115206020938361118c565b810103126101d4575190565b3d9150611513565b90600182811c9216801561157b575b602083101461154e57565b7f4e487b71000000000000000000000000000000000000000000000000000000005f52602260045260245ffd5b91607f1691611543565b929192611591826111cd565b9161159f604051938461118c565b8294818452818301116101d4578281602093845f960137010152565b359073ffffffffffffffffffffffffffffffffffffffff821682036101d457565b9a9692999591979398949a6040519060208201927f47e79534a245952e8b16893a336b85a3d9ea9fa8c573f3d803afb92a794692188452604083015273ffffffffffffffffffffffffffffffffffffffff1660608201526060815261164260808261118c565b51902099805190602001206040519860208a019a7fbb8310d486368db6bd6f849402fdd73ad53d316b5a4b2644ad6efe0f941286d88c5273ffffffffffffffffffffffffffffffffffffffff1660408b015260608a0152608089015260ff1660a088015260c087015260e086015261010085015273ffffffffffffffffffffffffffffffffffffffff1661012084015273ffffffffffffffffffffffffffffffffffffffff1661014083015261016082015261016081526117056101808261118c565b5190206040519060208201927f19010000000000000000000000000000000000000000000000000000000000008452602283015260428201526042815261174d60628261118c565b51902090565b9a959893909994919c97929b966080528a5f525f60205260405f209687549060ff82161561178d575b505050505050505050505050505050565b73ffffffffffffffffffffffffffffffffffffffff9160017fffffffffffffffffffff0000000000000000000000000000000000000000000061ff008860081b1692161775ffffffffffffffffffffffffffffffffffffffff00008560101b161717895583611c4f575b85611bf9575b86611bad575b87611b57575b169687611b26575b73ffffffffffffffffffffffffffffffffffffffff8916611adf575b60805161193b575b506040519b8c5273ffffffffffffffffffffffffffffffffffffffff1660208c015260408b015260ff1660608a0152608089015260a088015260c087015260e086015273ffffffffffffffffffffffffffffffffffffffff1661010085015261012084016101409052608051610140850152608051906101608501376080518301610160015f905273ffffffffffffffffffffffffffffffffffffffff169180608051601f017fffffffffffffffffffffffffffffffffffffffffffffffffffffffffffffffe016810103610160017f3fcaf82260999b0a1a77f3006e142f8a15153ca131932b8b3b42ba67f44e02a391a45f808080808080808080808080808061177c565b67ffffffffffffffff60805111611143576119596005820154611534565b601f8111611a93575b505f601f608051116001146119c6576005905f906080516119bb575b5060805160011b907fffffffffffffffffffffffffffffffffffffffffffffffffffffffffffffffff60805160031b1c1916179101555b5f611835565b90508b01355f61197e565b600582015f5260205f20905f5b8c7fffffffffffffffffffffffffffffffffffffffffffffffffffffffffffffffe0608051168210611a7b5750506080517fffffffffffffffffffffffffffffffffffffffffffffffffffffffffffffffe0811610611a41575b505060056001608051811b019101556119b5565b7fffffffffffffffffffffffffffffffffffffffffffffffffffffffffffffffff60f860805160031b161c19908c01351690555f80611a2d565b600183946020939484930135815501930191016119d3565b600582015f5260205f20601f6080510160051c810191602060805110611ad5575b601f0160051c01905b818110611aca5750611962565b5f8155600101611abd565b9091508190611ab4565b6004810173ffffffffffffffffffffffffffffffffffffffff8a167fffffffffffffffffffffffff000000000000000000000000000000000000000082541617905561182d565b60038101887fffffffffffffffffffffffff0000000000000000000000000000000000000000825416179055611811565b611ba8611b6389611e0f565b60028b01906fffffffffffffffffffffffffffffffff7fffffffffffffffffffffffffffffffff0000000000000000000000000000000083549260801b169116179055565b611809565b611bb687611e0f565b6fffffffffffffffffffffffffffffffff60028b0191167fffffffffffffffffffffffffffffffff00000000000000000000000000000000825416179055611803565b611c4a611c0587611e0f565b60018b01906fffffffffffffffffffffffffffffffff7fffffffffffffffffffffffffffffffff0000000000000000000000000000000083549260801b169116179055565b6117fd565b611c5884611e0f565b6fffffffffffffffffffffffffffffffff60018b0191167fffffffffffffffffffffffffffffffff000000000000000000000000000000008254161790556117f7565b73ffffffffffffffffffffffffffffffffffffffff909796939795929495865f52600260205260405f208282165f5260205260405f2060017fffffffffffffffffffffffffffffffffffffffffffffffffffffffffffffff008254161790551692835f52600160205260405f2073ffffffffffffffffffffffffffffffffffffffff83165f5260205260405f20855f5260205260405f20885f5260205260405f209182549860405194611d4d86611170565b8552602085019283526040850193888552680100000000000000008b1015611143578a611d7f91600182018155611259565b611de357600260609573ffffffffffffffffffffffffffffffffffffffff957f8ca934463363b9653ec99615768595e2f35a0b21bab215117cf38b4038882c41985184555160018401555191015560405196875260208701528860408701521693a4565b7f4e487b71000000000000000000000000000000000000000000000000000000005f525f60045260245ffd5b6fffffffffffffffffffffffffffffffff8111611e3b576fffffffffffffffffffffffffffffffff1690565b7f5e978e24000000000000000000000000000000000000000000000000000000005f5260045ffdfea2646970667358221220d7030ddbaef0ea6bd4977f301c23abbcd1474dd68fe87303e439f5bcd4c2e42c64736f6c634300081d0033",
  "devdoc": {
    "details": "The {SignatureStored} event is the only hook required by indexers; however, the contract is      fully functional without any offchain infrastructure.",
    "errors": {
      "SignerAlreadySignedTransaction(address,bytes32)": [
        {
          "params": {
            "safeTxHash": "The EIP-712 hash of the Safe transaction.",
            "signer": "Signer address."
          }
        }
      ]
    },
    "events": {
      "NewTransaction(bytes32,address,uint256,uint256,address,uint256,uint8,uint256,uint256,uint256,address,address,bytes)": {
        "params": {
          "baseGas": "Fixed overhead reimbursed to the submitting signer.",
          "chainId": "Intended execution chain.",
          "data": "Calldata executed by the Safe.",
          "gasPrice": "Gas price used for reimbursement.",
          "gasToken": "ERC-20 token address for refunds.",
          "nonce": "Safe nonce.",
          "operation": "0 = CALL, 1 = DELEGATECALL.",
          "refundReceiver": "Address receiving the gas refund.",
          "safe": "Safe Smart-Account the transaction targets.",
          "safeTxGas": "Gas forwarded to the inner call.",
          "safeTxHash": "EIP-712 hash identifying the SafeTx.",
          "to": "Destination of the inner call/delegatecall.",
          "value": "ETH value forwarded by the Safe."
        }
      },
      "SignatureStored(address,address,bytes32,uint256,uint256,uint256)": {
        "params": {
          "chainId": "Intended execution chain.",
          "listIndex": "Position of the signature in the signerspecific array.",
          "nonce": "Safe nonce.",
          "safe": "Safe SmartAccount the transaction targets.",
          "safeTxHash": "EIP712 hash identifying the SafeTx.",
          "signer": "Address recovered from the provided signature."
        }
      }
    },
    "kind": "dev",
    "methods": {
      "enqueueTransaction(address,uint256,uint256,address,uint256,bytes,uint8,uint256,uint256,uint256,address,address,bytes)": {
        "custom:events": "Emits {SignatureStored}.",
        "details": "If `safeTxHash` has been seen before, its parameters are *not* validated nor overwritten       the call simply appends the `(r,s)` pair for `signer`.",
        "params": {
          "baseGas": "Fixed overhead reimbursed to the submitting signer.",
          "chainId": "Chain id the transaction is meant for.",
          "data": "Calldata executed by the Safe.",
          "gasPrice": "Gas price used for reimbursement.",
          "gasToken": "ERC20 token address for refunds (`address(0)` = ETH).",
          "nonce": "Safe nonce.",
          "operation": "0 = CALL, 1 = DELEGATECALL.",
          "refundReceiver": "Address receiving the gas refund.",
          "safeAddress": "Target Safe SmartAccount.",
          "safeTxGas": "Gas forwarded to the inner call.",
          "signature": "**Single** 65byte ECDSA signature.",
          "to": "Destination of the inner call/delegatecall.",
          "value": "ETH value forwarded by the Safe."
        },
        "returns": {
          "listIndex": "    Index of the stored signature in the signerspecific list."
        }
      },
      "retrieveSignatures(address,address,uint256,uint256,uint256,uint256)": {
        "params": {
          "chainId": "Target chain id.",
          "count": "Maximum number of entries to return.",
          "nonce": "Safe nonce.",
          "safeAddress": "Safe SmartAccount.",
          "signerAddress": "Address that created the signatures.",
          "start": "Zerobased start index of the slice."
        },
        "returns": {
          "page": "      Array slice `[start  start+count)` (may be shorter).",
          "totalCount": "Total number of signatures stored for the tuple."
        }
      },
      "retrieveSignaturesCount(address,address,uint256,uint256)": {
        "params": {
          "chainId": "Target chain id.",
          "nonce": "Safe nonce.",
          "safeAddress": "Safe SmartAccount.",
          "signerAddress": "Signer address."
        },
        "returns": {
          "count": "Length of the signature list."
        }
      },
      "retrieveTransaction(bytes32)": {
        "params": {
          "safeTxHash": "EIP712 digest of the transaction."
        },
        "returns": {
          "txParams": "Struct with all SafeTx parameters (zeroinitialised if unknown)."
        }
      }
    },
    "stateVariables": {
      "_hasSignerSignedTx": {
        "details": "Tracks if a signer has already submitted *any* signature for a specific safeTxHash,      preventing duplicate signatures for the *exact same* transaction digest.      This complements `_sigData` by ensuring uniqueness per (safeTxHash, signer) pair. Mapping `safeTxHash  signer  bool`"
      }
    },
    "title": "SafeInternationalHarbour",
    "version": 1
  },
  "userdoc": {
    "errors": {
      "InvalidECDSASignatureLength()": [
        {
          "notice": "Thrown when a signature blob is not exactly 65 bytes."
        }
      ],
      "InvalidSignature()": [
        {
          "notice": "Thrown if `ecrecover` yields `address(0)`."
        }
      ],
      "InvalidSignatureSValue()": [
        {
          "notice": "Thrown if the S value of the signature is not from the lower half of the curve."
        }
      ],
      "SignerAlreadySignedTransaction(address,bytes32)": [
        {
          "notice": "Thrown when attempting to store a signature for a transaction (safeTxHash) that the signer has already provided a signature for."
        }
      ],
      "ValueDoesNotFitInUint128()": [
        {
          "notice": "Thrown when a value doesn't fit in a uint128."
        }
      ]
    },
    "events": {
      "NewTransaction(bytes32,address,uint256,uint256,address,uint256,uint8,uint256,uint256,uint256,address,address,bytes)": {
        "notice": "Emitted when a transaction is first stored."
      },
      "SignatureStored(address,address,bytes32,uint256,uint256,uint256)": {
        "notice": "Emitted whenever a new signature is stored (and possibly the parameters on first sight)."
      }
    },
    "kind": "user",
    "methods": {
      "SUPPORTED_ENTRYPOINT()": {
        "notice": "The address of the EntryPoint contract supported by this module."
      },
      "enqueueTransaction(address,uint256,uint256,address,uint256,bytes,uint8,uint256,uint256,uint256,address,address,bytes)": {
        "notice": "Publish a Safe transaction and/or append a signature to it."
      },
      "getNonce(address)": {
        "notice": "Return the account nonce. This method returns the next sequential nonce. For a nonce of a specific key, use `entrypoint.getNonce(account, key)`"
      },
      "retrieveSignatures(address,address,uint256,uint256,uint256,uint256)": {
        "notice": "Paginated getter for signature entries."
      },
      "retrieveSignaturesCount(address,address,uint256,uint256)": {
        "notice": "Convenience getter returning the **number** of signatures stored for the key tuple."
      },
      "retrieveTransaction(bytes32)": {
        "notice": "Retrieve the full parameter set of a Safe transaction."
      }
    },
    "notice": "Permissionless, appendonly registry that lets **any EOA signer** publish Safe         transactions (\"SafeTx\") and their signatures. Clients without an offchain indexer can reconstruct the full multisig payload with only:         1. the Safe address;         2. the target `chainId`;         3. the Safe `nonce`; and         4. the current Safe owners set. Each unique `safeTxHash` (EIP712 digest of the SafeTx struct) is persisted **once** together with its parameters. Signatures are appended under the composite key `(signer, safe, chainId, nonce)`, enabling onchain, gasefficient lookups. ###  Contractbased signers unsupported Only ECDSA signatures from externallyowned accounts (EOAs) are supported. Contract wallets that rely on ERC1271 or similar cannot be verified onchain in a chainagnostic way and are therefore **not supported**.",
    "version": 1
  },
  "storageLayout": {
    "storage": [
      {
        "astId": 963,
        "contract": "src/SafeInternationalHarbour.sol:SafeInternationalHarbour",
        "label": "_txDetails",
        "offset": 0,
        "slot": "0",
        "type": "t_mapping(t_bytes32,t_struct(SafeTransaction)1711_storage)"
      },
      {
        "astId": 976,
        "contract": "src/SafeInternationalHarbour.sol:SafeInternationalHarbour",
        "label": "_sigData",
        "offset": 0,
        "slot": "1",
        "type": "t_mapping(t_address,t_mapping(t_address,t_mapping(t_uint256,t_mapping(t_uint256,t_array(t_struct(SignatureDataWithTxHashIndex)1719_storage)dyn_storage))))"
      },
      {
        "astId": 983,
        "contract": "src/SafeInternationalHarbour.sol:SafeInternationalHarbour",
        "label": "_hasSignerSignedTx",
        "offset": 0,
        "slot": "2",
        "type": "t_mapping(t_bytes32,t_mapping(t_address,t_bool))"
      }
    ],
    "types": {
      "t_address": {
        "encoding": "inplace",
        "label": "address",
        "numberOfBytes": "20"
      },
      "t_array(t_struct(SignatureDataWithTxHashIndex)1719_storage)dyn_storage": {
        "base": "t_struct(SignatureDataWithTxHashIndex)1719_storage",
        "encoding": "dynamic_array",
        "label": "struct SignatureDataWithTxHashIndex[]",
        "numberOfBytes": "32"
      },
      "t_bool": {
        "encoding": "inplace",
        "label": "bool",
        "numberOfBytes": "1"
      },
      "t_bytes32": {
        "encoding": "inplace",
        "label": "bytes32",
        "numberOfBytes": "32"
      },
      "t_bytes_storage": {
        "encoding": "bytes",
        "label": "bytes",
        "numberOfBytes": "32"
      },
      "t_mapping(t_address,t_bool)": {
        "encoding": "mapping",
        "key": "t_address",
        "label": "mapping(address => bool)",
        "numberOfBytes": "32",
        "value": "t_bool"
      },
      "t_mapping(t_address,t_mapping(t_address,t_mapping(t_uint256,t_mapping(t_uint256,t_array(t_struct(SignatureDataWithTxHashIndex)1719_storage)dyn_storage))))": {
        "encoding": "mapping",
        "key": "t_address",
        "label": "mapping(address => mapping(address => mapping(uint256 => mapping(uint256 => struct SignatureDataWithTxHashIndex[]))))",
        "numberOfBytes": "32",
        "value": "t_mapping(t_address,t_mapping(t_uint256,t_mapping(t_uint256,t_array(t_struct(SignatureDataWithTxHashIndex)1719_storage)dyn_storage)))"
      },
      "t_mapping(t_address,t_mapping(t_uint256,t_mapping(t_uint256,t_array(t_struct(SignatureDataWithTxHashIndex)1719_storage)dyn_storage)))": {
        "encoding": "mapping",
        "key": "t_address",
        "label": "mapping(address => mapping(uint256 => mapping(uint256 => struct SignatureDataWithTxHashIndex[])))",
        "numberOfBytes": "32",
        "value": "t_mapping(t_uint256,t_mapping(t_uint256,t_array(t_struct(SignatureDataWithTxHashIndex)1719_storage)dyn_storage))"
      },
      "t_mapping(t_bytes32,t_mapping(t_address,t_bool))": {
        "encoding": "mapping",
        "key": "t_bytes32",
        "label": "mapping(bytes32 => mapping(address => bool))",
        "numberOfBytes": "32",
        "value": "t_mapping(t_address,t_bool)"
      },
      "t_mapping(t_bytes32,t_struct(SafeTransaction)1711_storage)": {
        "encoding": "mapping",
        "key": "t_bytes32",
        "label": "mapping(bytes32 => struct SafeTransaction)",
        "numberOfBytes": "32",
        "value": "t_struct(SafeTransaction)1711_storage"
      },
      "t_mapping(t_uint256,t_array(t_struct(SignatureDataWithTxHashIndex)1719_storage)dyn_storage)": {
        "encoding": "mapping",
        "key": "t_uint256",
        "label": "mapping(uint256 => struct SignatureDataWithTxHashIndex[])",
        "numberOfBytes": "32",
        "value": "t_array(t_struct(SignatureDataWithTxHashIndex)1719_storage)dyn_storage"
      },
      "t_mapping(t_uint256,t_mapping(t_uint256,t_array(t_struct(SignatureDataWithTxHashIndex)1719_storage)dyn_storage))": {
        "encoding": "mapping",
        "key": "t_uint256",
        "label": "mapping(uint256 => mapping(uint256 => struct SignatureDataWithTxHashIndex[]))",
        "numberOfBytes": "32",
        "value": "t_mapping(t_uint256,t_array(t_struct(SignatureDataWithTxHashIndex)1719_storage)dyn_storage)"
      },
      "t_struct(SafeTransaction)1711_storage": {
        "encoding": "inplace",
        "label": "struct SafeTransaction",
        "members": [
          {
            "astId": 1692,
            "contract": "src/SafeInternationalHarbour.sol:SafeInternationalHarbour",
            "label": "stored",
            "offset": 0,
            "slot": "0",
            "type": "t_bool"
          },
          {
            "astId": 1694,
            "contract": "src/SafeInternationalHarbour.sol:SafeInternationalHarbour",
            "label": "operation",
            "offset": 1,
            "slot": "0",
            "type": "t_uint8"
          },
          {
            "astId": 1696,
            "contract": "src/SafeInternationalHarbour.sol:SafeInternationalHarbour",
            "label": "to",
            "offset": 2,
            "slot": "0",
            "type": "t_address"
          },
          {
            "astId": 1698,
            "contract": "src/SafeInternationalHarbour.sol:SafeInternationalHarbour",
            "label": "value",
            "offset": 0,
            "slot": "1",
            "type": "t_uint128"
          },
          {
            "astId": 1700,
            "contract": "src/SafeInternationalHarbour.sol:SafeInternationalHarbour",
            "label": "safeTxGas",
            "offset": 16,
            "slot": "1",
            "type": "t_uint128"
          },
          {
            "astId": 1702,
            "contract": "src/SafeInternationalHarbour.sol:SafeInternationalHarbour",
            "label": "baseGas",
            "offset": 0,
            "slot": "2",
            "type": "t_uint128"
          },
          {
            "astId": 1704,
            "contract": "src/SafeInternationalHarbour.sol:SafeInternationalHarbour",
            "label": "gasPrice",
            "offset": 16,
            "slot": "2",
            "type": "t_uint128"
          },
          {
            "astId": 1706,
            "contract": "src/SafeInternationalHarbour.sol:SafeInternationalHarbour",
            "label": "gasToken",
            "offset": 0,
            "slot": "3",
            "type": "t_address"
          },
          {
            "astId": 1708,
            "contract": "src/SafeInternationalHarbour.sol:SafeInternationalHarbour",
            "label": "refundReceiver",
            "offset": 0,
            "slot": "4",
            "type": "t_address"
          },
          {
            "astId": 1710,
            "contract": "src/SafeInternationalHarbour.sol:SafeInternationalHarbour",
            "label": "data",
            "offset": 0,
            "slot": "5",
            "type": "t_bytes_storage"
          }
        ],
        "numberOfBytes": "192"
      },
      "t_struct(SignatureDataWithTxHashIndex)1719_storage": {
        "encoding": "inplace",
        "label": "struct SignatureDataWithTxHashIndex",
        "members": [
          {
            "astId": 1714,
            "contract": "src/SafeInternationalHarbour.sol:SafeInternationalHarbour",
            "label": "r",
            "offset": 0,
            "slot": "0",
            "type": "t_bytes32"
          },
          {
            "astId": 1716,
            "contract": "src/SafeInternationalHarbour.sol:SafeInternationalHarbour",
            "label": "vs",
            "offset": 0,
            "slot": "1",
            "type": "t_bytes32"
          },
          {
            "astId": 1718,
            "contract": "src/SafeInternationalHarbour.sol:SafeInternationalHarbour",
            "label": "txHash",
            "offset": 0,
            "slot": "2",
            "type": "t_bytes32"
          }
        ],
        "numberOfBytes": "96"
      },
      "t_uint128": {
        "encoding": "inplace",
        "label": "uint128",
        "numberOfBytes": "16"
      },
      "t_uint256": {
        "encoding": "inplace",
        "label": "uint256",
        "numberOfBytes": "32"
      },
      "t_uint8": {
        "encoding": "inplace",
        "label": "uint8",
        "numberOfBytes": "1"
      }
    }
  }
}