{
  "address": "0x7E299130D19bd0F3D86718d389a4DEF957034189",
  "abi": [
    {
      "inputs": [
        {
          "components": [
            {
              "internalType": "address",
              "name": "entryPoint",
              "type": "address"
            }
          ],
          "internalType": "struct ERC4337MixinConfig",
          "name": "_erc4337Mixinconfig",
          "type": "tuple"
        }
      ],
      "stateMutability": "nonpayable",
      "type": "constructor"
    },
    {
      "inputs": [],
      "name": "InvalidECDSASignatureLength",
      "type": "error"
    },
    {
      "inputs": [
        {
          "internalType": "address",
          "name": "entryPoint",
          "type": "address"
        }
      ],
      "name": "InvalidEntryPoint",
      "type": "error"
    },
    {
      "inputs": [],
      "name": "InvalidSignature",
      "type": "error"
    },
    {
      "inputs": [],
      "name": "InvalidSignatureSValue",
      "type": "error"
    },
    {
      "inputs": [
        {
          "internalType": "bytes4",
          "name": "targetSelector",
          "type": "bytes4"
        }
      ],
      "name": "InvalidTarget",
      "type": "error"
    },
    {
      "inputs": [],
      "name": "InvalidUserOpPaymaster",
      "type": "error"
    },
    {
      "inputs": [
        {
          "internalType": "address",
          "name": "signer",
          "type": "address"
        },
        {
          "internalType": "bytes32",
          "name": "safeTxHash",
          "type": "bytes32"
        }
      ],
      "name": "SignerAlreadySignedTransaction",
      "type": "error"
    },
    {
      "inputs": [
        {
          "internalType": "address",
          "name": "expectedKey",
          "type": "address"
        }
      ],
      "name": "UnexpectedNonce",
      "type": "error"
    },
    {
      "inputs": [
        {
          "internalType": "bytes32",
          "name": "expectedSafeTxHash",
          "type": "bytes32"
        }
      ],
      "name": "UnexpectedSafeTxHash",
      "type": "error"
    },
    {
      "inputs": [
        {
          "internalType": "address",
          "name": "recoveredSigner",
          "type": "address"
        }
      ],
      "name": "UnexpectedSigner",
      "type": "error"
    },
    {
      "inputs": [],
      "name": "ValueDoesNotFitInUint128",
      "type": "error"
    },
    {
      "anonymous": false,
      "inputs": [
        {
          "indexed": true,
          "internalType": "bytes32",
          "name": "safeTxHash",
          "type": "bytes32"
        },
        {
          "indexed": true,
          "internalType": "address",
          "name": "safe",
          "type": "address"
        },
        {
          "indexed": true,
          "internalType": "uint256",
          "name": "chainId",
          "type": "uint256"
        },
        {
          "indexed": false,
          "internalType": "uint256",
          "name": "nonce",
          "type": "uint256"
        },
        {
          "indexed": false,
          "internalType": "address",
          "name": "to",
          "type": "address"
        },
        {
          "indexed": false,
          "internalType": "uint256",
          "name": "value",
          "type": "uint256"
        },
        {
          "indexed": false,
          "internalType": "uint8",
          "name": "operation",
          "type": "uint8"
        },
        {
          "indexed": false,
          "internalType": "uint256",
          "name": "safeTxGas",
          "type": "uint256"
        },
        {
          "indexed": false,
          "internalType": "uint256",
          "name": "baseGas",
          "type": "uint256"
        },
        {
          "indexed": false,
          "internalType": "uint256",
          "name": "gasPrice",
          "type": "uint256"
        },
        {
          "indexed": false,
          "internalType": "address",
          "name": "gasToken",
          "type": "address"
        },
        {
          "indexed": false,
          "internalType": "address",
          "name": "refundReceiver",
          "type": "address"
        },
        {
          "indexed": false,
          "internalType": "bytes",
          "name": "data",
          "type": "bytes"
        }
      ],
      "name": "NewTransaction",
      "type": "event"
    },
    {
      "anonymous": false,
      "inputs": [
        {
          "indexed": true,
          "internalType": "address",
          "name": "signer",
          "type": "address"
        },
        {
          "indexed": true,
          "internalType": "address",
          "name": "safe",
          "type": "address"
        },
        {
          "indexed": true,
          "internalType": "bytes32",
          "name": "safeTxHash",
          "type": "bytes32"
        },
        {
          "indexed": false,
          "internalType": "uint256",
          "name": "chainId",
          "type": "uint256"
        },
        {
          "indexed": false,
          "internalType": "uint256",
          "name": "nonce",
          "type": "uint256"
        },
        {
          "indexed": false,
          "internalType": "uint256",
          "name": "listIndex",
          "type": "uint256"
        }
      ],
      "name": "SignatureStored",
      "type": "event"
    },
    {
      "inputs": [],
      "name": "SUPPORTED_ENTRYPOINT",
      "outputs": [
        {
          "internalType": "address",
          "name": "",
          "type": "address"
        }
      ],
      "stateMutability": "view",
      "type": "function"
    },
    {
      "inputs": [
        {
          "internalType": "address",
          "name": "safeAddress",
          "type": "address"
        },
        {
          "internalType": "uint256",
          "name": "chainId",
          "type": "uint256"
        },
        {
          "internalType": "uint256",
          "name": "nonce",
          "type": "uint256"
        },
        {
          "internalType": "address",
          "name": "to",
          "type": "address"
        },
        {
          "internalType": "uint256",
          "name": "value",
          "type": "uint256"
        },
        {
          "internalType": "bytes",
          "name": "data",
          "type": "bytes"
        },
        {
          "internalType": "uint8",
          "name": "operation",
          "type": "uint8"
        },
        {
          "internalType": "uint256",
          "name": "safeTxGas",
          "type": "uint256"
        },
        {
          "internalType": "uint256",
          "name": "baseGas",
          "type": "uint256"
        },
        {
          "internalType": "uint256",
          "name": "gasPrice",
          "type": "uint256"
        },
        {
          "internalType": "address",
          "name": "gasToken",
          "type": "address"
        },
        {
          "internalType": "address",
          "name": "refundReceiver",
          "type": "address"
        },
        {
          "internalType": "bytes",
          "name": "signature",
          "type": "bytes"
        }
      ],
      "name": "enqueueTransaction",
      "outputs": [
        {
          "internalType": "uint256",
          "name": "listIndex",
          "type": "uint256"
        }
      ],
      "stateMutability": "nonpayable",
      "type": "function"
    },
    {
      "inputs": [
        {
          "internalType": "address",
          "name": "signer",
          "type": "address"
        }
      ],
      "name": "getNonce",
      "outputs": [
        {
          "internalType": "uint256",
          "name": "",
          "type": "uint256"
        }
      ],
      "stateMutability": "view",
      "type": "function"
    },
    {
      "inputs": [
        {
          "internalType": "address",
          "name": "signerAddress",
          "type": "address"
        },
        {
          "internalType": "address",
          "name": "safeAddress",
          "type": "address"
        },
        {
          "internalType": "uint256",
          "name": "chainId",
          "type": "uint256"
        },
        {
          "internalType": "uint256",
          "name": "nonce",
          "type": "uint256"
        },
        {
          "internalType": "uint256",
          "name": "start",
          "type": "uint256"
        },
        {
          "internalType": "uint256",
          "name": "count",
          "type": "uint256"
        }
      ],
      "name": "retrieveSignatures",
      "outputs": [
        {
          "components": [
            {
              "internalType": "bytes32",
              "name": "r",
              "type": "bytes32"
            },
            {
              "internalType": "bytes32",
              "name": "vs",
              "type": "bytes32"
            },
            {
              "internalType": "bytes32",
              "name": "txHash",
              "type": "bytes32"
            }
          ],
          "internalType": "struct SignatureDataWithTxHashIndex[]",
          "name": "page",
          "type": "tuple[]"
        },
        {
          "internalType": "uint256",
          "name": "totalCount",
          "type": "uint256"
        }
      ],
      "stateMutability": "view",
      "type": "function"
    },
    {
      "inputs": [
        {
          "internalType": "address",
          "name": "signerAddress",
          "type": "address"
        },
        {
          "internalType": "address",
          "name": "safeAddress",
          "type": "address"
        },
        {
          "internalType": "uint256",
          "name": "chainId",
          "type": "uint256"
        },
        {
          "internalType": "uint256",
          "name": "nonce",
          "type": "uint256"
        }
      ],
      "name": "retrieveSignaturesCount",
      "outputs": [
        {
          "internalType": "uint256",
          "name": "count",
          "type": "uint256"
        }
      ],
      "stateMutability": "view",
      "type": "function"
    },
    {
      "inputs": [
        {
          "internalType": "bytes32",
          "name": "safeTxHash",
          "type": "bytes32"
        }
      ],
      "name": "retrieveTransaction",
      "outputs": [
        {
          "components": [
            {
              "internalType": "bool",
              "name": "stored",
              "type": "bool"
            },
            {
              "internalType": "uint8",
              "name": "operation",
              "type": "uint8"
            },
            {
              "internalType": "address",
              "name": "to",
              "type": "address"
            },
            {
              "internalType": "uint128",
              "name": "value",
              "type": "uint128"
            },
            {
              "internalType": "uint128",
              "name": "safeTxGas",
              "type": "uint128"
            },
            {
              "internalType": "uint128",
              "name": "baseGas",
              "type": "uint128"
            },
            {
              "internalType": "uint128",
              "name": "gasPrice",
              "type": "uint128"
            },
            {
              "internalType": "address",
              "name": "gasToken",
              "type": "address"
            },
            {
              "internalType": "address",
              "name": "refundReceiver",
              "type": "address"
            },
            {
              "internalType": "bytes",
              "name": "data",
              "type": "bytes"
            }
          ],
          "internalType": "struct SafeTransaction",
          "name": "txParams",
          "type": "tuple"
        }
      ],
      "stateMutability": "view",
      "type": "function"
    },
    {
      "inputs": [
        {
          "internalType": "bytes32",
          "name": "safeTxHash",
          "type": "bytes32"
        },
        {
          "internalType": "address",
          "name": "safeAddress",
          "type": "address"
        },
        {
          "internalType": "uint256",
          "name": "chainId",
          "type": "uint256"
        },
        {
          "internalType": "uint256",
          "name": "nonce",
          "type": "uint256"
        },
        {
          "internalType": "address",
          "name": "to",
          "type": "address"
        },
        {
          "internalType": "uint256",
          "name": "value",
          "type": "uint256"
        },
        {
          "internalType": "bytes",
          "name": "data",
          "type": "bytes"
        },
        {
          "internalType": "uint8",
          "name": "operation",
          "type": "uint8"
        },
        {
          "internalType": "uint256",
          "name": "safeTxGas",
          "type": "uint256"
        },
        {
          "internalType": "uint256",
          "name": "baseGas",
          "type": "uint256"
        },
        {
          "internalType": "uint256",
          "name": "gasPrice",
          "type": "uint256"
        },
        {
          "internalType": "address",
          "name": "gasToken",
          "type": "address"
        },
        {
          "internalType": "address",
          "name": "refundReceiver",
          "type": "address"
        },
        {
          "internalType": "address",
          "name": "signer",
          "type": "address"
        },
        {
          "internalType": "bytes32",
          "name": "r",
          "type": "bytes32"
        },
        {
          "internalType": "bytes32",
          "name": "vs",
          "type": "bytes32"
        }
      ],
      "name": "storeTransaction",
      "outputs": [
        {
          "internalType": "uint256",
          "name": "listIndex",
          "type": "uint256"
        }
      ],
      "stateMutability": "nonpayable",
      "type": "function"
    },
    {
      "inputs": [
        {
          "components": [
            {
              "internalType": "address",
              "name": "sender",
              "type": "address"
            },
            {
              "internalType": "uint256",
              "name": "nonce",
              "type": "uint256"
            },
            {
              "internalType": "bytes",
              "name": "initCode",
              "type": "bytes"
            },
            {
              "internalType": "bytes",
              "name": "callData",
              "type": "bytes"
            },
            {
              "internalType": "bytes32",
              "name": "accountGasLimits",
              "type": "bytes32"
            },
            {
              "internalType": "uint256",
              "name": "preVerificationGas",
              "type": "uint256"
            },
            {
              "internalType": "bytes32",
              "name": "gasFees",
              "type": "bytes32"
            },
            {
              "internalType": "bytes",
              "name": "paymasterAndData",
              "type": "bytes"
            },
            {
              "internalType": "bytes",
              "name": "signature",
              "type": "bytes"
            }
          ],
          "internalType": "struct PackedUserOperation",
          "name": "userOp",
          "type": "tuple"
        },
        {
          "internalType": "bytes32",
          "name": "",
          "type": "bytes32"
        },
        {
          "internalType": "uint256",
          "name": "",
          "type": "uint256"
        }
      ],
      "name": "validateUserOp",
      "outputs": [
        {
          "internalType": "uint256",
          "name": "validationData",
          "type": "uint256"
        }
      ],
      "stateMutability": "view",
      "type": "function"
    }
  ],
  "transactionHash": "0x94c64102f15017c3dfb40e56c21ef4abd305b802dfd286f9d62d98d5ac152923",
  "args": [
    {
      "entryPoint": "0x4337084d9e255ff0702461cf8895ce9e3b5ff108"
    }
  ],
  "numDeployments": 19,
  "solcInputHash": "5fa2546a5c5fe4b297113b87c1216c73",
  "bytecode": "0x60a0604052346100a557604051601f611eeb38819003918201601f19168301916001600160401b038311848410176100a9578084926020946040528339810103126100a55760405190602082016001600160401b038111838210176100a957604052516001600160a01b038116918282036100a55752608052604051611e2d90816100be823960805181818161017b015281816108bd01528181610a6e0152610f4e0152f35b5f80fd5b634e487b7160e01b5f52604160045260245ffdfe60a0806040526004361015610012575f80fd5b5f3560e01c908163137e051e14610f06575080631573a55d14610e6257806319822f7c146109e15780632220debb1461092a5780632d0335ab1461082157806375f398fe146104db578063dd030c67146101d85763e1ea48fc14610074575f80fd5b346101d4576102007ffffffffffffffffffffffffffffffffffffffffffffffffffffffffffffffffc3601126101d4576004356100af610f95565b60443590606435916084359373ffffffffffffffffffffffffffffffffffffffff851685036101d45760c43567ffffffffffffffff81116101d4576100f8903690600401610fdc565b94909260e43560ff811681036101d457610110610fb8565b610184359073ffffffffffffffffffffffffffffffffffffffff821682036101d4576101a4359673ffffffffffffffffffffffffffffffffffffffff881688036101d45760209a896101bd956101cc9c6101a23373ffffffffffffffffffffffffffffffffffffffff7f000000000000000000000000000000000000000000000000000000000000000016331461100a565b61014435948b61012435958c8c610104359760a435946116f2565b6101e435946101c43594611c3a565b604051908152f35b5f80fd5b346101d4576101a07ffffffffffffffffffffffffffffffffffffffffffffffffffffffffffffffffc3601126101d457610210610f72565b60643573ffffffffffffffffffffffffffffffffffffffff811681036101d45760a43567ffffffffffffffff81116101d457610250903690600401610fdc565b909260c435919060ff831683036101d457610144359073ffffffffffffffffffffffffffffffffffffffff821682036101d45761028b610fb8565b93610184359467ffffffffffffffff86116101d4576102b06041963690600401610fdc565b969096036104b3576102e98185610124358b89878d6102d8610104359460e4359436916114f6565b90608435906044356024358e61157b565b937f7fffffffffffffffffffffffffffffff5d576e7357a4501ddfe92f46681b20a060208801351161048b5760205f6040518061034e848c01358c60408135910135861a8c859094939260ff6060936080840197845216602083015260408201520152565b838052039060015afa15610480575f519573ffffffffffffffffffffffffffffffffffffffff871615610458576020996101cc996103a5956101243593610104359360e43593608435906044356024358d8f6116f2565b61041782846104116040518a810190893582528b8a01357fffffffffffffffffffffffffffffffffffffffffffffffffffffffffffffffe560408c01355f1a0160ff1b176040820152604081526103fd606082611171565b5190205f52600260205260405f2054151590565b156111b2565b858401357fffffffffffffffffffffffffffffffffffffffffffffffffffffffffffffffe560408601355f1a0160ff1b179335926044359160243591611c3a565b7f8baa579f000000000000000000000000000000000000000000000000000000005f5260045ffd5b6040513d5f823e3d90fd5b7f617cf474000000000000000000000000000000000000000000000000000000005f5260045ffd5b7f85e6258e000000000000000000000000000000000000000000000000000000005f5260045ffd5b346101d45760207ffffffffffffffffffffffffffffffffffffffffffffffffffffffffffffffffc3601126101d457606061012060405161051b8161110b565b5f81525f60208201525f60408201525f838201525f60808201525f60a08201525f60c08201525f60e08201525f61010082015201526004355f525f60205260405f206040516105698161110b565b815460ff811615158252602082019260ff8260081c16845273ffffffffffffffffffffffffffffffffffffffff604084019260101c168252600181015460608401906fffffffffffffffffffffffffffffffff81168252608085019060801c815260028301549060a08601906fffffffffffffffffffffffffffffffff8316825260c087019260801c835273ffffffffffffffffffffffffffffffffffffffff6003860154169360e08801948552600573ffffffffffffffffffffffffffffffffffffffff600488015416966101008a01978852019660405180985f90805490610652826114a5565b80855291600181169081156107e457506001146107a8575b5050036106779089611171565b6101208901978852604051998a9960208b5251151560208b01525160ff1660408a01525173ffffffffffffffffffffffffffffffffffffffff166060890152516fffffffffffffffffffffffffffffffff166080880152516fffffffffffffffffffffffffffffffff1660a0870152516fffffffffffffffffffffffffffffffff1660c0860152516fffffffffffffffffffffffffffffffff1660e08501525173ffffffffffffffffffffffffffffffffffffffff166101008401525173ffffffffffffffffffffffffffffffffffffffff166101208301525161014082016101409052805180918161016085015260200161018084015e808201610180015f9052601f017fffffffffffffffffffffffffffffffffffffffffffffffffffffffffffffffe0168101036101800190f35b5f908152602081209092505b8183106107c957505081016020018c8061066a565b80602092948385600194549201015201910190918a926107b4565b9050602093507fffffffffffffffffffffffffffffffffffffffffffffffffffffffffffffff0091501682840152151560051b8201018c8061066a565b346101d45760207ffffffffffffffffffffffffffffffffffffffffffffffffffffffffffffffffc3601126101d457610858610f72565b73ffffffffffffffffffffffffffffffffffffffff604051917f35567e1a00000000000000000000000000000000000000000000000000000000835230600484015216602482015260208160448173ffffffffffffffffffffffffffffffffffffffff7f0000000000000000000000000000000000000000000000000000000000000000165afa8015610480575f906108f7575b602090604051908152f35b506020813d602011610922575b8161091160209383611171565b810103126101d457602090516108ec565b3d9150610904565b346101d45760c07ffffffffffffffffffffffffffffffffffffffffffffffffffffffffffffffffc3601126101d457610982610964610f72565b61096c610f95565b9060a435916084359160643591604435916112ac565b9060405190604082019260408352815180945260206060840192015f945b8086106109b557505082935060208301520390f35b9092602060606001926040875180518352848101518584015201516040820152019401950194906109a0565b346101d45760607ffffffffffffffffffffffffffffffffffffffffffffffffffffffffffffffffc3601126101d45760043567ffffffffffffffff81116101d457806004016101207ffffffffffffffffffffffffffffffffffffffffffffffffffffffffffffffffc83360301126101d457610a953373ffffffffffffffffffffffffffffffffffffffff7f000000000000000000000000000000000000000000000000000000000000000016331461100a565b606482017fe1ea48fc000000000000000000000000000000000000000000000000000000007fffffffff00000000000000000000000000000000000000000000000000000000610aee610ae88486611054565b906110a5565b1614610afd610ae88385611054565b9015610e145750610b0e9082611054565b806004116101d4578101906102007ffffffffffffffffffffffffffffffffffffffffffffffffffffffffffffffffc82840301126101d457600481013590610b586024820161155a565b92610b656084830161155a565b9060c483013567ffffffffffffffff81116101d457830190806023830112156101d4578160246004610b9a94013591016114f6565b60e48301359160ff831683036101d457610c5b91610bbb610164860161155a565b91610bc9610184870161155a565b97610bd76101a4880161155a565b966101c48101359673ffffffffffffffffffffffffffffffffffffffff80806101e48501359b169c1696169461014483013594610124840135946101048501359473ffffffffffffffffffffffffffffffffffffffff60a482013593169173ffffffffffffffffffffffffffffffffffffffff60446064840135930135911661157b565b838103610de95750610c8b83856104116040516020810190868252876040820152604081526103fd606082611171565b817f7fffffffffffffffffffffffffffffffffffffffffffffffffffffffffffffff16917f7fffffffffffffffffffffffffffffff5d576e7357a4501ddfe92f46681b20a0831161048b57610d0c5f93601b9360209660405195869560ff1c0190859094939260ff6060936080840197845216602083015260408201520152565b838052039060015afa156104805773ffffffffffffffffffffffffffffffffffffffff5f51168015610458578103610dbe5780602484013560401c03610d93575060e4610d5a920190611054565b905015610d6b5760206040515f8152f35b7f48882656000000000000000000000000000000000000000000000000000000005f5260045ffd5b7f58858ebd000000000000000000000000000000000000000000000000000000005f5260045260245ffd5b7fa150e3da000000000000000000000000000000000000000000000000000000005f5260045260245ffd5b7fef8711f5000000000000000000000000000000000000000000000000000000005f5260045260245ffd5b7fffffffff00000000000000000000000000000000000000000000000000000000907f839d9ad2000000000000000000000000000000000000000000000000000000005f521660045260245ffd5b346101d45760807ffffffffffffffffffffffffffffffffffffffffffffffffffffffffffffffffc3601126101d457610e99610f72565b73ffffffffffffffffffffffffffffffffffffffff610eb6610f95565b91165f52600160205273ffffffffffffffffffffffffffffffffffffffff60405f2091165f5260205260405f206044355f5260205260405f206064355f52602052602060405f2054604051908152f35b346101d4575f7ffffffffffffffffffffffffffffffffffffffffffffffffffffffffffffffffc3601126101d45760209073ffffffffffffffffffffffffffffffffffffffff7f0000000000000000000000000000000000000000000000000000000000000000168152f35b6004359073ffffffffffffffffffffffffffffffffffffffff821682036101d457565b6024359073ffffffffffffffffffffffffffffffffffffffff821682036101d457565b610164359073ffffffffffffffffffffffffffffffffffffffff821682036101d457565b9181601f840112156101d45782359167ffffffffffffffff83116101d457602083818601950101116101d457565b156110125750565b73ffffffffffffffffffffffffffffffffffffffff907f1d6ddbf4000000000000000000000000000000000000000000000000000000005f521660045260245ffd5b9035907fffffffffffffffffffffffffffffffffffffffffffffffffffffffffffffffe1813603018212156101d4570180359067ffffffffffffffff82116101d4576020019181360383136101d457565b919091357fffffffff00000000000000000000000000000000000000000000000000000000811692600481106110d9575050565b7fffffffff00000000000000000000000000000000000000000000000000000000929350829060040360031b1b161690565b610140810190811067ffffffffffffffff82111761112857604052565b7f4e487b71000000000000000000000000000000000000000000000000000000005f52604160045260245ffd5b6060810190811067ffffffffffffffff82111761112857604052565b90601f7fffffffffffffffffffffffffffffffffffffffffffffffffffffffffffffffe0910116810190811067ffffffffffffffff82111761112857604052565b156111bb575050565b73ffffffffffffffffffffffffffffffffffffffff907f41e3e888000000000000000000000000000000000000000000000000000000005f521660045260245260445ffd5b67ffffffffffffffff81116111285760051b60200190565b9190820180921161122557565b7f4e487b71000000000000000000000000000000000000000000000000000000005f52601160045260245ffd5b805482101561126b575f5260205f209060011b01905f90565b7f4e487b71000000000000000000000000000000000000000000000000000000005f52603260045260245ffd5b805182101561126b5760209160051b010190565b73ffffffffffffffffffffffffffffffffffffffff90969496165f52600160205273ffffffffffffffffffffffffffffffffffffffff60405f2091165f5260205260405f20905f5260205260405f20905f5260205260405f2092835492838210156114555761131b9082611218565b9083821161144d575b8082039182116112255761133782611200565b906113456040519283611171565b8282527fffffffffffffffffffffffffffffffffffffffffffffffffffffffffffffffe061137284611200565b015f5b81811061142457505081955f5b848110611390575050505050565b806113a66113a060019386611218565b84611252565b5054826113bc6113b68488611218565b86611252565b5001546040516020810190838252826040820152604081526113df606082611171565b5190205f52600260205260405f205490604051926113fc84611155565b8352602083015260408201526114128287611298565b5261141d8186611298565b5001611382565b60209060405161143381611155565b5f81525f838201525f604082015282828701015201611375565b839150611324565b509192509050604051611469602082611171565b5f81525f805b81811061147c5750509190565b60209060405161148b81611155565b5f81525f838201525f60408201528282860101520161146f565b90600182811c921680156114ec575b60208310146114bf57565b7f4e487b71000000000000000000000000000000000000000000000000000000005f52602260045260245ffd5b91607f16916114b4565b92919267ffffffffffffffff8211611128576040519161153e60207fffffffffffffffffffffffffffffffffffffffffffffffffffffffffffffffe0601f8401160184611171565b8294818452818301116101d4578281602093845f960137010152565b359073ffffffffffffffffffffffffffffffffffffffff821682036101d457565b9a9692999591979398949a6040519060208201927f47e79534a245952e8b16893a336b85a3d9ea9fa8c573f3d803afb92a794692188452604083015273ffffffffffffffffffffffffffffffffffffffff166060820152606081526115e1608082611171565b51902099805190602001206040519860208a019a7fbb8310d486368db6bd6f849402fdd73ad53d316b5a4b2644ad6efe0f941286d88c5273ffffffffffffffffffffffffffffffffffffffff1660408b015260608a0152608089015260ff1660a088015260c087015260e086015261010085015273ffffffffffffffffffffffffffffffffffffffff1661012084015273ffffffffffffffffffffffffffffffffffffffff1661014083015261016082015261016081526116a461018082611171565b5190206040519060208201927f1901000000000000000000000000000000000000000000000000000000000000845260228301526042820152604281526116ec606282611171565b51902090565b9a959893909994919c97929b966080528a5f525f60205260405f209687549060ff82161561172c575b505050505050505050505050505050565b73ffffffffffffffffffffffffffffffffffffffff9160017fffffffffffffffffffff0000000000000000000000000000000000000000000061ff008860081b1692161775ffffffffffffffffffffffffffffffffffffffff00008560101b161717895583611bee575b85611b98575b86611b4c575b87611af6575b169687611ac5575b73ffffffffffffffffffffffffffffffffffffffff8916611a7e575b6080516118da575b506040519b8c5273ffffffffffffffffffffffffffffffffffffffff1660208c015260408b015260ff1660608a0152608089015260a088015260c087015260e086015273ffffffffffffffffffffffffffffffffffffffff1661010085015261012084016101409052608051610140850152608051906101608501376080518301610160015f905273ffffffffffffffffffffffffffffffffffffffff169180608051601f017fffffffffffffffffffffffffffffffffffffffffffffffffffffffffffffffe016810103610160017f3fcaf82260999b0a1a77f3006e142f8a15153ca131932b8b3b42ba67f44e02a391a45f808080808080808080808080808061171b565b67ffffffffffffffff60805111611128576118f860058201546114a5565b601f8111611a32575b505f601f60805111600114611965576005905f9060805161195a575b5060805160011b907fffffffffffffffffffffffffffffffffffffffffffffffffffffffffffffffff60805160031b1c1916179101555b5f6117d4565b90508b01355f61191d565b600582015f5260205f20905f5b8c7fffffffffffffffffffffffffffffffffffffffffffffffffffffffffffffffe0608051168210611a1a5750506080517fffffffffffffffffffffffffffffffffffffffffffffffffffffffffffffffe08116106119e0575b505060056001608051811b01910155611954565b7fffffffffffffffffffffffffffffffffffffffffffffffffffffffffffffffff60f860805160031b161c19908c01351690555f806119cc565b60018394602093948493013581550193019101611972565b600582015f5260205f20601f6080510160051c810191602060805110611a74575b601f0160051c01905b818110611a695750611901565b5f8155600101611a5c565b9091508190611a53565b6004810173ffffffffffffffffffffffffffffffffffffffff8a167fffffffffffffffffffffffff00000000000000000000000000000000000000008254161790556117cc565b60038101887fffffffffffffffffffffffff00000000000000000000000000000000000000008254161790556117b0565b611b47611b0289611da3565b60028b01906fffffffffffffffffffffffffffffffff7fffffffffffffffffffffffffffffffff0000000000000000000000000000000083549260801b169116179055565b6117a8565b611b5587611da3565b6fffffffffffffffffffffffffffffffff60028b0191167fffffffffffffffffffffffffffffffff000000000000000000000000000000008254161790556117a2565b611be9611ba487611da3565b60018b01906fffffffffffffffffffffffffffffffff7fffffffffffffffffffffffffffffffff0000000000000000000000000000000083549260801b169116179055565b61179c565b611bf784611da3565b6fffffffffffffffffffffffffffffffff60018b0191167fffffffffffffffffffffffffffffffff00000000000000000000000000000000825416179055611796565b73ffffffffffffffffffffffffffffffffffffffff909796939294959197604051602081019084825286604082015260408152611c78606082611171565b5190205f5260026020528660405f20551692835f52600160205260405f2073ffffffffffffffffffffffffffffffffffffffff89165f5260205260405f20855f5260205260405f20835f5260205260405f2097885498604051936040850185811067ffffffffffffffff82111761112857604052845260208401928352680100000000000000008a10156111285789611d1691600182018155611252565b949094611d77577f8ca934463363b9653ec99615768595e2f35a0b21bab215117cf38b4038882c4194600173ffffffffffffffffffffffffffffffffffffffff946060965183555191015560405196875260208701528860408701521693a4565b7f4e487b71000000000000000000000000000000000000000000000000000000005f525f60045260245ffd5b6fffffffffffffffffffffffffffffffff8111611dcf576fffffffffffffffffffffffffffffffff1690565b7f5e978e24000000000000000000000000000000000000000000000000000000005f5260045ffdfea264697066735822122000475b97055936c578e5a8562762db8205626730e96c73d7856597892b38eb2964736f6c634300081d0033",
  "devdoc": {
    "details": "The {SignatureStored} event is the only hook required by indexers; however, the contract is      fully functional without any off-chain infrastructure.",
    "errors": {
      "SignerAlreadySignedTransaction(address,bytes32)": [
        {
          "params": {
            "safeTxHash": "The EIP-712 hash of the Safe transaction.",
            "signer": "Signer address."
          }
        }
      ]
    },
    "events": {
      "NewTransaction(bytes32,address,uint256,uint256,address,uint256,uint8,uint256,uint256,uint256,address,address,bytes)": {
        "params": {
          "baseGas": "Fixed overhead reimbursed to the submitting signer.",
          "chainId": "Intended execution chain.",
          "data": "Calldata executed by the Safe.",
          "gasPrice": "Gas price used for reimbursement.",
          "gasToken": "ERC-20 token address for refunds.",
          "nonce": "Safe nonce.",
          "operation": "0 = CALL, 1 = DELEGATECALL.",
          "refundReceiver": "Address receiving the gas refund.",
          "safe": "Safe Smart-Account the transaction targets.",
          "safeTxGas": "Gas forwarded to the inner call.",
          "safeTxHash": "EIP-712 hash identifying the SafeTx.",
          "to": "Destination of the inner call/delegatecall.",
          "value": "ETH value forwarded by the Safe."
        }
      },
      "SignatureStored(address,address,bytes32,uint256,uint256,uint256)": {
        "params": {
          "chainId": "Intended execution chain.",
          "listIndex": "Position of the signature in the signer-specific array.",
          "nonce": "Safe nonce.",
          "safe": "Safe Smart-Account the transaction targets.",
          "safeTxHash": "EIP-712 hash identifying the SafeTx.",
          "signer": "Address recovered from the provided signature."
        }
      }
    },
    "kind": "dev",
    "methods": {
      "enqueueTransaction(address,uint256,uint256,address,uint256,bytes,uint8,uint256,uint256,uint256,address,address,bytes)": {
        "custom:events": "Emits {SignatureStored}.",
        "details": "If `safeTxHash` has been seen before, its parameters are *not* validated nor overwritten       the call simply appends the `(r,s)` pair for `signer`.",
        "params": {
          "baseGas": "Fixed overhead reimbursed to the submitting signer.",
          "chainId": "Chain id the transaction is meant for.",
          "data": "Calldata executed by the Safe.",
          "gasPrice": "Gas price used for reimbursement.",
          "gasToken": "ERC-20 token address for refunds (`address(0)` = ETH).",
          "nonce": "Safe nonce.",
          "operation": "0 = CALL, 1 = DELEGATECALL.",
          "refundReceiver": "Address receiving the gas refund.",
          "safeAddress": "Target Safe Smart-Account.",
          "safeTxGas": "Gas forwarded to the inner call.",
          "signature": "**Single** 65-byte ECDSA signature.",
          "to": "Destination of the inner call/delegatecall.",
          "value": "ETH value forwarded by the Safe."
        },
        "returns": {
          "listIndex": "    Index of the stored signature in the signer-specific list."
        }
      },
      "getNonce(address)": {
        "params": {
          "signer": "Address of the signer of the Safe transaction."
        },
        "returns": {
          "_0": "Nonce for the signer"
        }
      },
      "retrieveSignatures(address,address,uint256,uint256,uint256,uint256)": {
        "params": {
          "chainId": "Target chain id.",
          "count": "Maximum number of entries to return.",
          "nonce": "Safe nonce.",
          "safeAddress": "Safe Smart-Account.",
          "signerAddress": "Address that created the signatures.",
          "start": "Zero-based start index of the slice."
        },
        "returns": {
          "page": "      Array slice `[start  start+count)` (may be shorter).",
          "totalCount": "Total number of signatures stored for the tuple."
        }
      },
      "retrieveSignaturesCount(address,address,uint256,uint256)": {
        "params": {
          "chainId": "Target chain id.",
          "nonce": "Safe nonce.",
          "safeAddress": "Safe Smart-Account.",
          "signerAddress": "Signer address."
        },
        "returns": {
          "count": "Length of the signature list."
        }
      },
      "retrieveTransaction(bytes32)": {
        "params": {
          "safeTxHash": "EIP-712 digest of the transaction."
        },
        "returns": {
          "txParams": "Struct with all SafeTx parameters (zero-initialised if unknown)."
        }
      }
    },
    "title": "SafeInternationalHarbour",
    "version": 1
  },
  "userdoc": {
    "errors": {
      "InvalidECDSASignatureLength()": [
        {
          "notice": "Thrown when a signature blob is not exactly 65 bytes."
        }
      ],
      "InvalidSignature()": [
        {
          "notice": "Thrown if `ecrecover` yields `address(0)`."
        }
      ],
      "InvalidSignatureSValue()": [
        {
          "notice": "Thrown if the S value of the signature is not from the lower half of the curve."
        }
      ],
      "SignerAlreadySignedTransaction(address,bytes32)": [
        {
          "notice": "Thrown when attempting to store a signature for a transaction (safeTxHash) that the signer has already provided a signature for."
        }
      ],
      "ValueDoesNotFitInUint128()": [
        {
          "notice": "Thrown when a value doesn't fit in a uint128."
        }
      ]
    },
    "events": {
      "NewTransaction(bytes32,address,uint256,uint256,address,uint256,uint8,uint256,uint256,uint256,address,address,bytes)": {
        "notice": "Emitted when a transaction is first stored."
      },
      "SignatureStored(address,address,bytes32,uint256,uint256,uint256)": {
        "notice": "Emitted whenever a new signature is stored (and possibly the parameters on first sight)."
      }
    },
    "kind": "user",
    "methods": {
      "SUPPORTED_ENTRYPOINT()": {
        "notice": "The address of the EntryPoint contract supported by this module."
      },
      "enqueueTransaction(address,uint256,uint256,address,uint256,bytes,uint8,uint256,uint256,uint256,address,address,bytes)": {
        "notice": "Publish a Safe transaction and/or append a signature to it."
      },
      "getNonce(address)": {
        "notice": "Return the nonce for a specific signer."
      },
      "retrieveSignatures(address,address,uint256,uint256,uint256,uint256)": {
        "notice": "Paginated getter for signature entries."
      },
      "retrieveSignaturesCount(address,address,uint256,uint256)": {
        "notice": "Convenience getter returning the **number** of signatures stored for the key tuple."
      },
      "retrieveTransaction(bytes32)": {
        "notice": "Retrieve the full parameter set of a Safe transaction."
      }
    },
    "notice": "Permissionless, append-only registry that lets **any EOA signer** publish Safe         transactions (\"SafeTx\") and their signatures. Clients without an off-chain indexer can reconstruct the full multisig payload with only:         1. the Safe address;         2. the target `chainId`;         3. the Safe `nonce`; and         4. the current Safe owners set. Each unique `safeTxHash` (EIP-712 digest of the SafeTx struct) is persisted **once** together with its parameters. Signatures are appended under the composite key `(signer, safe, chainId, nonce)`, enabling on-chain, gas-efficient look-ups. ###  Contract-based signers unsupported Only ECDSA signatures from externally-owned accounts (EOAs) are supported. Contract wallets that rely on ERC-1271 or similar cannot be verified on-chain in a chain-agnostic way and are therefore **not supported**.",
    "version": 1
  },
  "storageLayout": {
    "storage": [
      {
        "astId": 3045,
        "contract": "src/SafeInternationalHarbour.sol:SafeInternationalHarbour",
        "label": "_txDetails",
        "offset": 0,
        "slot": "0",
        "type": "t_mapping(t_bytes32,t_struct(SafeTransaction)4036_storage)"
      },
      {
        "astId": 3062,
        "contract": "src/SafeInternationalHarbour.sol:SafeInternationalHarbour",
        "label": "_sigData",
        "offset": 0,
        "slot": "1",
        "type": "t_mapping(t_address,t_mapping(t_address,t_mapping(t_uint256,t_mapping(t_uint256,t_array(t_struct(SignatureData)3050_storage)dyn_storage))))"
      },
      {
        "astId": 3066,
        "contract": "src/SafeInternationalHarbour.sol:SafeInternationalHarbour",
        "label": "_signatureLink",
        "offset": 0,
        "slot": "2",
        "type": "t_mapping(t_bytes32,t_bytes32)"
      }
    ],
    "types": {
      "t_address": {
        "encoding": "inplace",
        "label": "address",
        "numberOfBytes": "20"
      },
      "t_array(t_struct(SignatureData)3050_storage)dyn_storage": {
        "base": "t_struct(SignatureData)3050_storage",
        "encoding": "dynamic_array",
        "label": "struct SafeInternationalHarbour.SignatureData[]",
        "numberOfBytes": "32"
      },
      "t_bool": {
        "encoding": "inplace",
        "label": "bool",
        "numberOfBytes": "1"
      },
      "t_bytes32": {
        "encoding": "inplace",
        "label": "bytes32",
        "numberOfBytes": "32"
      },
      "t_bytes_storage": {
        "encoding": "bytes",
        "label": "bytes",
        "numberOfBytes": "32"
      },
      "t_mapping(t_address,t_mapping(t_address,t_mapping(t_uint256,t_mapping(t_uint256,t_array(t_struct(SignatureData)3050_storage)dyn_storage))))": {
        "encoding": "mapping",
        "key": "t_address",
        "label": "mapping(address => mapping(address => mapping(uint256 => mapping(uint256 => struct SafeInternationalHarbour.SignatureData[]))))",
        "numberOfBytes": "32",
        "value": "t_mapping(t_address,t_mapping(t_uint256,t_mapping(t_uint256,t_array(t_struct(SignatureData)3050_storage)dyn_storage)))"
      },
      "t_mapping(t_address,t_mapping(t_uint256,t_mapping(t_uint256,t_array(t_struct(SignatureData)3050_storage)dyn_storage)))": {
        "encoding": "mapping",
        "key": "t_address",
        "label": "mapping(address => mapping(uint256 => mapping(uint256 => struct SafeInternationalHarbour.SignatureData[])))",
        "numberOfBytes": "32",
        "value": "t_mapping(t_uint256,t_mapping(t_uint256,t_array(t_struct(SignatureData)3050_storage)dyn_storage))"
      },
      "t_mapping(t_bytes32,t_bytes32)": {
        "encoding": "mapping",
        "key": "t_bytes32",
        "label": "mapping(bytes32 => bytes32)",
        "numberOfBytes": "32",
        "value": "t_bytes32"
      },
      "t_mapping(t_bytes32,t_struct(SafeTransaction)4036_storage)": {
        "encoding": "mapping",
        "key": "t_bytes32",
        "label": "mapping(bytes32 => struct SafeTransaction)",
        "numberOfBytes": "32",
        "value": "t_struct(SafeTransaction)4036_storage"
      },
      "t_mapping(t_uint256,t_array(t_struct(SignatureData)3050_storage)dyn_storage)": {
        "encoding": "mapping",
        "key": "t_uint256",
        "label": "mapping(uint256 => struct SafeInternationalHarbour.SignatureData[])",
        "numberOfBytes": "32",
        "value": "t_array(t_struct(SignatureData)3050_storage)dyn_storage"
      },
      "t_mapping(t_uint256,t_mapping(t_uint256,t_array(t_struct(SignatureData)3050_storage)dyn_storage))": {
        "encoding": "mapping",
        "key": "t_uint256",
        "label": "mapping(uint256 => mapping(uint256 => struct SafeInternationalHarbour.SignatureData[]))",
        "numberOfBytes": "32",
        "value": "t_mapping(t_uint256,t_array(t_struct(SignatureData)3050_storage)dyn_storage)"
      },
      "t_struct(SafeTransaction)4036_storage": {
        "encoding": "inplace",
        "label": "struct SafeTransaction",
        "members": [
          {
            "astId": 4017,
            "contract": "src/SafeInternationalHarbour.sol:SafeInternationalHarbour",
            "label": "stored",
            "offset": 0,
            "slot": "0",
            "type": "t_bool"
          },
          {
            "astId": 4019,
            "contract": "src/SafeInternationalHarbour.sol:SafeInternationalHarbour",
            "label": "operation",
            "offset": 1,
            "slot": "0",
            "type": "t_uint8"
          },
          {
            "astId": 4021,
            "contract": "src/SafeInternationalHarbour.sol:SafeInternationalHarbour",
            "label": "to",
            "offset": 2,
            "slot": "0",
            "type": "t_address"
          },
          {
            "astId": 4023,
            "contract": "src/SafeInternationalHarbour.sol:SafeInternationalHarbour",
            "label": "value",
            "offset": 0,
            "slot": "1",
            "type": "t_uint128"
          },
          {
            "astId": 4025,
            "contract": "src/SafeInternationalHarbour.sol:SafeInternationalHarbour",
            "label": "safeTxGas",
            "offset": 16,
            "slot": "1",
            "type": "t_uint128"
          },
          {
            "astId": 4027,
            "contract": "src/SafeInternationalHarbour.sol:SafeInternationalHarbour",
            "label": "baseGas",
            "offset": 0,
            "slot": "2",
            "type": "t_uint128"
          },
          {
            "astId": 4029,
            "contract": "src/SafeInternationalHarbour.sol:SafeInternationalHarbour",
            "label": "gasPrice",
            "offset": 16,
            "slot": "2",
            "type": "t_uint128"
          },
          {
            "astId": 4031,
            "contract": "src/SafeInternationalHarbour.sol:SafeInternationalHarbour",
            "label": "gasToken",
            "offset": 0,
            "slot": "3",
            "type": "t_address"
          },
          {
            "astId": 4033,
            "contract": "src/SafeInternationalHarbour.sol:SafeInternationalHarbour",
            "label": "refundReceiver",
            "offset": 0,
            "slot": "4",
            "type": "t_address"
          },
          {
            "astId": 4035,
            "contract": "src/SafeInternationalHarbour.sol:SafeInternationalHarbour",
            "label": "data",
            "offset": 0,
            "slot": "5",
            "type": "t_bytes_storage"
          }
        ],
        "numberOfBytes": "192"
      },
      "t_struct(SignatureData)3050_storage": {
        "encoding": "inplace",
        "label": "struct SafeInternationalHarbour.SignatureData",
        "members": [
          {
            "astId": 3047,
            "contract": "src/SafeInternationalHarbour.sol:SafeInternationalHarbour",
            "label": "r",
            "offset": 0,
            "slot": "0",
            "type": "t_bytes32"
          },
          {
            "astId": 3049,
            "contract": "src/SafeInternationalHarbour.sol:SafeInternationalHarbour",
            "label": "vs",
            "offset": 0,
            "slot": "1",
            "type": "t_bytes32"
          }
        ],
        "numberOfBytes": "64"
      },
      "t_uint128": {
        "encoding": "inplace",
        "label": "uint128",
        "numberOfBytes": "16"
      },
      "t_uint256": {
        "encoding": "inplace",
        "label": "uint256",
        "numberOfBytes": "32"
      },
      "t_uint8": {
        "encoding": "inplace",
        "label": "uint8",
        "numberOfBytes": "1"
      }
    }
  }
}