{
  "address": "0x86f88777c6De078DA0F2d65f30C815FAcEeEd543",
  "abi": [
    {
      "inputs": [],
      "name": "InvalidECDSASignatureLength",
      "type": "error"
    },
    {
      "inputs": [],
      "name": "InvalidSignature",
      "type": "error"
    },
    {
      "inputs": [],
      "name": "InvalidSignatureSValue",
      "type": "error"
    },
    {
      "inputs": [],
      "name": "NothingToEnqueue",
      "type": "error"
    },
    {
      "inputs": [
        {
          "internalType": "address",
          "name": "signer",
          "type": "address"
        },
        {
          "internalType": "bytes32",
          "name": "safeTxHash",
          "type": "bytes32"
        }
      ],
      "name": "SignerAlreadySignedTransaction",
      "type": "error"
    },
    {
      "inputs": [
        {
          "internalType": "address",
          "name": "recoveredSigner",
          "type": "address"
        }
      ],
      "name": "UnexpectedSigner",
      "type": "error"
    },
    {
      "anonymous": false,
      "inputs": [
        {
          "indexed": true,
          "internalType": "address",
          "name": "signer",
          "type": "address"
        },
        {
          "indexed": false,
          "internalType": "bytes32",
          "name": "context",
          "type": "bytes32"
        },
        {
          "indexed": false,
          "internalType": "bytes32",
          "name": "publicKey",
          "type": "bytes32"
        }
      ],
      "name": "EncryptionKeyRegistered",
      "type": "event"
    },
    {
      "anonymous": false,
      "inputs": [
        {
          "indexed": true,
          "internalType": "bytes32",
          "name": "uid",
          "type": "bytes32"
        },
        {
          "indexed": true,
          "internalType": "bytes32",
          "name": "safeTxHash",
          "type": "bytes32"
        },
        {
          "indexed": false,
          "internalType": "bytes",
          "name": "encryptionBlob",
          "type": "bytes"
        }
      ],
      "name": "SafeTransactionRegistered",
      "type": "event"
    },
    {
      "anonymous": false,
      "inputs": [
        {
          "indexed": true,
          "internalType": "address",
          "name": "signer",
          "type": "address"
        },
        {
          "indexed": true,
          "internalType": "bytes32",
          "name": "safeTxHash",
          "type": "bytes32"
        },
        {
          "indexed": false,
          "internalType": "bytes",
          "name": "signature",
          "type": "bytes"
        }
      ],
      "name": "SafeTransactionSigned",
      "type": "event"
    },
    {
      "inputs": [
        {
          "internalType": "uint256",
          "name": "chainId",
          "type": "uint256"
        },
        {
          "internalType": "address",
          "name": "safe",
          "type": "address"
        },
        {
          "internalType": "uint256",
          "name": "nonce",
          "type": "uint256"
        },
        {
          "internalType": "bytes32",
          "name": "safeTxStructHash",
          "type": "bytes32"
        },
        {
          "internalType": "bytes",
          "name": "signature",
          "type": "bytes"
        },
        {
          "internalType": "bytes",
          "name": "encryptionBlob",
          "type": "bytes"
        }
      ],
      "name": "enqueueTransaction",
      "outputs": [
        {
          "internalType": "bytes32",
          "name": "uid",
          "type": "bytes32"
        }
      ],
      "stateMutability": "nonpayable",
      "type": "function"
    },
    {
      "inputs": [
        {
          "internalType": "bytes32",
          "name": "context",
          "type": "bytes32"
        },
        {
          "internalType": "bytes32",
          "name": "publicKey",
          "type": "bytes32"
        }
      ],
      "name": "registerEncryptionKey",
      "outputs": [],
      "stateMutability": "nonpayable",
      "type": "function"
    },
    {
      "inputs": [
        {
          "internalType": "address",
          "name": "signer",
          "type": "address"
        },
        {
          "internalType": "bytes32",
          "name": "context",
          "type": "bytes32"
        },
        {
          "internalType": "bytes32",
          "name": "publicKey",
          "type": "bytes32"
        },
        {
          "internalType": "bytes",
          "name": "signature",
          "type": "bytes"
        }
      ],
      "name": "registerEncryptionKeyFor",
      "outputs": [],
      "stateMutability": "nonpayable",
      "type": "function"
    },
    {
      "inputs": [
        {
          "internalType": "address",
          "name": "signer",
          "type": "address"
        }
      ],
      "name": "retrieveEncryptionKey",
      "outputs": [
        {
          "components": [
            {
              "internalType": "bytes32",
              "name": "context",
              "type": "bytes32"
            },
            {
              "internalType": "bytes32",
              "name": "publicKey",
              "type": "bytes32"
            }
          ],
          "internalType": "struct EncryptionKey",
          "name": "encryptionKey",
          "type": "tuple"
        }
      ],
      "stateMutability": "view",
      "type": "function"
    },
    {
      "inputs": [
        {
          "internalType": "address[]",
          "name": "signers",
          "type": "address[]"
        }
      ],
      "name": "retrieveEncryptionPublicKeys",
      "outputs": [
        {
          "internalType": "bytes32[]",
          "name": "publicKeys",
          "type": "bytes32[]"
        }
      ],
      "stateMutability": "view",
      "type": "function"
    },
    {
      "inputs": [
        {
          "internalType": "uint256",
          "name": "chainId",
          "type": "uint256"
        },
        {
          "internalType": "address",
          "name": "safe",
          "type": "address"
        },
        {
          "internalType": "uint256",
          "name": "nonce",
          "type": "uint256"
        },
        {
          "internalType": "address",
          "name": "notary",
          "type": "address"
        }
      ],
      "name": "retrieveRegistrationCount",
      "outputs": [
        {
          "internalType": "uint256",
          "name": "count",
          "type": "uint256"
        }
      ],
      "stateMutability": "view",
      "type": "function"
    },
    {
      "inputs": [
        {
          "internalType": "uint256",
          "name": "chainId",
          "type": "uint256"
        },
        {
          "internalType": "address",
          "name": "safe",
          "type": "address"
        },
        {
          "internalType": "uint256",
          "name": "nonce",
          "type": "uint256"
        },
        {
          "internalType": "address",
          "name": "notary",
          "type": "address"
        },
        {
          "internalType": "uint256",
          "name": "start",
          "type": "uint256"
        },
        {
          "internalType": "uint256",
          "name": "count",
          "type": "uint256"
        }
      ],
      "name": "retrieveRegistrations",
      "outputs": [
        {
          "components": [
            {
              "internalType": "uint256",
              "name": "blockNumber",
              "type": "uint256"
            },
            {
              "internalType": "bytes32",
              "name": "uid",
              "type": "bytes32"
            }
          ],
          "internalType": "struct SafeTransactionRegistrationHandle[]",
          "name": "page",
          "type": "tuple[]"
        },
        {
          "internalType": "uint256",
          "name": "totalCount",
          "type": "uint256"
        }
      ],
      "stateMutability": "view",
      "type": "function"
    },
    {
      "inputs": [
        {
          "internalType": "address[]",
          "name": "signers",
          "type": "address[]"
        },
        {
          "internalType": "bytes32",
          "name": "safeTxHash",
          "type": "bytes32"
        }
      ],
      "name": "retrieveSignatures",
      "outputs": [
        {
          "internalType": "uint256[]",
          "name": "blockNumbers",
          "type": "uint256[]"
        }
      ],
      "stateMutability": "view",
      "type": "function"
    },
    {
      "inputs": [
        {
          "internalType": "bytes4",
          "name": "interfaceId",
          "type": "bytes4"
        }
      ],
      "name": "supportsInterface",
      "outputs": [
        {
          "internalType": "bool",
          "name": "",
          "type": "bool"
        }
      ],
      "stateMutability": "pure",
      "type": "function"
    }
  ],
  "transactionHash": "0x8d84effaa31bd40085d9cac9bb1303667423fa10e5bdc2400580bc44ab1556f0",
  "args": [],
  "numDeployments": 1,
  "solcInputHash": "1323d7053fecd1479c9fca03c99a339c",
  "bytecode": "0x60808060405234601557611156908161001a8239f35b5f80fdfe6080806040526004361015610012575f80fd5b5f3560e01c90816301ffc9a714610ae05750806364d40d16146108c35780636aa021311461083d57806378465c5e146106d0578063a5b347db14610594578063beb680f714610281578063ed51bdbd1461014d578063f24e49a8146100c35763f9022c291461007f575f80fd5b346100bf5760407ffffffffffffffffffffffffffffffffffffffffffffffffffffffffffffffffc3601126100bf576100bd6024356004353361101b565b005b5f80fd5b346100bf5760207ffffffffffffffffffffffffffffffffffffffffffffffffffffffffffffffffc3601126100bf5773ffffffffffffffffffffffffffffffffffffffff61010f610be2565b610117610cd9565b50165f525f6020526040805f20815161012f81610c64565b60206001835493848452015491019081528251918252516020820152f35b346100bf5760207ffffffffffffffffffffffffffffffffffffffffffffffffffffffffffffffffc3601126100bf5760043567ffffffffffffffff81116100bf5761019c903690600401610c33565b6101a581610cc1565b916101b36040519384610c80565b8183526101bf82610cc1565b917fffffffffffffffffffffffffffffffffffffffffffffffffffffffffffffffe06020850193013684375f5b818110610237578385604051918291602083019060208452518091526040830191905f5b81811061021e575050500390f35b8251845285945060209384019390920191600101610210565b8073ffffffffffffffffffffffffffffffffffffffff61026261025d6001948688610d32565b610d42565b165f525f6020528160405f20015461027a8288610cf1565b52016101ec565b346100bf5760c07ffffffffffffffffffffffffffffffffffffffffffffffffffffffffffffffffc3601126100bf576004356102bb610b9c565b60843567ffffffffffffffff81116100bf576102db903690600401610c05565b60a49291923567ffffffffffffffff81116100bf576102fe903690600401610c05565b9290945f948484171561056c57610375604051602081017f47e79534a245952e8b16893a336b85a3d9ea9fa8c573f3d803afb92a79469218815284604083015273ffffffffffffffffffffffffffffffffffffffff8616606083015260608252610369608083610c80565b606435915190206110d4565b93806104a7575b50508361038f575b602085604051908152f35b6103b8929394503391604435608093916040519384526020840152604083015260608201522090565b92835f52600160205260405f2080549467ffffffffffffffff861691600183019667ffffffffffffffff4389171161049557602097600385101561044c57600190439060061b1b91011790555b5f5284527f91e8532b65f3b9d750bfc0e0879965927e9fdc2e36d77ccf93cc55312a443e1160405f209384926104406040519283928361108f565b0390a382808080610384565b506001907ffffffffffffffffffffffffffffffffffffffffffffffffffffffffffffffffd8501835f528060021c8a5f20019060c0439160061b161b8154179055019055610405565b634e487b715f5260116020526024601cfd5b73ffffffffffffffffffffffffffffffffffffffff6104c7828488610ee6565b50501691825f52600260205260405f20865f5260205260405f205461053c5782917f359c43a08133079178a2470d20af22008b6117e43782f815330a431ce2ed57209187945f52600260205260405f20855f526020524360405f20556105326040519283928361108f565b0390a3868061037c565b85837f41e3e888000000000000000000000000000000000000000000000000000000005f5260045260245260445ffd5b7f3f51f097000000000000000000000000000000000000000000000000000000005f5260045ffd5b346100bf5760407ffffffffffffffffffffffffffffffffffffffffffffffffffffffffffffffffc3601126100bf5760043567ffffffffffffffff81116100bf576105e3903690600401610c33565b602435916105f082610cc1565b926105fe6040519485610c80565b82845261060a83610cc1565b927fffffffffffffffffffffffffffffffffffffffffffffffffffffffffffffffe06020860194013685375f5b818110610682578486604051918291602083019060208452518091526040830191905f5b818110610669575050500390f35b825184528594506020938401939092019160010161065b565b8073ffffffffffffffffffffffffffffffffffffffff6106a861025d6001948689610d32565b165f52600260205260405f20845f5260205260405f20546106c98289610cf1565b5201610637565b346100bf5760807ffffffffffffffffffffffffffffffffffffffffffffffffffffffffffffffffc3601126100bf57610707610be2565b60443560243560643567ffffffffffffffff81116100bf576107e661074573ffffffffffffffffffffffffffffffffffffffff923690600401610c05565b906107e160405160208101907f6268546d6d3d3a16ed8cfd22f4fe09a1d17f9af43838183ba533d41e284cf32682523060408201524660608201526060815261078f608082610c80565b51902060405160208101907fc61c2d0b1f1942c20e1ecd68ca0337b62afaa25024fc73f2aad19b5696efb3138252886040820152896060820152606081526107d8608082610c80565b519020906110d4565b610ee6565b5050169273ffffffffffffffffffffffffffffffffffffffff81168403610811576100bd935061101b565b837fa150e3da000000000000000000000000000000000000000000000000000000005f5260045260245ffd5b346100bf5760807ffffffffffffffffffffffffffffffffffffffffffffffffffffffffffffffffc3601126100bf576108a3610877610b9c565b61087f610bbf565b60408051600435815260208101939093526044359083015260608201526080902090565b5f526001602052602067ffffffffffffffff60405f205416604051908152f35b346100bf5760c07ffffffffffffffffffffffffffffffffffffffffffffffffffffffffffffffffc3601126100bf576108fa610b9c565b610902610bbf565b6040805160043581526020810193909352604435908301526060820152608090206084359060a435815f52600160205260405f209160405160a0810181811067ffffffffffffffff821117610ab357604052602081019267ffffffffffffffff6040830195808452548086521690818652600360608401526001608084015261098b8784610e4b565b80865111610aab575b508451917fffffffffffffffffffffffffffffffffffffffffffffffffffffffffffffffe06109db6109c585610cc1565b946109d36040519687610c80565b808652610cc1565b015f5b818110610a885750505f5b8651156109f583610d63565b610a3257600181610a096109f59387610cf1565b5167ffffffffffffffff8951168152875f52818b01602052602060405f209101520190506109e9565b828460405190604082019260408352815180945260206060840192015f945b808610610a6657505082935060208301520390f35b9092602060406001928287518051835201518382015201940195019490610a51565b602090604051610a9781610c64565b5f81525f83820152828288010152016109de565b855286610994565b7f4e487b71000000000000000000000000000000000000000000000000000000005f52604160045260245ffd5b346100bf5760207ffffffffffffffffffffffffffffffffffffffffffffffffffffffffffffffffc3601126100bf57600435907fffffffff0000000000000000000000000000000000000000000000000000000082168092036100bf57817f01ffc9a70000000000000000000000000000000000000000000000000000000060209314908115610b72575b5015158152f35b7fe18a4e580000000000000000000000000000000000000000000000000000000091501483610b6b565b6024359073ffffffffffffffffffffffffffffffffffffffff821682036100bf57565b6064359073ffffffffffffffffffffffffffffffffffffffff821682036100bf57565b6004359073ffffffffffffffffffffffffffffffffffffffff821682036100bf57565b9181601f840112156100bf5782359167ffffffffffffffff83116100bf57602083818601950101116100bf57565b9181601f840112156100bf5782359167ffffffffffffffff83116100bf576020808501948460051b0101116100bf57565b6040810190811067ffffffffffffffff821117610ab357604052565b90601f7fffffffffffffffffffffffffffffffffffffffffffffffffffffffffffffffe0910116810190811067ffffffffffffffff821117610ab357604052565b67ffffffffffffffff8111610ab35760051b60200190565b60405190610ce682610c64565b5f6020838281520152565b8051821015610d055760209160051b010190565b7f4e487b71000000000000000000000000000000000000000000000000000000005f52603260045260245ffd5b9190811015610d055760051b0190565b3573ffffffffffffffffffffffffffffffffffffffff811681036100bf5790565b604081016001815110610e455780517fffffffffffffffffffffffffffffffffffffffffffffffffffffffffffffffff01905260608101805190919060018110610dda5750602001805160401c90527fffffffffffffffffffffffffffffffffffffffffffffffffffffffffffffffff8151019052565b916003602092936001038060021c60808601805115155f14610e37575f91868820018752525b16908160040390527fffffffffffffffffffffffffffffffffffffffffffffffffffffffffffffffff835154910160061b1c910152565b508551016001018552610e00565b5f915052565b906040820181815110610edf5781815103905260608201918251828110155f14610e83575060200180518260061b1c90528151039052565b600390602093949294038060021c60808601805115155f14610e37575f918688200187525216908160040390527fffffffffffffffffffffffffffffffffffffffffffffffffffffffffffffffff835154910160061b1c910152565b5f90525050565b929091604103610ff357813591604060208201359101355f1a937f7fffffffffffffffffffffffffffffff5d576e7357a4501ddfe92f46681b20a08211610fcb575f6080602092604051908152878482015286604082015284606082015282805260015afa15610fc0575f519373ffffffffffffffffffffffffffffffffffffffff851615610f98577fffffffffffffffffffffffffffffffffffffffffffffffffffffffffffffffe50160ff1b1790565b7f8baa579f000000000000000000000000000000000000000000000000000000005f5260045ffd5b6040513d5f823e3d90fd5b7f617cf474000000000000000000000000000000000000000000000000000000005f5260045ffd5b7f85e6258e000000000000000000000000000000000000000000000000000000005f5260045ffd5b917f1fd34304e8383f1f1847b03c9e21612ffd92ab1bd59028ab29cb5cc1d79220f191604091825161104c81610c64565b828152600173ffffffffffffffffffffffffffffffffffffffff60208301978489521696875f525f602052855f20925183555191015582519182526020820152a2565b90601f836040947fffffffffffffffffffffffffffffffffffffffffffffffffffffffffffffffe09360208652816020870152868601375f8582860101520116010190565b906040519060208201927f19010000000000000000000000000000000000000000000000000000000000008452602283015260428201526042815261111a606282610c80565b5190209056fea2646970667358221220641be88563c986734d7385749c7b17a20fe0e2b61124b7d59e48fb46d1baf84064736f6c634300081d0033",
  "devdoc": {
    "errors": {
      "SignerAlreadySignedTransaction(address,bytes32)": [
        {
          "params": {
            "safeTxHash": "The EIP-712 hash of the Safe transaction.",
            "signer": "Signer address."
          }
        }
      ]
    },
    "events": {
      "EncryptionKeyRegistered(address,bytes32,bytes32)": {
        "params": {
          "context": "A 32-byte contract associated with the encryption key.",
          "publicKey": "A 32-byte encryption public key.",
          "signer": "The signer for which the key was registered."
        }
      },
      "SafeTransactionRegistered(bytes32,bytes32,bytes)": {
        "params": {
          "encryptionBlob": "A blob containing encrypted transaction data. This can either be the                       encrypted transaction itself, or additional encrypted keys to new signer                       public keys. The exact format is not enforced and application dependent.                       The reference implementation uses JWE to encrypt the RLP-encoded Safe                       transaction with A256-GCM encryption, and ECDH-ES+A256KW for wrapping the                       encryption keys for recipients' X25519 public keys.",
          "safeTxHash": "EIP-712 hash identifying the Safe transaction.",
          "uid": "A unique registration identifier that can be used for event filtering."
        }
      },
      "SafeTransactionSigned(address,bytes32,bytes)": {
        "params": {
          "safeTxHash": "The Safe transaction hash that was signed.",
          "signature": "The Safe transaction signature.",
          "signer": "The signer address."
        }
      }
    },
    "kind": "dev",
    "methods": {
      "enqueueTransaction(uint256,address,uint256,bytes32,bytes,bytes)": {
        "custom:events": "Emits {SafeTransactionSigned} and {SafeTransactionRegistered}.",
        "details": "This function serves two purposes:      1. To register Safe transaction encryption data      2. To add signatures to a Safe transaction",
        "params": {
          "chainId": "Chain id the transaction is meant for.",
          "encryptionBlob": "A blob containing encrypted transaction data. This can either be the                         encrypted transaction itself, or additional encrypted keys to new                         signer public keys. The exact format is not enforced and application                         dependent. There are no guarantees that the blob actually matches the                         provided `safeTxStructHash`. The reference implementation uses JWE to                         encrypt the RLP-encoded Safe transaction with key wrapping for the                         recipients' X25519 public keys. _Optional_: can be omitted to                         register a signature without any new encrypted transaction data.",
          "nonce": "Safe nonce.",
          "safe": "Target Safe Smart-Account.",
          "safeTxStructHash": "The ERC-712 struct hash of the Safe transaction data.",
          "signature": "A 65-byte ECDSA signature. _Optional_: can be omitted to register                         new encrypted transaction data without a signature."
        },
        "returns": {
          "uid": "            The unique signer-specific identifer of the transaction registration.                         Zero if `encryptionBlob` is empty."
        }
      },
      "registerEncryptionKey(bytes32,bytes32)": {
        "params": {
          "context": "A 32-byte context specific to the public encryption key.",
          "publicKey": "The public encryption key to be registered for the `msg.sender` signer."
        }
      },
      "registerEncryptionKeyFor(address,bytes32,bytes32,bytes)": {
        "params": {
          "context": "A 32-byte context specific to the public encryption key.",
          "publicKey": "The public encryption key to be registered for the `signer`.",
          "signature": "The ECDSA signature of the `signer` over the encryption key registration.",
          "signer": "The signer to register the encryption key for."
        }
      },
      "retrieveEncryptionKey(address)": {
        "params": {
          "signer": "The signer to fetch encryption keys for."
        },
        "returns": {
          "encryptionKey": "The registered encryption key."
        }
      },
      "retrieveEncryptionPublicKeys(address[])": {
        "params": {
          "signers": "The list of signers to fetch encryption keys for."
        },
        "returns": {
          "publicKeys": "The encryption public keys for each of the signers, or `0` if none was                    registered. The keys are in the same order as the signers array (i.e. for                    all `i`, the key for `signer[i]` is `publicKey[i]`)."
        }
      },
      "retrieveRegistrationCount(uint256,address,uint256,address)": {
        "params": {
          "chainId": "Target chain id.",
          "nonce": "Safe nonce.",
          "notary": "Notary address.",
          "safe": "Safe Smart-Account."
        },
        "returns": {
          "count": " Number of registrations."
        }
      },
      "retrieveRegistrations(uint256,address,uint256,address,uint256,uint256)": {
        "details": "Note that this function does not return the full registered transaction directly, but      a unique identifier and block number that can be used to query an log with the full      transaction details.",
        "params": {
          "chainId": "Target chain id.",
          "count": "Maximum number of entries to return.",
          "nonce": "Safe nonce.",
          "notary": "Address that registered ecrypted transaction data.",
          "safe": "Safe Smart-Account.",
          "start": "Zero-based start index of the slice."
        },
        "returns": {
          "page": "      Array slice `[start  start+count)` (may be shorter).",
          "totalCount": "Total number of registrations for the `(chainId, safe, nonce, signer)`                    tuple."
        }
      },
      "retrieveSignatures(address[],bytes32)": {
        "details": "Note that this function does not return the signature directly, the block number that      can be used to query an log with the signature bytes.",
        "params": {
          "safeTxHash": "ERC-712 digest of the transaction",
          "signers": "The signer addresses."
        },
        "returns": {
          "blockNumbers": "The block numbers containing the Safe transaction signature events for                      the specified signers and Safe transaction hash."
        }
      }
    },
    "stateVariables": {
      "_encryptionKeys": {
        "details": "Mapping of signers to their encryption keys."
      },
      "_registrations": {
        "details": "Mapping of registration key to an array of block numbers where a Safe transaction was      registered with the harbour.      Note that the same Safe transaction can be registered **multiple times** with harbour.      This is important to allow appending additional encryption data (such as new wrapped      encryption keys for signers that either rotated or registered their public encryption      key after the initial transaction submission."
      },
      "_signatures": {
        "details": "Mapping per signer from Safe transaction hashes to the block in which a signature was      registered."
      }
    },
    "title": "Safe Secret Harbour",
    "version": 1
  },
  "userdoc": {
    "errors": {
      "InvalidECDSASignatureLength()": [
        {
          "notice": "Thrown when a signature blob is not exactly 65 bytes."
        }
      ],
      "InvalidSignature()": [
        {
          "notice": "Thrown if `ecrecover` yields `address(0)`."
        }
      ],
      "InvalidSignatureSValue()": [
        {
          "notice": "Thrown if the S value of the signature is not from the lower half of the curve."
        }
      ],
      "NothingToEnqueue()": [
        {
          "notice": "Thrown when attempting to enqueue nothing. That is, when calling `enqueueTransaction` on         the {SafeSecretHarbour} with empty `signature` and `encryptionBlob`."
        }
      ],
      "SignerAlreadySignedTransaction(address,bytes32)": [
        {
          "notice": "Thrown when attempting to store a signature for a transaction (safeTxHash) that the signer has already provided a signature for."
        }
      ]
    },
    "events": {
      "EncryptionKeyRegistered(address,bytes32,bytes32)": {
        "notice": "Emitted whenever an encryption key is registered for a signer."
      },
      "SafeTransactionRegistered(bytes32,bytes32,bytes)": {
        "notice": "Emitted whenever a signed encrypted Safe transaction is registered."
      },
      "SafeTransactionSigned(address,bytes32,bytes)": {
        "notice": "Emitted when a Safe transaction is signed."
      }
    },
    "kind": "user",
    "methods": {
      "enqueueTransaction(uint256,address,uint256,bytes32,bytes,bytes)": {
        "notice": "Register an encrypted Safe transaction and signature."
      },
      "registerEncryptionKey(bytes32,bytes32)": {
        "notice": "Register a public encryption key for a signer."
      },
      "registerEncryptionKeyFor(address,bytes32,bytes32,bytes)": {
        "notice": "Register a public encryption key on behalf of a signer."
      },
      "retrieveEncryptionKey(address)": {
        "notice": "Retrieves the encryption keys for a signer."
      },
      "retrieveEncryptionPublicKeys(address[])": {
        "notice": "Retrieves encryption public keys for the specified signers."
      },
      "retrieveRegistrationCount(uint256,address,uint256,address)": {
        "notice": "Convenience getter returning the **number** of registrations stored for a specific         `(chainId, safe, nonce, notary)` tuple."
      },
      "retrieveRegistrations(uint256,address,uint256,address,uint256,uint256)": {
        "notice": "Paginated getter for Safe transaction registrations."
      },
      "retrieveSignatures(address[],bytes32)": {
        "notice": "Retrieve Safe transaction signatures for the specified signers."
      }
    },
    "notice": "Permissionless, append-only registry that lets **any EOA signer** publish encrypted Safe         transactions (\"SafeTx\") and their signatures. Clients without an off-chain indexer can         reconstruct the full multisig payload with only:         1. the Safe address;         2. the target `chainId`;         3. the Safe `nonce`;         4. the current Safe owners set; and         5. a key to decrypt the transaction payload.         Each unique `safeTxHash` (ERC-712 digest of the SafeTx struct) may be registered more         than once, to allow rotating the encryption.         Additionally, this contract contains a public encryption key registry, and functions as         a trustless channel for signers to communicate public encryption keys amongst themselves         in order to support asymmetric encryption schemes of the transaction data.",
    "version": 1
  },
  "storageLayout": {
    "storage": [
      {
        "astId": 2990,
        "contract": "src/SafeSecretHarbour.sol:SafeSecretHarbour",
        "label": "_encryptionKeys",
        "offset": 0,
        "slot": "0",
        "type": "t_mapping(t_address,t_struct(EncryptionKey)3981_storage)"
      },
      {
        "astId": 2997,
        "contract": "src/SafeSecretHarbour.sol:SafeSecretHarbour",
        "label": "_registrations",
        "offset": 0,
        "slot": "1",
        "type": "t_mapping(t_userDefinedValueType(T)4956,t_struct(T)3994_storage)"
      },
      {
        "astId": 3004,
        "contract": "src/SafeSecretHarbour.sol:SafeSecretHarbour",
        "label": "_signatures",
        "offset": 0,
        "slot": "2",
        "type": "t_mapping(t_address,t_mapping(t_bytes32,t_uint256))"
      }
    ],
    "types": {
      "t_address": {
        "encoding": "inplace",
        "label": "address",
        "numberOfBytes": "20"
      },
      "t_bytes32": {
        "encoding": "inplace",
        "label": "bytes32",
        "numberOfBytes": "32"
      },
      "t_mapping(t_address,t_mapping(t_bytes32,t_uint256))": {
        "encoding": "mapping",
        "key": "t_address",
        "label": "mapping(address => mapping(bytes32 => uint256))",
        "numberOfBytes": "32",
        "value": "t_mapping(t_bytes32,t_uint256)"
      },
      "t_mapping(t_address,t_struct(EncryptionKey)3981_storage)": {
        "encoding": "mapping",
        "key": "t_address",
        "label": "mapping(address => struct EncryptionKey)",
        "numberOfBytes": "32",
        "value": "t_struct(EncryptionKey)3981_storage"
      },
      "t_mapping(t_bytes32,t_uint256)": {
        "encoding": "mapping",
        "key": "t_bytes32",
        "label": "mapping(bytes32 => uint256)",
        "numberOfBytes": "32",
        "value": "t_uint256"
      },
      "t_mapping(t_userDefinedValueType(T)4956,t_struct(T)3994_storage)": {
        "encoding": "mapping",
        "key": "t_userDefinedValueType(T)4956",
        "label": "mapping(RegistrationKey.T => struct BlockNumbers.T)",
        "numberOfBytes": "32",
        "value": "t_struct(T)3994_storage"
      },
      "t_struct(EncryptionKey)3981_storage": {
        "encoding": "inplace",
        "label": "struct EncryptionKey",
        "members": [
          {
            "astId": 3978,
            "contract": "src/SafeSecretHarbour.sol:SafeSecretHarbour",
            "label": "context",
            "offset": 0,
            "slot": "0",
            "type": "t_bytes32"
          },
          {
            "astId": 3980,
            "contract": "src/SafeSecretHarbour.sol:SafeSecretHarbour",
            "label": "publicKey",
            "offset": 0,
            "slot": "1",
            "type": "t_bytes32"
          }
        ],
        "numberOfBytes": "64"
      },
      "t_struct(T)3994_storage": {
        "encoding": "inplace",
        "label": "struct BlockNumbers.T",
        "members": [
          {
            "astId": 3993,
            "contract": "src/SafeSecretHarbour.sol:SafeSecretHarbour",
            "label": "prefix",
            "offset": 0,
            "slot": "0",
            "type": "t_uint256"
          }
        ],
        "numberOfBytes": "32"
      },
      "t_uint256": {
        "encoding": "inplace",
        "label": "uint256",
        "numberOfBytes": "32"
      },
      "t_userDefinedValueType(T)4956": {
        "encoding": "inplace",
        "label": "RegistrationKey.T",
        "numberOfBytes": "32"
      }
    }
  }
}