{
  "address": "0x846EDD8718b79E9E91B0DD71924392239156ADBa",
  "abi": [
    {
      "inputs": [],
      "name": "InvalidECDSASignatureLength",
      "type": "error"
    },
    {
      "inputs": [],
      "name": "InvalidSignature",
      "type": "error"
    },
    {
      "inputs": [],
      "name": "InvalidSignatureSValue",
      "type": "error"
    },
    {
      "inputs": [
        {
          "internalType": "address",
          "name": "signer",
          "type": "address"
        },
        {
          "internalType": "bytes32",
          "name": "safeTxHash",
          "type": "bytes32"
        }
      ],
      "name": "SignerAlreadySignedTransaction",
      "type": "error"
    },
    {
      "inputs": [],
      "name": "ValueDoesNotFitInUint128",
      "type": "error"
    },
    {
      "anonymous": false,
      "inputs": [
        {
          "indexed": true,
          "internalType": "bytes32",
          "name": "safeTxHash",
          "type": "bytes32"
        },
        {
          "indexed": true,
          "internalType": "address",
          "name": "safe",
          "type": "address"
        },
        {
          "indexed": true,
          "internalType": "uint256",
          "name": "chainId",
          "type": "uint256"
        },
        {
          "indexed": false,
          "internalType": "uint256",
          "name": "nonce",
          "type": "uint256"
        },
        {
          "indexed": false,
          "internalType": "address",
          "name": "to",
          "type": "address"
        },
        {
          "indexed": false,
          "internalType": "uint256",
          "name": "value",
          "type": "uint256"
        },
        {
          "indexed": false,
          "internalType": "uint8",
          "name": "operation",
          "type": "uint8"
        },
        {
          "indexed": false,
          "internalType": "uint256",
          "name": "safeTxGas",
          "type": "uint256"
        },
        {
          "indexed": false,
          "internalType": "uint256",
          "name": "baseGas",
          "type": "uint256"
        },
        {
          "indexed": false,
          "internalType": "uint256",
          "name": "gasPrice",
          "type": "uint256"
        },
        {
          "indexed": false,
          "internalType": "address",
          "name": "gasToken",
          "type": "address"
        },
        {
          "indexed": false,
          "internalType": "address",
          "name": "refundReceiver",
          "type": "address"
        },
        {
          "indexed": false,
          "internalType": "bytes",
          "name": "data",
          "type": "bytes"
        }
      ],
      "name": "NewTransaction",
      "type": "event"
    },
    {
      "anonymous": false,
      "inputs": [
        {
          "indexed": true,
          "internalType": "address",
          "name": "signer",
          "type": "address"
        },
        {
          "indexed": true,
          "internalType": "address",
          "name": "safe",
          "type": "address"
        },
        {
          "indexed": true,
          "internalType": "bytes32",
          "name": "safeTxHash",
          "type": "bytes32"
        },
        {
          "indexed": false,
          "internalType": "uint256",
          "name": "chainId",
          "type": "uint256"
        },
        {
          "indexed": false,
          "internalType": "uint256",
          "name": "nonce",
          "type": "uint256"
        },
        {
          "indexed": false,
          "internalType": "uint256",
          "name": "listIndex",
          "type": "uint256"
        }
      ],
      "name": "SignatureStored",
      "type": "event"
    },
    {
      "inputs": [
        {
          "internalType": "address",
          "name": "safeAddress",
          "type": "address"
        },
        {
          "internalType": "uint256",
          "name": "chainId",
          "type": "uint256"
        },
        {
          "internalType": "uint256",
          "name": "nonce",
          "type": "uint256"
        },
        {
          "internalType": "address",
          "name": "to",
          "type": "address"
        },
        {
          "internalType": "uint256",
          "name": "value",
          "type": "uint256"
        },
        {
          "internalType": "bytes",
          "name": "data",
          "type": "bytes"
        },
        {
          "internalType": "uint8",
          "name": "operation",
          "type": "uint8"
        },
        {
          "internalType": "uint256",
          "name": "safeTxGas",
          "type": "uint256"
        },
        {
          "internalType": "uint256",
          "name": "baseGas",
          "type": "uint256"
        },
        {
          "internalType": "uint256",
          "name": "gasPrice",
          "type": "uint256"
        },
        {
          "internalType": "address",
          "name": "gasToken",
          "type": "address"
        },
        {
          "internalType": "address",
          "name": "refundReceiver",
          "type": "address"
        },
        {
          "internalType": "bytes",
          "name": "signature",
          "type": "bytes"
        }
      ],
      "name": "enqueueTransaction",
      "outputs": [
        {
          "internalType": "uint256",
          "name": "listIndex",
          "type": "uint256"
        }
      ],
      "stateMutability": "nonpayable",
      "type": "function"
    },
    {
      "inputs": [
        {
          "internalType": "address",
          "name": "signerAddress",
          "type": "address"
        },
        {
          "internalType": "address",
          "name": "safeAddress",
          "type": "address"
        },
        {
          "internalType": "uint256",
          "name": "chainId",
          "type": "uint256"
        },
        {
          "internalType": "uint256",
          "name": "nonce",
          "type": "uint256"
        },
        {
          "internalType": "uint256",
          "name": "start",
          "type": "uint256"
        },
        {
          "internalType": "uint256",
          "name": "count",
          "type": "uint256"
        }
      ],
      "name": "retrieveSignatures",
      "outputs": [
        {
          "components": [
            {
              "internalType": "bytes32",
              "name": "r",
              "type": "bytes32"
            },
            {
              "internalType": "bytes32",
              "name": "vs",
              "type": "bytes32"
            },
            {
              "internalType": "bytes32",
              "name": "txHash",
              "type": "bytes32"
            }
          ],
          "internalType": "struct SafeInternationalHarbour.SignatureDataWithTxHashIndex[]",
          "name": "page",
          "type": "tuple[]"
        },
        {
          "internalType": "uint256",
          "name": "totalCount",
          "type": "uint256"
        }
      ],
      "stateMutability": "view",
      "type": "function"
    },
    {
      "inputs": [
        {
          "internalType": "address",
          "name": "signerAddress",
          "type": "address"
        },
        {
          "internalType": "address",
          "name": "safeAddress",
          "type": "address"
        },
        {
          "internalType": "uint256",
          "name": "chainId",
          "type": "uint256"
        },
        {
          "internalType": "uint256",
          "name": "nonce",
          "type": "uint256"
        }
      ],
      "name": "retrieveSignaturesCount",
      "outputs": [
        {
          "internalType": "uint256",
          "name": "count",
          "type": "uint256"
        }
      ],
      "stateMutability": "view",
      "type": "function"
    },
    {
      "inputs": [
        {
          "internalType": "bytes32",
          "name": "safeTxHash",
          "type": "bytes32"
        }
      ],
      "name": "retrieveTransaction",
      "outputs": [
        {
          "components": [
            {
              "internalType": "bool",
              "name": "stored",
              "type": "bool"
            },
            {
              "internalType": "uint8",
              "name": "operation",
              "type": "uint8"
            },
            {
              "internalType": "address",
              "name": "to",
              "type": "address"
            },
            {
              "internalType": "uint128",
              "name": "value",
              "type": "uint128"
            },
            {
              "internalType": "uint128",
              "name": "safeTxGas",
              "type": "uint128"
            },
            {
              "internalType": "uint128",
              "name": "baseGas",
              "type": "uint128"
            },
            {
              "internalType": "uint128",
              "name": "gasPrice",
              "type": "uint128"
            },
            {
              "internalType": "address",
              "name": "gasToken",
              "type": "address"
            },
            {
              "internalType": "address",
              "name": "refundReceiver",
              "type": "address"
            },
            {
              "internalType": "bytes",
              "name": "data",
              "type": "bytes"
            }
          ],
          "internalType": "struct SafeInternationalHarbour.SafeTransaction",
          "name": "txParams",
          "type": "tuple"
        }
      ],
      "stateMutability": "view",
      "type": "function"
    }
  ],
  "transactionHash": "0x7c183834809fea25c4196cf040f7d2a42dc8d3ed1ba9d4881e99c7f1b2057f30",
  "args": [],
  "numDeployments": 1,
  "solcInputHash": "786c32352bc4647bbce987a8f39f7b37",
  "bytecode": "0x608080604052346015576114f0908161001b8239f35b600080fdfe6080604052600436101561001257600080fd5b60003560e01c80631573a55d14610ff85780632220debb14610f4057806375f398fe14610bd25763dd030c671461004857600080fd5b34610ba3576101a07ffffffffffffffffffffffffffffffffffffffffffffffffffffffffffffffffc360112610ba3576100806110a4565b6064359073ffffffffffffffffffffffffffffffffffffffff82168203610ba35760a43567ffffffffffffffff8111610ba3576100c19036906004016110ea565b9160ff60c4351660c43503610ba357610144359373ffffffffffffffffffffffffffffffffffffffff85168503610ba357610164359373ffffffffffffffffffffffffffffffffffffffff85168503610ba357610184359567ffffffffffffffff8711610ba35761013860419736906004016110ea565b97909703610ba85767ffffffffffffffff82116105905760405161018460207fffffffffffffffffffffffffffffffffffffffffffffffffffffffffffffffe0601f8601160182611151565b8281523683870111610ba357828660208301376000602084830101526040517f47e79534a245952e8b16893a336b85a3d9ea9fa8c573f3d803afb92a794692186020820152602435604082015273ffffffffffffffffffffffffffffffffffffffff86166060820152606081526101fc608082611151565b60208151910120906020815191012060405160208101917fbb8310d486368db6bd6f849402fdd73ad53d316b5a4b2644ad6efe0f941286d8835273ffffffffffffffffffffffffffffffffffffffff871660408301526084356060830152608082015260ff60c4351660a082015260e43560c08201526101043560e08201526101243561010082015273ffffffffffffffffffffffffffffffffffffffff841661012082015273ffffffffffffffffffffffffffffffffffffffff891661014082015260443561016082015261016081526102d961018082611151565b5190206040519060208201927f190100000000000000000000000000000000000000000000000000000000000084526022830152604282015260428152610321606282611151565b519020947f7fffffffffffffffffffffffffffffff5d576e7357a4501ddfe92f46681b20a0602089013511610b795760206000608060405189815260408c0135831a848201528b356040820152838c0135606082015282805260015afa15610b6d5773ffffffffffffffffffffffffffffffffffffffff60005116968715610b435786600052600060205260406000209283549360ff8516156105f1575b5050505050505081600052600260205260406000208360005260205260ff604060002054166105bf57816000526002602052604060002083600052602052604060002060017fffffffffffffffffffffffffffffffffffffffffffffffffffffffffffffff00825416179055826000526001602052604060002073ffffffffffffffffffffffffffffffffffffffff82166000526020526040600020602435600052602052604060002060443560005260205260406000209283549360405161048781611135565b8635815260208101967fffffffffffffffffffffffffffffffffffffffffffffffffffffffffffffffe56040602083013592013560001a0160ff1b17875260408101918583526801000000000000000087101561059057866104ee916001820181556111e6565b92909261056157602097600292518455516001840155519101557f8ca934463363b9653ec99615768595e2f35a0b21bab215117cf38b4038882c41606073ffffffffffffffffffffffffffffffffffffffff604051946024358652604435898701528760408701521693a4604051908152f35b7f4e487b7100000000000000000000000000000000000000000000000000000000600052600060045260246000fd5b7f4e487b7100000000000000000000000000000000000000000000000000000000600052604160045260246000fd5b50907f41e3e8880000000000000000000000000000000000000000000000000000000060005260045260245260446000fd5b859460017fffffffffffffffffffff0000000000000000000000000000000000000000000061ff0060c43560081b1692161775ffffffffffffffffffffffffffffffffffffffff00008960101b1617178155608435610af5575b60e435610a9d575b61010435610a4e575b610124356109f5575b73ffffffffffffffffffffffffffffffffffffffff82166109ae575b73ffffffffffffffffffffffffffffffffffffffff8316610967575b8461079f575b509073ffffffffffffffffffffffffffffffffffffffff809281604051986044358a52166020890152608435604089015260ff60c43516606089015260e43560808901526101043560a08901526101243560c08901521660e0870152166101008501526101406101208501528161014085015261016084013760006101608284010152837f3fcaf82260999b0a1a77f3006e142f8a15153ca131932b8b3b42ba67f44e02a360243593610160817fffffffffffffffffffffffffffffffffffffffffffffffffffffffffffffffe0601f73ffffffffffffffffffffffffffffffffffffffff8a169701168101030190a4388080808080806103bf565b60006107ae6005830154611411565b601f811161090f575b5080601f871160011461082e579160058773ffffffffffffffffffffffffffffffffffffffff969593879591610823575b508860011b907fffffffffffffffffffffffffffffffffffffffffffffffffffffffffffffffff8a60031b1c1916179101555b9192506106a3565b9050870135386107e8565b9060058301825260208220915b7fffffffffffffffffffffffffffffffffffffffffffffffffffffffffffffffe0881681106108f457509173ffffffffffffffffffffffffffffffffffffffff9493918593887fffffffffffffffffffffffffffffffffffffffffffffffffffffffffffffffe08116106108bc575b50506005600188811b0191015561081b565b7fffffffffffffffffffffffffffffffffffffffffffffffffffffffffffffffff60f88a60031b161c199088013516905538806108aa565b8187013583558897506001909201916020918201910161083b565b9091929394955060058301825260208220601f880160051c810160208910610960575b9088979695949392915b601f830160051c820181106109525750506107b7565b83815589985060010161093c565b5080610932565b6004810173ffffffffffffffffffffffffffffffffffffffff84167fffffffffffffffffffffffff000000000000000000000000000000000000000082541617905561069d565b6003810173ffffffffffffffffffffffffffffffffffffffff83167fffffffffffffffffffffffff0000000000000000000000000000000000000000825416179055610681565b610a49610a0461012435611464565b60028301906fffffffffffffffffffffffffffffffff7fffffffffffffffffffffffffffffffff0000000000000000000000000000000083549260801b169116179055565b610665565b610a5a61010435611464565b6fffffffffffffffffffffffffffffffff6002830191167fffffffffffffffffffffffffffffffff0000000000000000000000000000000082541617905561065c565b610af0610aab60e435611464565b60018301906fffffffffffffffffffffffffffffffff7fffffffffffffffffffffffffffffffff0000000000000000000000000000000083549260801b169116179055565b610653565b610b00608435611464565b6fffffffffffffffffffffffffffffffff6001830191167fffffffffffffffffffffffffffffffff0000000000000000000000000000000082541617905561064b565b7f8baa579f0000000000000000000000000000000000000000000000000000000060005260046000fd5b6040513d6000823e3d90fd5b7f617cf4740000000000000000000000000000000000000000000000000000000060005260046000fd5b600080fd5b7f85e6258e0000000000000000000000000000000000000000000000000000000060005260046000fd5b34610ba35760207ffffffffffffffffffffffffffffffffffffffffffffffffffffffffffffffffc360112610ba3576060610120604051610c1281611118565b60008152600060208201526000604082015260008382015260006080820152600060a0820152600060c0820152600060e0820152600061010082015201526004356000526000602052604060002060405190610c6d82611118565b80549060ff821615158352602083019160ff8160081c16835273ffffffffffffffffffffffffffffffffffffffff604085019160101c1681526001820154606085016fffffffffffffffffffffffffffffffff82168152608086019160801c825260028401549160a08701916fffffffffffffffffffffffffffffffff8416835260c088019360801c845273ffffffffffffffffffffffffffffffffffffffff6003870154169460e08901958652600573ffffffffffffffffffffffffffffffffffffffff600489015416976101008b0198895201976040518099600090805490610d5782611411565b8085529160018116908115610f035750600114610ec6575b505003610d7c908a611151565b6101208a019889526040519960208b5251151560208b01525160ff1660408a01525173ffffffffffffffffffffffffffffffffffffffff166060890152516fffffffffffffffffffffffffffffffff166080880152516fffffffffffffffffffffffffffffffff1660a0870152516fffffffffffffffffffffffffffffffff1660c0860152516fffffffffffffffffffffffffffffffff1660e08501525173ffffffffffffffffffffffffffffffffffffffff166101008401525173ffffffffffffffffffffffffffffffffffffffff166101208301525161014082016101409052818151918261016083015260005b838110610ead5750507fffffffffffffffffffffffffffffffffffffffffffffffffffffffffffffffe0601f83600061018080968601015201168101030190f35b6020828201810151610180878401015285935001610e6c565b6000908152602081209092505b818310610ee857505081016020018c80610d6f565b80602092948385600194549201015201910190918b92610ed3565b9050602093507fffffffffffffffffffffffffffffffffffffffffffffffffffffffffffffff0091501682840152151560051b8201018c80610d6f565b34610ba35760c07ffffffffffffffffffffffffffffffffffffffffffffffffffffffffffffffffc360112610ba357610f98610f7a6110a4565b610f826110c7565b9060a43591608435916064359160443591611245565b9060405190604082019260408352815180945260206060840192016000945b808610610fcc57505082935060208301520390f35b909260206060600192604087518051835284810151858401520151604082015201940195019490610fb7565b34610ba35760807ffffffffffffffffffffffffffffffffffffffffffffffffffffffffffffffffc360112610ba35761102f6110a4565b73ffffffffffffffffffffffffffffffffffffffff61104c6110c7565b9116600052600160205273ffffffffffffffffffffffffffffffffffffffff60406000209116600052602052604060002060443560005260205260406000206064356000526020526020604060002054604051908152f35b6004359073ffffffffffffffffffffffffffffffffffffffff82168203610ba357565b6024359073ffffffffffffffffffffffffffffffffffffffff82168203610ba357565b9181601f84011215610ba35782359167ffffffffffffffff8311610ba35760208381860195010111610ba357565b610140810190811067ffffffffffffffff82111761059057604052565b6060810190811067ffffffffffffffff82111761059057604052565b90601f7fffffffffffffffffffffffffffffffffffffffffffffffffffffffffffffffe0910116810190811067ffffffffffffffff82111761059057604052565b67ffffffffffffffff81116105905760051b60200190565b919082018092116111b757565b7f4e487b7100000000000000000000000000000000000000000000000000000000600052601160045260246000fd5b8054821015611202576000526003602060002091020190600090565b7f4e487b7100000000000000000000000000000000000000000000000000000000600052603260045260246000fd5b80518210156112025760209160051b010190565b73ffffffffffffffffffffffffffffffffffffffff9096949616600052600160205273ffffffffffffffffffffffffffffffffffffffff604060002091166000526020526040600020906000526020526040600020906000526020526040600020805492838510156113bc576112bb90856111aa565b908382116113b4575b8482039182116111b7576112d782611192565b906112e56040519283611151565b8282527fffffffffffffffffffffffffffffffffffffffffffffffffffffffffffffffe061131284611192565b0160005b818110611388575050819560005b848110611332575050505050565b80611348611342600193856111aa565b856111e6565b5060026040519161135883611135565b80548352848101546020840152015460408201526113768287611231565b526113818186611231565b5001611324565b60209060405161139781611135565b600081526000838201526000604082015282828701015201611316565b8391506112c4565b50506040519192509060006113d2602083611151565b81526000805b8181106113e55750509190565b6020906040516113f481611135565b6000815260008382015260006040820152828286010152016113d8565b90600182811c9216801561145a575b602083101461142b57565b7f4e487b7100000000000000000000000000000000000000000000000000000000600052602260045260246000fd5b91607f1691611420565b6fffffffffffffffffffffffffffffffff8111611490576fffffffffffffffffffffffffffffffff1690565b7f5e978e240000000000000000000000000000000000000000000000000000000060005260046000fdfea26469706673582212201c00d82af712070b001ad5b2efba5b076ff218250109d6b62284cf3640804b4764736f6c634300081d0033",
  "devdoc": {
    "details": "The {SignatureStored} event is the only hook required by indexers; however, the contract is      fully functional without any offchain infrastructure.",
    "errors": {
      "SignerAlreadySignedTransaction(address,bytes32)": [
        {
          "params": {
            "safeTxHash": "The EIP-712 hash of the Safe transaction.",
            "signer": "Signer address."
          }
        }
      ]
    },
    "events": {
      "NewTransaction(bytes32,address,uint256,uint256,address,uint256,uint8,uint256,uint256,uint256,address,address,bytes)": {
        "params": {
          "baseGas": "Fixed overhead reimbursed to the submitting signer.",
          "chainId": "Intended execution chain.",
          "data": "Calldata executed by the Safe.",
          "gasPrice": "Gas price used for reimbursement.",
          "gasToken": "ERC-20 token address for refunds.",
          "nonce": "Safe nonce.",
          "operation": "0 = CALL, 1 = DELEGATECALL.",
          "refundReceiver": "Address receiving the gas refund.",
          "safe": "Safe Smart-Account the transaction targets.",
          "safeTxGas": "Gas forwarded to the inner call.",
          "safeTxHash": "EIP-712 hash identifying the SafeTx.",
          "to": "Destination of the inner call/delegatecall.",
          "value": "ETH value forwarded by the Safe."
        }
      },
      "SignatureStored(address,address,bytes32,uint256,uint256,uint256)": {
        "params": {
          "chainId": "Intended execution chain.",
          "listIndex": "Position of the signature in the signerspecific array.",
          "nonce": "Safe nonce.",
          "safe": "Safe SmartAccount the transaction targets.",
          "safeTxHash": "EIP712 hash identifying the SafeTx.",
          "signer": "Address recovered from the provided signature."
        }
      }
    },
    "kind": "dev",
    "methods": {
      "enqueueTransaction(address,uint256,uint256,address,uint256,bytes,uint8,uint256,uint256,uint256,address,address,bytes)": {
        "custom:events": "Emits {SignatureStored}.",
        "details": "If `safeTxHash` has been seen before, its parameters are *not* validated nor overwritten       the call simply appends the `(r,s)` pair for `signer`.",
        "params": {
          "baseGas": "Fixed overhead reimbursed to the submitting signer.",
          "chainId": "Chain id the transaction is meant for.",
          "data": "Calldata executed by the Safe.",
          "gasPrice": "Gas price used for reimbursement.",
          "gasToken": "ERC20 token address for refunds (`address(0)` = ETH).",
          "nonce": "Safe nonce.",
          "operation": "0 = CALL, 1 = DELEGATECALL.",
          "refundReceiver": "Address receiving the gas refund.",
          "safeAddress": "Target Safe SmartAccount.",
          "safeTxGas": "Gas forwarded to the inner call.",
          "signature": "**Single** 65byte ECDSA signature.",
          "to": "Destination of the inner call/delegatecall.",
          "value": "ETH value forwarded by the Safe."
        },
        "returns": {
          "listIndex": "    Index of the stored signature in the signerspecific list."
        }
      },
      "retrieveSignatures(address,address,uint256,uint256,uint256,uint256)": {
        "params": {
          "chainId": "Target chain id.",
          "count": "Maximum number of entries to return.",
          "nonce": "Safe nonce.",
          "safeAddress": "Safe SmartAccount.",
          "signerAddress": "Address that created the signatures.",
          "start": "Zerobased start index of the slice."
        },
        "returns": {
          "page": "      Array slice `[start  start+count)` (may be shorter).",
          "totalCount": "Total number of signatures stored for the tuple."
        }
      },
      "retrieveSignaturesCount(address,address,uint256,uint256)": {
        "params": {
          "chainId": "Target chain id.",
          "nonce": "Safe nonce.",
          "safeAddress": "Safe SmartAccount.",
          "signerAddress": "Signer address."
        },
        "returns": {
          "count": "Length of the signature list."
        }
      },
      "retrieveTransaction(bytes32)": {
        "params": {
          "safeTxHash": "EIP712 digest of the transaction."
        },
        "returns": {
          "txParams": "Struct with all SafeTx parameters (zeroinitialised if unknown)."
        }
      }
    },
    "stateVariables": {
      "_hasSignerSignedTx": {
        "details": "Tracks if a signer has already submitted *any* signature for a specific safeTxHash,      preventing duplicate signatures for the *exact same* transaction digest.      This complements `_sigData` by ensuring uniqueness per (safeTxHash, signer) pair. Mapping `safeTxHash  signer  bool`"
      }
    },
    "title": "SafeInternationalHarbour",
    "version": 1
  },
  "userdoc": {
    "errors": {
      "InvalidECDSASignatureLength()": [
        {
          "notice": "Thrown when a signature blob is not exactly 65 bytes."
        }
      ],
      "InvalidSignature()": [
        {
          "notice": "Thrown if `ecrecover` yields `address(0)`."
        }
      ],
      "InvalidSignatureSValue()": [
        {
          "notice": "Thrown if the S value of the signature is not from the lower half of the curve."
        }
      ],
      "SignerAlreadySignedTransaction(address,bytes32)": [
        {
          "notice": "Thrown when attempting to store a signature for a transaction (safeTxHash) that the signer has already provided a signature for."
        }
      ],
      "ValueDoesNotFitInUint128()": [
        {
          "notice": "Thrown when a value doesn't fit in a uint128."
        }
      ]
    },
    "events": {
      "NewTransaction(bytes32,address,uint256,uint256,address,uint256,uint8,uint256,uint256,uint256,address,address,bytes)": {
        "notice": "Emitted when a transaction is first stored."
      },
      "SignatureStored(address,address,bytes32,uint256,uint256,uint256)": {
        "notice": "Emitted whenever a new signature is stored (and possibly the parameters on first sight)."
      }
    },
    "kind": "user",
    "methods": {
      "enqueueTransaction(address,uint256,uint256,address,uint256,bytes,uint8,uint256,uint256,uint256,address,address,bytes)": {
        "notice": "Publish a Safe transaction and/or append a signature to it."
      },
      "retrieveSignatures(address,address,uint256,uint256,uint256,uint256)": {
        "notice": "Paginated getter for signature entries."
      },
      "retrieveSignaturesCount(address,address,uint256,uint256)": {
        "notice": "Convenience getter returning the **number** of signatures stored for the key tuple."
      },
      "retrieveTransaction(bytes32)": {
        "notice": "Retrieve the full parameter set of a Safe transaction."
      }
    },
    "notice": "Permissionless, appendonly registry that lets **any EOA signer** publish Safe         transactions (\"SafeTx\") and their signatures. Clients without an offchain indexer can reconstruct the full multisig payload with only:         1. the Safe address;         2. the target `chainId`;         3. the Safe `nonce`; and         4. the current Safe owners set. Each unique `safeTxHash` (EIP712 digest of the SafeTx struct) is persisted **once** together with its parameters. Signatures are appended under the composite key `(signer, safe, chainId, nonce)`, enabling onchain, gasefficient lookups. ###  Contractbased signers unsupported Only ECDSA signatures from externallyowned accounts (EOAs) are supported. Contract wallets that rely on ERC1271 or similar cannot be verified onchain in a chainagnostic way and are therefore **not supported**.",
    "version": 1
  },
  "storageLayout": {
    "storage": [
      {
        "astId": 69,
        "contract": "src/SafeInternationalHarbour.sol:SafeInternationalHarbour",
        "label": "_txDetails",
        "offset": 0,
        "slot": "0",
        "type": "t_mapping(t_bytes32,t_struct(SafeTransaction)55_storage)"
      },
      {
        "astId": 82,
        "contract": "src/SafeInternationalHarbour.sol:SafeInternationalHarbour",
        "label": "_sigData",
        "offset": 0,
        "slot": "1",
        "type": "t_mapping(t_address,t_mapping(t_address,t_mapping(t_uint256,t_mapping(t_uint256,t_array(t_struct(SignatureDataWithTxHashIndex)63_storage)dyn_storage))))"
      },
      {
        "astId": 89,
        "contract": "src/SafeInternationalHarbour.sol:SafeInternationalHarbour",
        "label": "_hasSignerSignedTx",
        "offset": 0,
        "slot": "2",
        "type": "t_mapping(t_bytes32,t_mapping(t_address,t_bool))"
      }
    ],
    "types": {
      "t_address": {
        "encoding": "inplace",
        "label": "address",
        "numberOfBytes": "20"
      },
      "t_array(t_struct(SignatureDataWithTxHashIndex)63_storage)dyn_storage": {
        "base": "t_struct(SignatureDataWithTxHashIndex)63_storage",
        "encoding": "dynamic_array",
        "label": "struct SafeInternationalHarbour.SignatureDataWithTxHashIndex[]",
        "numberOfBytes": "32"
      },
      "t_bool": {
        "encoding": "inplace",
        "label": "bool",
        "numberOfBytes": "1"
      },
      "t_bytes32": {
        "encoding": "inplace",
        "label": "bytes32",
        "numberOfBytes": "32"
      },
      "t_bytes_storage": {
        "encoding": "bytes",
        "label": "bytes",
        "numberOfBytes": "32"
      },
      "t_mapping(t_address,t_bool)": {
        "encoding": "mapping",
        "key": "t_address",
        "label": "mapping(address => bool)",
        "numberOfBytes": "32",
        "value": "t_bool"
      },
      "t_mapping(t_address,t_mapping(t_address,t_mapping(t_uint256,t_mapping(t_uint256,t_array(t_struct(SignatureDataWithTxHashIndex)63_storage)dyn_storage))))": {
        "encoding": "mapping",
        "key": "t_address",
        "label": "mapping(address => mapping(address => mapping(uint256 => mapping(uint256 => struct SafeInternationalHarbour.SignatureDataWithTxHashIndex[]))))",
        "numberOfBytes": "32",
        "value": "t_mapping(t_address,t_mapping(t_uint256,t_mapping(t_uint256,t_array(t_struct(SignatureDataWithTxHashIndex)63_storage)dyn_storage)))"
      },
      "t_mapping(t_address,t_mapping(t_uint256,t_mapping(t_uint256,t_array(t_struct(SignatureDataWithTxHashIndex)63_storage)dyn_storage)))": {
        "encoding": "mapping",
        "key": "t_address",
        "label": "mapping(address => mapping(uint256 => mapping(uint256 => struct SafeInternationalHarbour.SignatureDataWithTxHashIndex[])))",
        "numberOfBytes": "32",
        "value": "t_mapping(t_uint256,t_mapping(t_uint256,t_array(t_struct(SignatureDataWithTxHashIndex)63_storage)dyn_storage))"
      },
      "t_mapping(t_bytes32,t_mapping(t_address,t_bool))": {
        "encoding": "mapping",
        "key": "t_bytes32",
        "label": "mapping(bytes32 => mapping(address => bool))",
        "numberOfBytes": "32",
        "value": "t_mapping(t_address,t_bool)"
      },
      "t_mapping(t_bytes32,t_struct(SafeTransaction)55_storage)": {
        "encoding": "mapping",
        "key": "t_bytes32",
        "label": "mapping(bytes32 => struct SafeInternationalHarbour.SafeTransaction)",
        "numberOfBytes": "32",
        "value": "t_struct(SafeTransaction)55_storage"
      },
      "t_mapping(t_uint256,t_array(t_struct(SignatureDataWithTxHashIndex)63_storage)dyn_storage)": {
        "encoding": "mapping",
        "key": "t_uint256",
        "label": "mapping(uint256 => struct SafeInternationalHarbour.SignatureDataWithTxHashIndex[])",
        "numberOfBytes": "32",
        "value": "t_array(t_struct(SignatureDataWithTxHashIndex)63_storage)dyn_storage"
      },
      "t_mapping(t_uint256,t_mapping(t_uint256,t_array(t_struct(SignatureDataWithTxHashIndex)63_storage)dyn_storage))": {
        "encoding": "mapping",
        "key": "t_uint256",
        "label": "mapping(uint256 => mapping(uint256 => struct SafeInternationalHarbour.SignatureDataWithTxHashIndex[]))",
        "numberOfBytes": "32",
        "value": "t_mapping(t_uint256,t_array(t_struct(SignatureDataWithTxHashIndex)63_storage)dyn_storage)"
      },
      "t_struct(SafeTransaction)55_storage": {
        "encoding": "inplace",
        "label": "struct SafeInternationalHarbour.SafeTransaction",
        "members": [
          {
            "astId": 36,
            "contract": "src/SafeInternationalHarbour.sol:SafeInternationalHarbour",
            "label": "stored",
            "offset": 0,
            "slot": "0",
            "type": "t_bool"
          },
          {
            "astId": 38,
            "contract": "src/SafeInternationalHarbour.sol:SafeInternationalHarbour",
            "label": "operation",
            "offset": 1,
            "slot": "0",
            "type": "t_uint8"
          },
          {
            "astId": 40,
            "contract": "src/SafeInternationalHarbour.sol:SafeInternationalHarbour",
            "label": "to",
            "offset": 2,
            "slot": "0",
            "type": "t_address"
          },
          {
            "astId": 42,
            "contract": "src/SafeInternationalHarbour.sol:SafeInternationalHarbour",
            "label": "value",
            "offset": 0,
            "slot": "1",
            "type": "t_uint128"
          },
          {
            "astId": 44,
            "contract": "src/SafeInternationalHarbour.sol:SafeInternationalHarbour",
            "label": "safeTxGas",
            "offset": 16,
            "slot": "1",
            "type": "t_uint128"
          },
          {
            "astId": 46,
            "contract": "src/SafeInternationalHarbour.sol:SafeInternationalHarbour",
            "label": "baseGas",
            "offset": 0,
            "slot": "2",
            "type": "t_uint128"
          },
          {
            "astId": 48,
            "contract": "src/SafeInternationalHarbour.sol:SafeInternationalHarbour",
            "label": "gasPrice",
            "offset": 16,
            "slot": "2",
            "type": "t_uint128"
          },
          {
            "astId": 50,
            "contract": "src/SafeInternationalHarbour.sol:SafeInternationalHarbour",
            "label": "gasToken",
            "offset": 0,
            "slot": "3",
            "type": "t_address"
          },
          {
            "astId": 52,
            "contract": "src/SafeInternationalHarbour.sol:SafeInternationalHarbour",
            "label": "refundReceiver",
            "offset": 0,
            "slot": "4",
            "type": "t_address"
          },
          {
            "astId": 54,
            "contract": "src/SafeInternationalHarbour.sol:SafeInternationalHarbour",
            "label": "data",
            "offset": 0,
            "slot": "5",
            "type": "t_bytes_storage"
          }
        ],
        "numberOfBytes": "192"
      },
      "t_struct(SignatureDataWithTxHashIndex)63_storage": {
        "encoding": "inplace",
        "label": "struct SafeInternationalHarbour.SignatureDataWithTxHashIndex",
        "members": [
          {
            "astId": 58,
            "contract": "src/SafeInternationalHarbour.sol:SafeInternationalHarbour",
            "label": "r",
            "offset": 0,
            "slot": "0",
            "type": "t_bytes32"
          },
          {
            "astId": 60,
            "contract": "src/SafeInternationalHarbour.sol:SafeInternationalHarbour",
            "label": "vs",
            "offset": 0,
            "slot": "1",
            "type": "t_bytes32"
          },
          {
            "astId": 62,
            "contract": "src/SafeInternationalHarbour.sol:SafeInternationalHarbour",
            "label": "txHash",
            "offset": 0,
            "slot": "2",
            "type": "t_bytes32"
          }
        ],
        "numberOfBytes": "96"
      },
      "t_uint128": {
        "encoding": "inplace",
        "label": "uint128",
        "numberOfBytes": "16"
      },
      "t_uint256": {
        "encoding": "inplace",
        "label": "uint256",
        "numberOfBytes": "32"
      },
      "t_uint8": {
        "encoding": "inplace",
        "label": "uint8",
        "numberOfBytes": "1"
      }
    }
  }
}