{
  "address": "0xA878AF6499fD3B6dAf4aAc1f768DE04aB7812AF2",
  "abi": [
    {
      "inputs": [
        {
          "internalType": "address",
          "name": "manager",
          "type": "address"
        },
        {
          "internalType": "contract IEntryPoint",
          "name": "supportedEntrypoint",
          "type": "address"
        },
        {
          "components": [
            {
              "internalType": "uint32",
              "name": "timeframeQuotaReset",
              "type": "uint32"
            },
            {
              "internalType": "uint16",
              "name": "requiredQuotaMultiplier",
              "type": "uint16"
            },
            {
              "internalType": "uint96",
              "name": "maxAvailableQuota",
              "type": "uint96"
            },
            {
              "internalType": "address",
              "name": "feeToken",
              "type": "address"
            },
            {
              "internalType": "uint32",
              "name": "quotaPerFeeToken",
              "type": "uint32"
            },
            {
              "internalType": "uint8",
              "name": "quotaPerFeeTokenScale",
              "type": "uint8"
            }
          ],
          "internalType": "struct QuotaMixinConfig",
          "name": "_quotaMixinconfig",
          "type": "tuple"
        },
        {
          "components": [
            {
              "internalType": "uint48",
              "name": "enableCoditionsDelay",
              "type": "uint48"
            },
            {
              "internalType": "contract ISlashingCondition[]",
              "name": "initialConditions",
              "type": "address[]"
            }
          ],
          "internalType": "struct SlashingMixinConfig",
          "name": "_slashingMixinconfig",
          "type": "tuple"
        }
      ],
      "stateMutability": "nonpayable",
      "type": "constructor"
    },
    {
      "inputs": [],
      "name": "ConditionNotOffended",
      "type": "error"
    },
    {
      "inputs": [],
      "name": "ConditionWasNotActive",
      "type": "error"
    },
    {
      "inputs": [],
      "name": "InsufficientTokensForWithdrawal",
      "type": "error"
    },
    {
      "inputs": [],
      "name": "InvalidSignature",
      "type": "error"
    },
    {
      "inputs": [],
      "name": "InvalidSignatureSValue",
      "type": "error"
    },
    {
      "inputs": [
        {
          "internalType": "bytes4",
          "name": "targetSelector",
          "type": "bytes4"
        }
      ],
      "name": "InvalidTarget",
      "type": "error"
    },
    {
      "inputs": [],
      "name": "InvalidUserOpPaymaster",
      "type": "error"
    },
    {
      "inputs": [],
      "name": "InvalidValidatorData",
      "type": "error"
    },
    {
      "inputs": [],
      "name": "NothingToSlash",
      "type": "error"
    },
    {
      "inputs": [
        {
          "internalType": "address",
          "name": "owner",
          "type": "address"
        }
      ],
      "name": "OwnableInvalidOwner",
      "type": "error"
    },
    {
      "inputs": [
        {
          "internalType": "address",
          "name": "account",
          "type": "address"
        }
      ],
      "name": "OwnableUnauthorizedAccount",
      "type": "error"
    },
    {
      "inputs": [
        {
          "internalType": "uint256",
          "name": "maxSignerQuota",
          "type": "uint256"
        }
      ],
      "name": "QuotaOverflow",
      "type": "error"
    },
    {
      "inputs": [
        {
          "internalType": "address",
          "name": "token",
          "type": "address"
        }
      ],
      "name": "SafeERC20FailedOperation",
      "type": "error"
    },
    {
      "inputs": [],
      "name": "TokensInUse",
      "type": "error"
    },
    {
      "inputs": [],
      "name": "UserOpAlreadySlashed",
      "type": "error"
    },
    {
      "inputs": [
        {
          "internalType": "bytes32",
          "name": "withdrawalHash",
          "type": "bytes32"
        }
      ],
      "name": "WithdrawalAlreadyPerformed",
      "type": "error"
    },
    {
      "anonymous": false,
      "inputs": [
        {
          "indexed": true,
          "internalType": "address",
          "name": "signer",
          "type": "address"
        },
        {
          "indexed": true,
          "internalType": "uint256",
          "name": "amount",
          "type": "uint256"
        }
      ],
      "name": "Deposit",
      "type": "event"
    },
    {
      "anonymous": false,
      "inputs": [
        {
          "indexed": true,
          "internalType": "contract ISlashingCondition",
          "name": "offendingCondition",
          "type": "address"
        },
        {
          "indexed": false,
          "internalType": "uint48",
          "name": "enabledUntil",
          "type": "uint48"
        }
      ],
      "name": "DisableCondition",
      "type": "event"
    },
    {
      "anonymous": false,
      "inputs": [
        {
          "indexed": true,
          "internalType": "contract ISlashingCondition",
          "name": "offendingCondition",
          "type": "address"
        },
        {
          "indexed": false,
          "internalType": "uint48",
          "name": "enabledFrom",
          "type": "uint48"
        }
      ],
      "name": "EnableCondition",
      "type": "event"
    },
    {
      "anonymous": false,
      "inputs": [
        {
          "indexed": true,
          "internalType": "address",
          "name": "previousOwner",
          "type": "address"
        },
        {
          "indexed": true,
          "internalType": "address",
          "name": "newOwner",
          "type": "address"
        }
      ],
      "name": "OwnershipTransferStarted",
      "type": "event"
    },
    {
      "anonymous": false,
      "inputs": [
        {
          "indexed": true,
          "internalType": "address",
          "name": "previousOwner",
          "type": "address"
        },
        {
          "indexed": true,
          "internalType": "address",
          "name": "newOwner",
          "type": "address"
        }
      ],
      "name": "OwnershipTransferred",
      "type": "event"
    },
    {
      "anonymous": false,
      "inputs": [
        {
          "indexed": true,
          "internalType": "contract ISlashingCondition",
          "name": "offendingCondition",
          "type": "address"
        },
        {
          "indexed": true,
          "internalType": "address",
          "name": "validator",
          "type": "address"
        },
        {
          "indexed": true,
          "internalType": "uint256",
          "name": "amount",
          "type": "uint256"
        }
      ],
      "name": "Slashed",
      "type": "event"
    },
    {
      "anonymous": false,
      "inputs": [
        {
          "indexed": true,
          "internalType": "address",
          "name": "signer",
          "type": "address"
        },
        {
          "indexed": true,
          "internalType": "uint256",
          "name": "amount",
          "type": "uint256"
        }
      ],
      "name": "Withdraw",
      "type": "event"
    },
    {
      "inputs": [],
      "name": "ENABLE_CONDITIONS_DELAY",
      "outputs": [
        {
          "internalType": "uint48",
          "name": "",
          "type": "uint48"
        }
      ],
      "stateMutability": "view",
      "type": "function"
    },
    {
      "inputs": [],
      "name": "FEE_TOKEN",
      "outputs": [
        {
          "internalType": "address",
          "name": "",
          "type": "address"
        }
      ],
      "stateMutability": "view",
      "type": "function"
    },
    {
      "inputs": [],
      "name": "MAX_AVAILABLE_QUOTA",
      "outputs": [
        {
          "internalType": "uint96",
          "name": "",
          "type": "uint96"
        }
      ],
      "stateMutability": "view",
      "type": "function"
    },
    {
      "inputs": [],
      "name": "QUOTA_ENABLED",
      "outputs": [
        {
          "internalType": "bool",
          "name": "",
          "type": "bool"
        }
      ],
      "stateMutability": "view",
      "type": "function"
    },
    {
      "inputs": [],
      "name": "QUOTA_PER_FEE_TOKEN",
      "outputs": [
        {
          "internalType": "uint32",
          "name": "",
          "type": "uint32"
        }
      ],
      "stateMutability": "view",
      "type": "function"
    },
    {
      "inputs": [],
      "name": "QUOTA_PER_FEE_TOKEN_SCALE",
      "outputs": [
        {
          "internalType": "uint8",
          "name": "",
          "type": "uint8"
        }
      ],
      "stateMutability": "view",
      "type": "function"
    },
    {
      "inputs": [],
      "name": "TIMEFRAME_QUOTA_RESET",
      "outputs": [
        {
          "internalType": "uint32",
          "name": "",
          "type": "uint32"
        }
      ],
      "stateMutability": "view",
      "type": "function"
    },
    {
      "inputs": [],
      "name": "acceptOwnership",
      "outputs": [],
      "stateMutability": "nonpayable",
      "type": "function"
    },
    {
      "inputs": [
        {
          "internalType": "uint32",
          "name": "unstakeDelaySec",
          "type": "uint32"
        }
      ],
      "name": "addStake",
      "outputs": [],
      "stateMutability": "payable",
      "type": "function"
    },
    {
      "inputs": [
        {
          "internalType": "address",
          "name": "signer",
          "type": "address"
        }
      ],
      "name": "availableFreeQuotaForSigner",
      "outputs": [
        {
          "internalType": "uint96",
          "name": "availableFreeQuota",
          "type": "uint96"
        },
        {
          "internalType": "uint96",
          "name": "usedSignerQuota",
          "type": "uint96"
        },
        {
          "internalType": "uint48",
          "name": "nextSignerQuotaReset",
          "type": "uint48"
        }
      ],
      "stateMutability": "view",
      "type": "function"
    },
    {
      "inputs": [],
      "name": "deposit",
      "outputs": [],
      "stateMutability": "payable",
      "type": "function"
    },
    {
      "inputs": [
        {
          "internalType": "address",
          "name": "signer",
          "type": "address"
        },
        {
          "internalType": "uint96",
          "name": "amount",
          "type": "uint96"
        }
      ],
      "name": "depositTokensForSigner",
      "outputs": [],
      "stateMutability": "nonpayable",
      "type": "function"
    },
    {
      "inputs": [
        {
          "internalType": "contract ISlashingCondition",
          "name": "",
          "type": "address"
        }
      ],
      "name": "enabledConditions",
      "outputs": [
        {
          "internalType": "uint48",
          "name": "enabledAfter",
          "type": "uint48"
        },
        {
          "internalType": "uint48",
          "name": "enabledUntil",
          "type": "uint48"
        }
      ],
      "stateMutability": "view",
      "type": "function"
    },
    {
      "inputs": [],
      "name": "entryPoint",
      "outputs": [
        {
          "internalType": "contract IEntryPoint",
          "name": "",
          "type": "address"
        }
      ],
      "stateMutability": "view",
      "type": "function"
    },
    {
      "inputs": [],
      "name": "getDeposit",
      "outputs": [
        {
          "internalType": "uint256",
          "name": "",
          "type": "uint256"
        }
      ],
      "stateMutability": "view",
      "type": "function"
    },
    {
      "inputs": [],
      "name": "getSupportedEntrypoint",
      "outputs": [
        {
          "internalType": "contract IEntryPoint",
          "name": "",
          "type": "address"
        }
      ],
      "stateMutability": "view",
      "type": "function"
    },
    {
      "inputs": [],
      "name": "owner",
      "outputs": [
        {
          "internalType": "address",
          "name": "",
          "type": "address"
        }
      ],
      "stateMutability": "view",
      "type": "function"
    },
    {
      "inputs": [],
      "name": "pendingOwner",
      "outputs": [
        {
          "internalType": "address",
          "name": "",
          "type": "address"
        }
      ],
      "stateMutability": "view",
      "type": "function"
    },
    {
      "inputs": [
        {
          "internalType": "enum IPaymaster.PostOpMode",
          "name": "mode",
          "type": "uint8"
        },
        {
          "internalType": "bytes",
          "name": "context",
          "type": "bytes"
        },
        {
          "internalType": "uint256",
          "name": "actualGasCost",
          "type": "uint256"
        },
        {
          "internalType": "uint256",
          "name": "actualUserOpFeePerGas",
          "type": "uint256"
        }
      ],
      "name": "postOp",
      "outputs": [],
      "stateMutability": "nonpayable",
      "type": "function"
    },
    {
      "inputs": [
        {
          "internalType": "address",
          "name": "",
          "type": "address"
        }
      ],
      "name": "quotaStatsForSigner",
      "outputs": [
        {
          "internalType": "uint96",
          "name": "tokenBalance",
          "type": "uint96"
        },
        {
          "internalType": "uint96",
          "name": "usedQuota",
          "type": "uint96"
        },
        {
          "internalType": "uint48",
          "name": "nextQuotaReset",
          "type": "uint48"
        }
      ],
      "stateMutability": "view",
      "type": "function"
    },
    {
      "inputs": [],
      "name": "renounceOwnership",
      "outputs": [],
      "stateMutability": "nonpayable",
      "type": "function"
    },
    {
      "inputs": [
        {
          "internalType": "contract ISlashingCondition",
          "name": "offendingCondition",
          "type": "address"
        },
        {
          "components": [
            {
              "internalType": "address",
              "name": "sender",
              "type": "address"
            },
            {
              "internalType": "uint256",
              "name": "nonce",
              "type": "uint256"
            },
            {
              "internalType": "bytes",
              "name": "initCode",
              "type": "bytes"
            },
            {
              "internalType": "bytes",
              "name": "callData",
              "type": "bytes"
            },
            {
              "internalType": "bytes32",
              "name": "accountGasLimits",
              "type": "bytes32"
            },
            {
              "internalType": "uint256",
              "name": "preVerificationGas",
              "type": "uint256"
            },
            {
              "internalType": "bytes32",
              "name": "gasFees",
              "type": "bytes32"
            },
            {
              "internalType": "bytes",
              "name": "paymasterAndData",
              "type": "bytes"
            },
            {
              "internalType": "bytes",
              "name": "signature",
              "type": "bytes"
            }
          ],
          "internalType": "struct PackedUserOperation",
          "name": "userOp",
          "type": "tuple"
        }
      ],
      "name": "slashValidator",
      "outputs": [],
      "stateMutability": "nonpayable",
      "type": "function"
    },
    {
      "inputs": [],
      "name": "slashedTokens",
      "outputs": [
        {
          "internalType": "uint256",
          "name": "",
          "type": "uint256"
        }
      ],
      "stateMutability": "view",
      "type": "function"
    },
    {
      "inputs": [
        {
          "internalType": "bytes32",
          "name": "",
          "type": "bytes32"
        }
      ],
      "name": "slashedUserOps",
      "outputs": [
        {
          "internalType": "uint256",
          "name": "",
          "type": "uint256"
        }
      ],
      "stateMutability": "view",
      "type": "function"
    },
    {
      "inputs": [
        {
          "internalType": "address",
          "name": "newOwner",
          "type": "address"
        }
      ],
      "name": "transferOwnership",
      "outputs": [],
      "stateMutability": "nonpayable",
      "type": "function"
    },
    {
      "inputs": [],
      "name": "unlockStake",
      "outputs": [],
      "stateMutability": "nonpayable",
      "type": "function"
    },
    {
      "inputs": [
        {
          "components": [
            {
              "internalType": "address",
              "name": "sender",
              "type": "address"
            },
            {
              "internalType": "uint256",
              "name": "nonce",
              "type": "uint256"
            },
            {
              "internalType": "bytes",
              "name": "initCode",
              "type": "bytes"
            },
            {
              "internalType": "bytes",
              "name": "callData",
              "type": "bytes"
            },
            {
              "internalType": "bytes32",
              "name": "accountGasLimits",
              "type": "bytes32"
            },
            {
              "internalType": "uint256",
              "name": "preVerificationGas",
              "type": "uint256"
            },
            {
              "internalType": "bytes32",
              "name": "gasFees",
              "type": "bytes32"
            },
            {
              "internalType": "bytes",
              "name": "paymasterAndData",
              "type": "bytes"
            },
            {
              "internalType": "bytes",
              "name": "signature",
              "type": "bytes"
            }
          ],
          "internalType": "struct PackedUserOperation",
          "name": "userOp",
          "type": "tuple"
        },
        {
          "internalType": "bytes32",
          "name": "userOpHash",
          "type": "bytes32"
        },
        {
          "internalType": "uint256",
          "name": "maxCost",
          "type": "uint256"
        }
      ],
      "name": "validatePaymasterUserOp",
      "outputs": [
        {
          "internalType": "bytes",
          "name": "context",
          "type": "bytes"
        },
        {
          "internalType": "uint256",
          "name": "validationData",
          "type": "uint256"
        }
      ],
      "stateMutability": "nonpayable",
      "type": "function"
    },
    {
      "inputs": [
        {
          "internalType": "bytes",
          "name": "signature",
          "type": "bytes"
        },
        {
          "internalType": "uint96",
          "name": "amount",
          "type": "uint96"
        },
        {
          "internalType": "address",
          "name": "beneficiary",
          "type": "address"
        },
        {
          "internalType": "uint256",
          "name": "nonce",
          "type": "uint256"
        }
      ],
      "name": "widthdrawTokensForSigner",
      "outputs": [],
      "stateMutability": "payable",
      "type": "function"
    },
    {
      "inputs": [
        {
          "internalType": "address payable",
          "name": "withdrawAddress",
          "type": "address"
        }
      ],
      "name": "withdrawStake",
      "outputs": [],
      "stateMutability": "nonpayable",
      "type": "function"
    },
    {
      "inputs": [
        {
          "internalType": "address payable",
          "name": "withdrawAddress",
          "type": "address"
        },
        {
          "internalType": "uint256",
          "name": "amount",
          "type": "uint256"
        }
      ],
      "name": "withdrawTo",
      "outputs": [],
      "stateMutability": "nonpayable",
      "type": "function"
    },
    {
      "inputs": [
        {
          "internalType": "address",
          "name": "",
          "type": "address"
        },
        {
          "internalType": "bytes32",
          "name": "",
          "type": "bytes32"
        }
      ],
      "name": "withdrawsForSigner",
      "outputs": [
        {
          "internalType": "uint256",
          "name": "",
          "type": "uint256"
        }
      ],
      "stateMutability": "view",
      "type": "function"
    }
  ],
  "transactionHash": "0xcd3dc5273bd43fbf1a0917be8d9a943ee9bed1b2d7b111f4f6ca9f0428e690c1",
  "args": [
    "0xF4f42442E2AE1d7Ea87087aF73B2Abb5536290C2",
    "0x4337084d9e255ff0702461cf8895ce9e3b5ff108",
    {
      "timeframeQuotaReset": 86400,
      "requiredQuotaMultiplier": 1,
      "maxAvailableQuota": 0,
      "feeToken": "0xe91D153E0b41518A2Ce8Dd3D7944Fa863463a97d",
      "quotaPerFeeToken": 1,
      "quotaPerFeeTokenScale": 0
    },
    {
      "enableCoditionsDelay": 172800,
      "initialConditions": [
        "0x682953FC8EE8D5feF838a680824163eE6561b7E7"
      ]
    }
  ],
  "numDeployments": 1,
  "solcInputHash": "2b2aa2436218edb28916113d410b7c66",
  "bytecode": "0x61018080604052346104d35761303e803803809161001d828561054c565b83398101908082039061012082126104d3576100388161056f565b602082015190926001600160a01b03821691908282036104d35760c090603f1901126104d3576040519260c084016001600160401b0381118582101761051d5760405261008760408201610583565b8452606081015161ffff811681036104d35760208501526080810151936001600160601b03851685036104d357604081019485526100c760a0830161056f565b606082019081526100da60c08401610583565b906080830191825260e08401519360ff851685036104d35760a08401948552610100810151906001600160401b0382116104d35701956040878b03126104d3576040519661012788610531565b805165ffffffffffff811681036104d35788526020810151906001600160401b0382116104d357018a601f820112156104d35780519a6001600160401b038c1161051d578b60051b916020806040519e8f906101858388018361054c565b815201938201019182116104d357602001915b8183106104fd5750505060208701998a5233156104ea5760018060a01b03196001541660015560205f543360018060a01b03198216175f55602460405180948193339060018060a01b03167f8be0079c531659141344cd1fd0a4f28419497f9722a3daafe3b4186f6b6457e05f80a36301ffc9a760e01b8252631313998b60e31b60048301525afa9081156104df575f916104a0575b501561045b5760809490945283516001600160a01b03908116151560a052915163ffffffff90811660c05295516001600160601b031660e05292511661010052905190921661012052905160ff16610140525165ffffffffffff9081166101605242165f5b83515181101561032657604051906102aa82610531565b82825260208201915f83528551928351831015610312576001936020858060a01b03918560051b010151165f52600560205265ffffffffffff60405f209251166bffffffffffff0000000000008354925160301b1691858060601b0319161717905501610293565b634e487b7160e01b5f52603260045260245ffd5b5f546001600160a01b03168333820361044857600180546001600160a01b0319166001600160a01b03929092169182179055604051917f38d16b8cac22d99fc7c124b9cd0de2d3fa1faef420bfe791d8c362d765e227005f80a3612aa9908161059582396080518181816108980152818161099b01528181610a6401528181610b3901528181610eee01528181611e4901528181611f6a015281816120610152612696015260a05181818161156c0152612890015260c0518181816119e601526123f5015260e051818181611dcd015261232d01526101005181818161063001526118c3015261012051818181610bde0152818161119a01526122b50152610140518181816111230152818161161a01526122e0015261016051816102bf0152f35b63118cdaa760e01b5f523360045260245ffd5b60405162461bcd60e51b815260206004820152601e60248201527f49456e747279506f696e7420696e74657266616365206d69736d6174636800006044820152606490fd5b90506020813d6020116104d7575b816104bb6020938361054c565b810103126104d3575180151581036104d3575f61022e565b5f80fd5b3d91506104ae565b6040513d5f823e3d90fd5b631e4fbdf760e01b5f525f60045260245ffd5b82516001600160a01b03811681036104d357815260209283019201610198565b634e487b7160e01b5f52604160045260245ffd5b604081019081106001600160401b0382111761051d57604052565b601f909101601f19168101906001600160401b0382119082101761051d57604052565b51906001600160a01b03821682036104d357565b519063ffffffff821682036104d35756fe60806040526004361015610011575f80fd5b5f5f3560e01c80630396cb6014611f0f5780630f5cb70814611ed3578063205c287814611df157806338c4c62114611d8a578063519e981514611d1257806352b7512c14611a0a5780636f9bb7bd146119ab5780636f9bf91b14610b9e578063715018a6146118e757806373717b081461187857806379ba50971461176e5780637c627b21146116ab5780637eec7d681461163e57806381f243c3146115e25780638da5cb5b1461159157806393df8c3114611536578063941eaf5314610d635780639f202a0414610cee578063a3be4d7b14610c4a578063a99819be14610c02578063ad3228c614610ba3578063b0d691fe14610b9e578063bb9fe6bf14610aea578063c23a5cea14610a0c578063c399ec8814610923578063d0e30db014610856578063d912dcca14610739578063e002f088146102e3578063e2c7b3e014610282578063e30c3978146102305763f2fde38b1461016f575f80fd5b3461022d5760207ffffffffffffffffffffffffffffffffffffffffffffffffffffffffffffffffc36011261022d5773ffffffffffffffffffffffffffffffffffffffff6101bb611ff4565b6101c3612633565b16807fffffffffffffffffffffffff0000000000000000000000000000000000000000600154161760015573ffffffffffffffffffffffffffffffffffffffff8254167f38d16b8cac22d99fc7c124b9cd0de2d3fa1faef420bfe791d8c362d765e227008380a380f35b80fd5b503461022d57807ffffffffffffffffffffffffffffffffffffffffffffffffffffffffffffffffc36011261022d57602073ffffffffffffffffffffffffffffffffffffffff60015416604051908152f35b503461022d57807ffffffffffffffffffffffffffffffffffffffffffffffffffffffffffffffffc36011261022d57602060405165ffffffffffff7f0000000000000000000000000000000000000000000000000000000000000000168152f35b5060807ffffffffffffffffffffffffffffffffffffffffffffffffffffffffffffffffc36011261022d5760043567ffffffffffffffff81116107355761032e903690600401612085565b506103376120b3565b9060443573ffffffffffffffffffffffffffffffffffffffff8116809103610731576bffffffffffffffffffffffff83169260405160208101907f47e79534a245952e8b16893a336b85a3d9ea9fa8c573f3d803afb92a794692188252466040820152306060820152606081526103af6080826120ce565b51902061044b61047760405160208101907ff004bebf3ce3a32f609e24232a25277f97bc1a0843e36f180d0e414dd5a65b7a825288604082015286606082015260643560808201526080815261040660a0826120ce565b51902060405192839160208301958690916042927f19010000000000000000000000000000000000000000000000000000000000008352600283015260228201520190565b037fffffffffffffffffffffffffffffffffffffffffffffffffffffffffffffffe081018352826120ce565b5190209260208101357f7fffffffffffffffffffffffffffffff5d576e7357a4501ddfe92f46681b20a081116107095760806020928892604051918883526040810135851a86840152356040830152606082015282805260015afa156106fe5773ffffffffffffffffffffffffffffffffffffffff8551169283156106d65783865260036020526040862081875260205260408620546106ab578386526003602052604086209086526020524260408620558285526002602052604085209081546bffffffffffffffffffffffff8116908682106106835765ffffffffffff429160c01c16101561065b576bffffffffffffffffffffffff91610579916121e2565b167fffffffffffffffffffffffffffffffffffffffff0000000000000000000000008254161790553081036105d1575b507f884edad9ce6fa2440d8a54cc123490eb96d2768479d49ff9c7366125a94243648380a380f35b61065590604051907fa9059cbb0000000000000000000000000000000000000000000000000000000060208301526024820152836044820152604481526106196064826120ce565b73ffffffffffffffffffffffffffffffffffffffff7f0000000000000000000000000000000000000000000000000000000000000000166129ec565b5f6105a9565b6004877f5ac68c08000000000000000000000000000000000000000000000000000000008152fd5b6004887fc574a3c7000000000000000000000000000000000000000000000000000000008152fd5b7fd7be7174000000000000000000000000000000000000000000000000000000008652600452602485fd5b6004867f8baa579f000000000000000000000000000000000000000000000000000000008152fd5b6040513d86823e3d90fd5b6004877f617cf474000000000000000000000000000000000000000000000000000000008152fd5b8380fd5b5080fd5b503461022d5760407ffffffffffffffffffffffffffffffffffffffffffffffffffffffffffffffffc36011261022d57610771611ff4565b6bffffffffffffffffffffffff73ffffffffffffffffffffffffffffffffffffffff61079b6120b3565b921691828452600260205260408420826107b88382845416612609565b167fffffffffffffffffffffffffffffffffffffffff000000000000000000000000825416179055169061082f6040517f23b872dd000000000000000000000000000000000000000000000000000000006020820152336024820152306044820152836064820152606481526106196084826120ce565b7fe1fffcc4923d04b559f4d29a8bfc6cda04eb5b0d3c460751c2402c5c5cc9109c8380a380f35b50807ffffffffffffffffffffffffffffffffffffffffffffffffffffffffffffffffc36011261022d578073ffffffffffffffffffffffffffffffffffffffff7f000000000000000000000000000000000000000000000000000000000000000016803b156109205781602491604051928380927fb760faf900000000000000000000000000000000000000000000000000000000825230600483015234905af18015610915576109045750f35b8161090e916120ce565b61022d5780f35b6040513d84823e3d90fd5b50fd5b503461022d57807ffffffffffffffffffffffffffffffffffffffffffffffffffffffffffffffffc36011261022d576040517f70a0823100000000000000000000000000000000000000000000000000000000815230600482015260208160248173ffffffffffffffffffffffffffffffffffffffff7f0000000000000000000000000000000000000000000000000000000000000000165afa9081156109155782916109d6575b602082604051908152f35b90506020813d602011610a04575b816109f1602093836120ce565b810103126107355760209150515f6109cb565b3d91506109e4565b503461022d5760207ffffffffffffffffffffffffffffffffffffffffffffffffffffffffffffffffc36011261022d5780610a45611ff4565b610a4d612633565b73ffffffffffffffffffffffffffffffffffffffff7f00000000000000000000000000000000000000000000000000000000000000001690813b15610ae65773ffffffffffffffffffffffffffffffffffffffff602484928360405195869485937fc23a5cea0000000000000000000000000000000000000000000000000000000085521660048401525af18015610915576109045750f35b5050fd5b503461022d57807ffffffffffffffffffffffffffffffffffffffffffffffffffffffffffffffffc36011261022d57610b21612633565b8073ffffffffffffffffffffffffffffffffffffffff7f000000000000000000000000000000000000000000000000000000000000000016803b15610920578180916004604051809481937fbb9fe6bf0000000000000000000000000000000000000000000000000000000083525af18015610915576109045750f35b612017565b503461022d57807ffffffffffffffffffffffffffffffffffffffffffffffffffffffffffffffffc36011261022d57602060405163ffffffff7f0000000000000000000000000000000000000000000000000000000000000000168152f35b503461022d5760207ffffffffffffffffffffffffffffffffffffffffffffffffffffffffffffffffc36011261022d5760406020916004358152600683522054604051908152f35b503461022d5760207ffffffffffffffffffffffffffffffffffffffffffffffffffffffffffffffffc36011261022d576040610cea9173ffffffffffffffffffffffffffffffffffffffff610c9d611ff4565b1681526002602090815291902054604080516bffffffffffffffffffffffff8084168252606084811c9091169482019490945260c09290921c65ffffffffffff1690820152918291820190565b0390f35b503461022d5760207ffffffffffffffffffffffffffffffffffffffffffffffffffffffffffffffffc36011261022d576040809173ffffffffffffffffffffffffffffffffffffffff610d3f611ff4565b1681526005602052205465ffffffffffff825191818116835260301c166020820152f35b503461022d5760407ffffffffffffffffffffffffffffffffffffffffffffffffffffffffffffffffc36011261022d57610d9b611ff4565b906024359067ffffffffffffffff821161022d5781600401926101207ffffffffffffffffffffffffffffffffffffffffffffffffffffffffffffffffc843603011261073557610dea84612782565b73ffffffffffffffffffffffffffffffffffffffff3091160361150e579065ffffffffffff9173ffffffffffffffffffffffffffffffffffffffff610e2e86612804565b94909416911692838352600560205260408320604051906040820182811067ffffffffffffffff8211176114e15791849160209493604052549065ffffffffffff8083169283835260301c169485910152109283156114d8575b50826114b3575b50501561148b57604051937f22cdde4c0000000000000000000000000000000000000000000000000000000085526020600486015260208580610ed560248201856124e9565b038173ffffffffffffffffffffffffffffffffffffffff7f0000000000000000000000000000000000000000000000000000000000000000165afa948515610915578295611457575b50803573ffffffffffffffffffffffffffffffffffffffff81168091036114535761044b610fd460405160208101907f47e79534a245952e8b16893a336b85a3d9ea9fa8c573f3d803afb92a79469218825246604082015230606082015260608152610f8b6080826120ce565b5190209260405160208101917f05a0a1db773d73251a561ef1fe2b420121ab814b9980222b3b139b653496620f83526040820152896060820152606081526104066080826120ce565b519020610fe56101048601836125b8565b506020810135907f7fffffffffffffffffffffffffffffff5d576e7357a4501ddfe92f46681b20a0821161142b5760209285926080926040519283526040810135851a86840152356040830152606082015282805260015afa1561141e5773ffffffffffffffffffffffffffffffffffffffff8251169384156113f6576040517f2e31f34000000000000000000000000000000000000000000000000000000000815285600482015260406024820152602081806110a660448201876124e9565b038187895af19081156106fe5784916113bb575b5015611393578583526006602052604083205461136b5760848101359160e482016110e581836125b8565b602411611367579060146110fb920135926125b8565b60341161136357611193926111c0949260246bffffffffffffffffffffffff930135906111477f000000000000000000000000000000000000000000000000000000000000000061219a565b946fffffffffffffffffffffffffffffffff8060a48160c4880135169601359460801c169260801c16906fffffffffffffffffffffffffffffffff81169060801c010101010216612187565b63ffffffff7f000000000000000000000000000000000000000000000000000000000000000016906121ab565b838252600260205260408220546bffffffffffffffffffffffff16908181111561134e57505b6bffffffffffffffffffffffff811694851561132657825260066020528460408320556004548581018091116112f957600455838252600260205260408220916bffffffffffffffffffffffff835416908682106112d157806112a957506bffffffffffffffffffffffff9161125b916121e2565b167fffffffffffffffffffffffffffffffffffffffff0000000000000000000000008254161790557f96e0041f14ae401fab2384e3c29da20cb0263ef760c47847db1f13403cea654c5f80a4005b807f5ac68c080000000000000000000000000000000000000000000000000000000060049252fd5b807fc574a3c70000000000000000000000000000000000000000000000000000000060049252fd5b6024837f4e487b710000000000000000000000000000000000000000000000000000000081526011600452fd5b6004837f38fbeb34000000000000000000000000000000000000000000000000000000008152fd5b6bffffffffffffffffffffffff9150166111e6565b8480fd5b8580fd5b6004837f129f4c2d000000000000000000000000000000000000000000000000000000008152fd5b6004837ff39e289e000000000000000000000000000000000000000000000000000000008152fd5b90506020813d6020116113ee575b816113d6602093836120ce565b8101031261073157518015158103610731575f6110ba565b3d91506113c9565b6004837f8baa579f000000000000000000000000000000000000000000000000000000008152fd5b50604051903d90823e3d90fd5b6004857f617cf474000000000000000000000000000000000000000000000000000000008152fd5b8280fd5b9094506020813d602011611483575b81611473602093836120ce565b810103126107355751935f610f1e565b3d9150611466565b807fb57cade10000000000000000000000000000000000000000000000000000000060049252fd5b81925065ffffffffffff16109081156114cf575b505f80610e8f565b9050155f6114c7565b1592505f610e88565b6024867f4e487b710000000000000000000000000000000000000000000000000000000081526041600452fd5b6004827f48882656000000000000000000000000000000000000000000000000000000008152fd5b503461022d57807ffffffffffffffffffffffffffffffffffffffffffffffffffffffffffffffffc36011261022d5760206040517f000000000000000000000000000000000000000000000000000000000000000015158152f35b503461022d57807ffffffffffffffffffffffffffffffffffffffffffffffffffffffffffffffffc36011261022d5773ffffffffffffffffffffffffffffffffffffffff6020915416604051908152f35b503461022d57807ffffffffffffffffffffffffffffffffffffffffffffffffffffffffffffffffc36011261022d57602060405160ff7f0000000000000000000000000000000000000000000000000000000000000000168152f35b503461022d5760407ffffffffffffffffffffffffffffffffffffffffffffffffffffffffffffffffc36011261022d57604060209173ffffffffffffffffffffffffffffffffffffffff611690611ff4565b16815260038352818120602435825283522054604051908152f35b503461022d5760807ffffffffffffffffffffffffffffffffffffffffffffffffffffffffffffffffc36011261022d576003600435101561022d5760243567ffffffffffffffff811161073557611706903690600401612085565b505061171061267f565b60646040517f08c379a000000000000000000000000000000000000000000000000000000000815260206004820152600d60248201527f6d757374206f76657272696465000000000000000000000000000000000000006044820152fd5b503461022d57807ffffffffffffffffffffffffffffffffffffffffffffffffffffffffffffffffc36011261022d573373ffffffffffffffffffffffffffffffffffffffff600154160361184c577fffffffffffffffffffffffff0000000000000000000000000000000000000000600154166001558054337fffffffffffffffffffffffff0000000000000000000000000000000000000000821617825573ffffffffffffffffffffffffffffffffffffffff3391167f8be0079c531659141344cd1fd0a4f28419497f9722a3daafe3b4186f6b6457e08380a380f35b807f118cdaa7000000000000000000000000000000000000000000000000000000006024925233600452fd5b503461022d57807ffffffffffffffffffffffffffffffffffffffffffffffffffffffffffffffffc36011261022d57602060405173ffffffffffffffffffffffffffffffffffffffff7f0000000000000000000000000000000000000000000000000000000000000000168152f35b503461022d57807ffffffffffffffffffffffffffffffffffffffffffffffffffffffffffffffffc36011261022d5761191e612633565b7fffffffffffffffffffffffff0000000000000000000000000000000000000000600154166001558073ffffffffffffffffffffffffffffffffffffffff81547fffffffffffffffffffffffff000000000000000000000000000000000000000081168355167f8be0079c531659141344cd1fd0a4f28419497f9722a3daafe3b4186f6b6457e08280a380f35b503461022d57807ffffffffffffffffffffffffffffffffffffffffffffffffffffffffffffffffc36011261022d57602060405163ffffffff7f0000000000000000000000000000000000000000000000000000000000000000168152f35b503461022d5760607ffffffffffffffffffffffffffffffffffffffffffffffffffffffffffffffffc36011261022d576004359067ffffffffffffffff821161022d5781600401916101207ffffffffffffffffffffffffffffffffffffffffffffffffffffffffffffffffc823603011261073557611a8761267f565b60648101611aef611ae07fe1ea48fc000000000000000000000000000000000000000000000000000000007fffffffff00000000000000000000000000000000000000000000000000000000611ae6611ae0868a6125b8565b9061271c565b161492866125b8565b9015611cc55750611aff83612782565b73ffffffffffffffffffffffffffffffffffffffff3091160361150e57610104611b2a9101836125b8565b5060208101357f7fffffffffffffffffffffffffffffff5d576e7357a4501ddfe92f46681b20a08111611c9d57608060209284926040519160243583526040810135851a86840152356040830152606082015282805260015afa15611c915780519173ffffffffffffffffffffffffffffffffffffffff831615611c6957917fffffffffffffffffffffffffffffffffffffffffffffffffffffffffffffffe0601f606093611c08611bfc7fffffffffffff000000000000000000000000000000000000000000000000000097612804565b9190956044359061288e565b611c635760015b79ffffffffffff0000000000000000000000000000000000000000604051988997604089528951958660408b01528660808c8c015e8a878b01015260d01b169260a01b161717602085015201168101030190f35b81611c0f565b6004827f8baa579f000000000000000000000000000000000000000000000000000000008152fd5b604051903d90823e3d90fd5b6004837f617cf474000000000000000000000000000000000000000000000000000000008152fd5b7f839d9ad20000000000000000000000000000000000000000000000000000000083527fffffffff0000000000000000000000000000000000000000000000000000000016600452602482fd5b503461022d5760207ffffffffffffffffffffffffffffffffffffffffffffffffffffffffffffffffc36011261022d57610cea611d55611d50611ff4565b61220c565b604080516bffffffffffffffffffffffff948516815293909216602084015265ffffffffffff16908201529081906060820190565b503461022d57807ffffffffffffffffffffffffffffffffffffffffffffffffffffffffffffffffc36011261022d5760206040516bffffffffffffffffffffffff7f0000000000000000000000000000000000000000000000000000000000000000168152f35b503461022d5760407ffffffffffffffffffffffffffffffffffffffffffffffffffffffffffffffffc36011261022d5780611e2a611ff4565b611e32612633565b73ffffffffffffffffffffffffffffffffffffffff7f00000000000000000000000000000000000000000000000000000000000000001690813b15610ae65773ffffffffffffffffffffffffffffffffffffffff604484928360405195869485937f205c287800000000000000000000000000000000000000000000000000000000855216600484015260243560248401525af18015610915576109045750f35b503461022d57807ffffffffffffffffffffffffffffffffffffffffffffffffffffffffffffffffc36011261022d576020600454604051908152f35b5060207ffffffffffffffffffffffffffffffffffffffffffffffffffffffffffffffffc360112611ff05760043563ffffffff8116809103611ff057611f53612633565b73ffffffffffffffffffffffffffffffffffffffff7f00000000000000000000000000000000000000000000000000000000000000001690813b15611ff0575f906024604051809481937f0396cb60000000000000000000000000000000000000000000000000000000008352600483015234905af18015611fe557611fd7575080f35b611fe391505f906120ce565b005b6040513d5f823e3d90fd5b5f80fd5b6004359073ffffffffffffffffffffffffffffffffffffffff82168203611ff057565b34611ff0575f7ffffffffffffffffffffffffffffffffffffffffffffffffffffffffffffffffc360112611ff057602060405173ffffffffffffffffffffffffffffffffffffffff7f0000000000000000000000000000000000000000000000000000000000000000168152f35b9181601f84011215611ff05782359167ffffffffffffffff8311611ff05760208381860195010111611ff057565b602435906bffffffffffffffffffffffff82168203611ff057565b90601f7fffffffffffffffffffffffffffffffffffffffffffffffffffffffffffffffe0910116810190811067ffffffffffffffff82111761210f57604052565b7f4e487b71000000000000000000000000000000000000000000000000000000005f52604160045260245ffd5b9065ffffffffffff8091169116039065ffffffffffff821161215a57565b7f4e487b71000000000000000000000000000000000000000000000000000000005f52601160045260245ffd5b8181029291811591840414171561215a57565b60ff16604d811161215a57600a0a90565b81156121b5570490565b7f4e487b71000000000000000000000000000000000000000000000000000000005f52601260045260245ffd5b906bffffffffffffffffffffffff809116911603906bffffffffffffffffffffffff821161215a57565b73ffffffffffffffffffffffffffffffffffffffff165f52600260205260405f20604051906060820182811067ffffffffffffffff82111761210f57604052546bffffffffffffffffffffffff8116825265ffffffffffff60208301916bffffffffffffffffffffffff8160601c16835260c01c1690816040840152814281115f146123d457506122db6bffffffffffffffffffffffff8061230a935116945b511663ffffffff7f00000000000000000000000000000000000000000000000000000000000000001690612187565b6123047f000000000000000000000000000000000000000000000000000000000000000061219a565b906121ab565b6bffffffffffffffffffffffff81116123a9576bffffffffffffffffffffffff167f00000000000000000000000000000000000000000000000000000000000000006bffffffffffffffffffffffff8116801515908161239f575b50612397575b50826bffffffffffffffffffffffff828116908216116123915761238e916121e2565b92565b50505f92565b90505f61236b565b905082115f612365565b7f84bf04e6000000000000000000000000000000000000000000000000000000005f5260045260245ffd5b929150505f916123ed65ffffffffffff4216918261213c565b9063ffffffff7f0000000000000000000000000000000000000000000000000000000000000000169182156121b55765ffffffffffff9183836124329316069061213c565b160165ffffffffffff811161215a576122db6bffffffffffffffffffffffff61230a92936122ac565b90357fffffffffffffffffffffffffffffffffffffffffffffffffffffffffffffffe182360301811215611ff057016020813591019167ffffffffffffffff8211611ff0578136038313611ff057565b601f82602094937fffffffffffffffffffffffffffffffffffffffffffffffffffffffffffffffe093818652868601375f8582860101520116010190565b80359173ffffffffffffffffffffffffffffffffffffffff8316809303611ff0576125b5928152602082013560208201526125a661259a612561612546612533604087018761245b565b61012060408801526101208701916124ab565b612553606087018761245b565b9086830360608801526124ab565b6080850135608085015260a085013560a085015260c085013560c085015261258c60e086018661245b565b9085830360e08701526124ab565b9261010081019061245b565b916101008185039101526124ab565b90565b9035907fffffffffffffffffffffffffffffffffffffffffffffffffffffffffffffffe181360301821215611ff0570180359067ffffffffffffffff8211611ff057602001918136038313611ff057565b906bffffffffffffffffffffffff809116911601906bffffffffffffffffffffffff821161215a57565b73ffffffffffffffffffffffffffffffffffffffff5f5416330361265357565b7f118cdaa7000000000000000000000000000000000000000000000000000000005f523360045260245ffd5b73ffffffffffffffffffffffffffffffffffffffff7f00000000000000000000000000000000000000000000000000000000000000001633036126be57565b60646040517f08c379a000000000000000000000000000000000000000000000000000000000815260206004820152601560248201527f53656e646572206e6f7420456e747279506f696e7400000000000000000000006044820152fd5b919091357fffffffff0000000000000000000000000000000000000000000000000000000081169260048110612750575050565b7fffffffff00000000000000000000000000000000000000000000000000000000929350829060040360031b1b161690565b6127909060e08101906125b8565b601411611ff0573560601c90565b919091357fffffffffffff0000000000000000000000000000000000000000000000000000811692600681106127d2575050565b7fffffffffffff0000000000000000000000000000000000000000000000000000929350829060060360031b1b161690565b9060e08201604061281582856125b8565b9050106128665761282681846125b8565b909190603a11611ff0576128416006603461284a940161279e565b60d01c936125b8565b604011611ff05761286090600690603a0161279e565b60d01c90565b7f7052173e000000000000000000000000000000000000000000000000000000005f5260045ffd5b7f00000000000000000000000000000000000000000000000000000000000000001580156129e4575b6129dd576bffffffffffffffffffffffff6128d18261220c565b94919290921681116129d55773ffffffffffffffffffffffffffffffffffffffff916bffffffffffffffffffffffff61290b921690612609565b91165f52600260205260405f209182549065ffffffffffff8260c01c1665ffffffffffff821603612984575b50507fffffffffffffffff000000000000000000000000ffffffffffffffffffffffff77ffffffffffffffffffffffff00000000000000000000000083549260601b169116179055600190565b7dffffffffffff0000000000000000000000000000000000000000000000007fffff000000000000ffffffffffffffffffffffffffffffffffffffffffffffff9160c01b1691161782555f80612937565b505050505f90565b5050600190565b5081156128b7565b905f602091828151910182855af115611fe5575f513d612a6a575073ffffffffffffffffffffffffffffffffffffffff81163b155b612a285750565b73ffffffffffffffffffffffffffffffffffffffff907f5274afe7000000000000000000000000000000000000000000000000000000005f521660045260245ffd5b60011415612a2156fea2646970667358221220f9a32abc6e130869ab25ec01329c4df8190c0bf2a3e4c6d26652f8ea44c7dc5264736f6c634300081d0033",
  "devdoc": {
    "errors": {
      "OwnableInvalidOwner(address)": [
        {
          "details": "The owner is not a valid owner account. (eg. `address(0)`)"
        }
      ],
      "OwnableUnauthorizedAccount(address)": [
        {
          "details": "The caller account is not authorized to perform an operation."
        }
      ],
      "SafeERC20FailedOperation(address)": [
        {
          "details": "An operation with an ERC-20 token failed."
        }
      ]
    },
    "kind": "dev",
    "methods": {
      "acceptOwnership()": {
        "details": "The new owner accepts the ownership transfer."
      },
      "addStake(uint32)": {
        "params": {
          "unstakeDelaySec": "- The unstake delay for this paymaster. Can only be increased."
        }
      },
      "owner()": {
        "details": "Returns the address of the current owner."
      },
      "pendingOwner()": {
        "details": "Returns the address of the pending owner."
      },
      "postOp(uint8,bytes,uint256,uint256)": {
        "params": {
          "actualGasCost": "- Actual cost of gas used so far (without this postOp call).",
          "actualUserOpFeePerGas": "- the gas price this UserOp pays. This value is based on the UserOp's maxFeePerGas                        and maxPriorityFee (and basefee)                        It is not the same as tx.gasprice, which is what the bundler pays.",
          "context": "- The context value returned by validatePaymasterUserOp",
          "mode": "- Enum with the following options:                        opSucceeded - User operation succeeded.                        opReverted  - User op reverted. The paymaster still has to pay for gas.                        postOpReverted - never passed in a call to postOp()."
        }
      },
      "renounceOwnership()": {
        "details": "Leaves the contract without owner. It will not be possible to call `onlyOwner` functions. Can only be called by the current owner. NOTE: Renouncing ownership will leave the contract without an owner, thereby disabling any functionality that is only available to the owner."
      },
      "transferOwnership(address)": {
        "details": "Starts the ownership transfer of the contract to a new account. Replaces the pending transfer if there is one. Can only be called by the current owner. Setting `newOwner` to the zero address is allowed; this can be used to cancel an initiated ownership transfer."
      },
      "validatePaymasterUserOp((address,uint256,bytes,bytes,bytes32,uint256,bytes32,bytes,bytes),bytes32,uint256)": {
        "params": {
          "maxCost": "- The maximum cost of this transaction (based on maximum gas and gas price from userOp).",
          "userOp": "- The user operation.",
          "userOpHash": "- Hash of the user's request data."
        },
        "returns": {
          "context": "       - Value to send to a postOp. Zero length to signify postOp is not required.",
          "validationData": "- Signature and time-range of this operation, encoded the same as the return                          value of validateUserOperation.                          <20-byte> aggregatorOrSigFail - 0 for valid signature, 1 to mark signature failure,                                                    other values are invalid for paymaster.                          <6-byte> validUntil - Last timestamp this operation is valid at, or 0 for \"indefinitely\"                          <6-byte> validAfter - first timestamp this operation is valid                          Note that the validation code cannot use block.timestamp (or block.number) directly."
        }
      },
      "withdrawStake(address)": {
        "params": {
          "withdrawAddress": "- The address to send withdrawn value."
        }
      },
      "withdrawTo(address,uint256)": {
        "params": {
          "amount": "- Amount to withdraw.",
          "withdrawAddress": "- Target to send to."
        }
      }
    },
    "version": 1
  },
  "userdoc": {
    "errors": {
      "InvalidSignature()": [
        {
          "notice": "Thrown if `ecrecover` yields `address(0)`."
        }
      ],
      "InvalidSignatureSValue()": [
        {
          "notice": "Thrown if the S value of the signature is not from the lower half of the curve."
        }
      ]
    },
    "kind": "user",
    "methods": {
      "addStake(uint32)": {
        "notice": "Add stake for this paymaster. This method can also carry eth value to add to the current stake."
      },
      "deposit()": {
        "notice": "Add a deposit for this paymaster, used for paying for transaction fees."
      },
      "getDeposit()": {
        "notice": "Return current paymaster's deposit on the entryPoint."
      },
      "postOp(uint8,bytes,uint256,uint256)": {
        "notice": "Post-operation handler. Must verify sender is the entryPoint."
      },
      "unlockStake()": {
        "notice": "Unlock the stake, in order to withdraw it. The paymaster can't serve requests once unlocked, until it calls addStake again"
      },
      "validatePaymasterUserOp((address,uint256,bytes,bytes,bytes32,uint256,bytes32,bytes,bytes),bytes32,uint256)": {
        "notice": "Payment validation: check if paymaster agrees to pay. Must verify sender is the entryPoint. Revert to reject this request. Note that bundlers will reject this method if it changes the state, unless the paymaster is trusted (whitelisted). The paymaster pre-pays using its deposit, and receive back a refund after the postOp method returns."
      },
      "withdrawStake(address)": {
        "notice": "Withdraw the entire paymaster's stake. stake must be unlocked first (and then wait for the unstakeDelay to be over)"
      },
      "withdrawTo(address,uint256)": {
        "notice": "Withdraw value from the deposit."
      }
    },
    "version": 1
  },
  "storageLayout": {
    "storage": [
      {
        "astId": 1241,
        "contract": "src/SafeHarbourPaymaster.sol:SafeHarbourPaymaster",
        "label": "_owner",
        "offset": 0,
        "slot": "0",
        "type": "t_address"
      },
      {
        "astId": 1389,
        "contract": "src/SafeHarbourPaymaster.sol:SafeHarbourPaymaster",
        "label": "_pendingOwner",
        "offset": 0,
        "slot": "1",
        "type": "t_address"
      },
      {
        "astId": 3483,
        "contract": "src/SafeHarbourPaymaster.sol:SafeHarbourPaymaster",
        "label": "quotaStatsForSigner",
        "offset": 0,
        "slot": "2",
        "type": "t_mapping(t_address,t_struct(QuotaStats)3447_storage)"
      },
      {
        "astId": 3489,
        "contract": "src/SafeHarbourPaymaster.sol:SafeHarbourPaymaster",
        "label": "withdrawsForSigner",
        "offset": 0,
        "slot": "3",
        "type": "t_mapping(t_address,t_mapping(t_bytes32,t_uint256))"
      },
      {
        "astId": 4060,
        "contract": "src/SafeHarbourPaymaster.sol:SafeHarbourPaymaster",
        "label": "slashedTokens",
        "offset": 0,
        "slot": "4",
        "type": "t_uint256"
      },
      {
        "astId": 4066,
        "contract": "src/SafeHarbourPaymaster.sol:SafeHarbourPaymaster",
        "label": "enabledConditions",
        "offset": 0,
        "slot": "5",
        "type": "t_mapping(t_contract(ISlashingCondition)2356,t_struct(ConditionStatus)4033_storage)"
      },
      {
        "astId": 4070,
        "contract": "src/SafeHarbourPaymaster.sol:SafeHarbourPaymaster",
        "label": "slashedUserOps",
        "offset": 0,
        "slot": "6",
        "type": "t_mapping(t_bytes32,t_uint256)"
      }
    ],
    "types": {
      "t_address": {
        "encoding": "inplace",
        "label": "address",
        "numberOfBytes": "20"
      },
      "t_bytes32": {
        "encoding": "inplace",
        "label": "bytes32",
        "numberOfBytes": "32"
      },
      "t_contract(ISlashingCondition)2356": {
        "encoding": "inplace",
        "label": "contract ISlashingCondition",
        "numberOfBytes": "20"
      },
      "t_mapping(t_address,t_mapping(t_bytes32,t_uint256))": {
        "encoding": "mapping",
        "key": "t_address",
        "label": "mapping(address => mapping(bytes32 => uint256))",
        "numberOfBytes": "32",
        "value": "t_mapping(t_bytes32,t_uint256)"
      },
      "t_mapping(t_address,t_struct(QuotaStats)3447_storage)": {
        "encoding": "mapping",
        "key": "t_address",
        "label": "mapping(address => struct QuotaStats)",
        "numberOfBytes": "32",
        "value": "t_struct(QuotaStats)3447_storage"
      },
      "t_mapping(t_bytes32,t_uint256)": {
        "encoding": "mapping",
        "key": "t_bytes32",
        "label": "mapping(bytes32 => uint256)",
        "numberOfBytes": "32",
        "value": "t_uint256"
      },
      "t_mapping(t_contract(ISlashingCondition)2356,t_struct(ConditionStatus)4033_storage)": {
        "encoding": "mapping",
        "key": "t_contract(ISlashingCondition)2356",
        "label": "mapping(contract ISlashingCondition => struct SlashingMixin.ConditionStatus)",
        "numberOfBytes": "32",
        "value": "t_struct(ConditionStatus)4033_storage"
      },
      "t_struct(ConditionStatus)4033_storage": {
        "encoding": "inplace",
        "label": "struct SlashingMixin.ConditionStatus",
        "members": [
          {
            "astId": 4030,
            "contract": "src/SafeHarbourPaymaster.sol:SafeHarbourPaymaster",
            "label": "enabledAfter",
            "offset": 0,
            "slot": "0",
            "type": "t_uint48"
          },
          {
            "astId": 4032,
            "contract": "src/SafeHarbourPaymaster.sol:SafeHarbourPaymaster",
            "label": "enabledUntil",
            "offset": 6,
            "slot": "0",
            "type": "t_uint48"
          }
        ],
        "numberOfBytes": "32"
      },
      "t_struct(QuotaStats)3447_storage": {
        "encoding": "inplace",
        "label": "struct QuotaStats",
        "members": [
          {
            "astId": 3442,
            "contract": "src/SafeHarbourPaymaster.sol:SafeHarbourPaymaster",
            "label": "tokenBalance",
            "offset": 0,
            "slot": "0",
            "type": "t_uint96"
          },
          {
            "astId": 3444,
            "contract": "src/SafeHarbourPaymaster.sol:SafeHarbourPaymaster",
            "label": "usedQuota",
            "offset": 12,
            "slot": "0",
            "type": "t_uint96"
          },
          {
            "astId": 3446,
            "contract": "src/SafeHarbourPaymaster.sol:SafeHarbourPaymaster",
            "label": "nextQuotaReset",
            "offset": 24,
            "slot": "0",
            "type": "t_uint48"
          }
        ],
        "numberOfBytes": "32"
      },
      "t_uint256": {
        "encoding": "inplace",
        "label": "uint256",
        "numberOfBytes": "32"
      },
      "t_uint48": {
        "encoding": "inplace",
        "label": "uint48",
        "numberOfBytes": "6"
      },
      "t_uint96": {
        "encoding": "inplace",
        "label": "uint96",
        "numberOfBytes": "12"
      }
    }
  }
}