{
  "address": "0x682953FC8EE8D5feF838a680824163eE6561b7E7",
  "abi": [
    {
      "inputs": [
        {
          "internalType": "address",
          "name": "_supportedHarbour",
          "type": "address"
        }
      ],
      "stateMutability": "nonpayable",
      "type": "constructor"
    },
    {
      "inputs": [],
      "name": "SUPPORTED_HARBOUR",
      "outputs": [
        {
          "internalType": "address",
          "name": "",
          "type": "address"
        }
      ],
      "stateMutability": "view",
      "type": "function"
    },
    {
      "inputs": [
        {
          "internalType": "address",
          "name": "",
          "type": "address"
        },
        {
          "components": [
            {
              "internalType": "address",
              "name": "sender",
              "type": "address"
            },
            {
              "internalType": "uint256",
              "name": "nonce",
              "type": "uint256"
            },
            {
              "internalType": "bytes",
              "name": "initCode",
              "type": "bytes"
            },
            {
              "internalType": "bytes",
              "name": "callData",
              "type": "bytes"
            },
            {
              "internalType": "bytes32",
              "name": "accountGasLimits",
              "type": "bytes32"
            },
            {
              "internalType": "uint256",
              "name": "preVerificationGas",
              "type": "uint256"
            },
            {
              "internalType": "bytes32",
              "name": "gasFees",
              "type": "bytes32"
            },
            {
              "internalType": "bytes",
              "name": "paymasterAndData",
              "type": "bytes"
            },
            {
              "internalType": "bytes",
              "name": "signature",
              "type": "bytes"
            }
          ],
          "internalType": "struct PackedUserOperation",
          "name": "userOp",
          "type": "tuple"
        }
      ],
      "name": "shouldBeSlashed",
      "outputs": [
        {
          "internalType": "bool",
          "name": "",
          "type": "bool"
        }
      ],
      "stateMutability": "view",
      "type": "function"
    }
  ],
  "transactionHash": "0xa3f1614d4b9e5ea277da42c4cb4b7bea6b4250c2de887db8bc7a0525fa422ec0",
  "args": [
    "0x7E299130D19bd0F3D86718d389a4DEF957034189"
  ],
  "numDeployments": 1,
  "solcInputHash": "5fa2546a5c5fe4b297113b87c1216c73",
  "bytecode": "0x60a034606c57601f61024f38819003918201601f19168301916001600160401b03831184841017607057808492602094604052833981010312606c57516001600160a01b0381168103606c576080526040516101ca90816100858239608051818181607c015261016e0152f35b5f80fd5b634e487b7160e01b5f52604160045260245ffdfe6080806040526004361015610012575f80fd5b5f3560e01c9081632e31f340146100a45750634f74152814610032575f80fd5b346100a0575f7ffffffffffffffffffffffffffffffffffffffffffffffffffffffffffffffffc3601126100a057602060405173ffffffffffffffffffffffffffffffffffffffff7f0000000000000000000000000000000000000000000000000000000000000000168152f35b5f80fd5b346100a05760407ffffffffffffffffffffffffffffffffffffffffffffffffffffffffffffffffc3601126100a05760043573ffffffffffffffffffffffffffffffffffffffff8116036100a05760243567ffffffffffffffff81116100a0576101207ffffffffffffffffffffffffffffffffffffffffffffffffffffffffffffffffc82360301126100a057600401359073ffffffffffffffffffffffffffffffffffffffff82168092036100a05760209173ffffffffffffffffffffffffffffffffffffffff7f00000000000000000000000000000000000000000000000000000000000000001614158152f3fea26469706673582212200bd64c3988f46f91aa85b981c032568b6e19ba014ee9d3cb35c4ad791b75a50f64736f6c634300081d0033",
  "devdoc": {
    "kind": "dev",
    "methods": {},
    "version": 1
  },
  "userdoc": {
    "kind": "user",
    "methods": {},
    "version": 1
  },
  "storageLayout": {
    "storage": [],
    "types": null
  }
}