{
  "address": "0xE2d5a00B860b07492BA9c06D51a8E31a4E159412",
  "abi": [
    {
      "inputs": [
        {
          "internalType": "address",
          "name": "safe",
          "type": "address"
        }
      ],
      "name": "getBasicConfiguration",
      "outputs": [
        {
          "components": [
            {
              "internalType": "address",
              "name": "singleton",
              "type": "address"
            },
            {
              "internalType": "address[]",
              "name": "owners",
              "type": "address[]"
            },
            {
              "internalType": "uint256",
              "name": "threshold",
              "type": "uint256"
            },
            {
              "internalType": "address",
              "name": "fallbackHandler",
              "type": "address"
            },
            {
              "internalType": "uint256",
              "name": "nonce",
              "type": "uint256"
            },
            {
              "internalType": "address[]",
              "name": "modules",
              "type": "address[]"
            },
            {
              "internalType": "address",
              "name": "guard",
              "type": "address"
            }
          ],
          "internalType": "struct SafeConfiguration",
          "name": "config",
          "type": "tuple"
        }
      ],
      "stateMutability": "view",
      "type": "function"
    },
    {
      "inputs": [
        {
          "internalType": "address",
          "name": "safe",
          "type": "address"
        },
        {
          "internalType": "uint256",
          "name": "maxIterations",
          "type": "uint256"
        },
        {
          "internalType": "uint256",
          "name": "pageSize",
          "type": "uint256"
        }
      ],
      "name": "getFullConfiguration",
      "outputs": [
        {
          "components": [
            {
              "internalType": "address",
              "name": "singleton",
              "type": "address"
            },
            {
              "internalType": "address[]",
              "name": "owners",
              "type": "address[]"
            },
            {
              "internalType": "uint256",
              "name": "threshold",
              "type": "uint256"
            },
            {
              "internalType": "address",
              "name": "fallbackHandler",
              "type": "address"
            },
            {
              "internalType": "uint256",
              "name": "nonce",
              "type": "uint256"
            },
            {
              "internalType": "address[]",
              "name": "modules",
              "type": "address[]"
            },
            {
              "internalType": "address",
              "name": "guard",
              "type": "address"
            }
          ],
          "internalType": "struct SafeConfiguration",
          "name": "fullConfig",
          "type": "tuple"
        },
        {
          "internalType": "address",
          "name": "nextCursor",
          "type": "address"
        }
      ],
      "stateMutability": "view",
      "type": "function"
    },
    {
      "inputs": [
        {
          "internalType": "address",
          "name": "safe",
          "type": "address"
        },
        {
          "internalType": "address",
          "name": "start",
          "type": "address"
        },
        {
          "internalType": "uint256",
          "name": "pageSize",
          "type": "uint256"
        }
      ],
      "name": "getModulesPaginated",
      "outputs": [
        {
          "internalType": "address[]",
          "name": "modulePage",
          "type": "address[]"
        },
        {
          "internalType": "address",
          "name": "nextCursor",
          "type": "address"
        }
      ],
      "stateMutability": "view",
      "type": "function"
    }
  ],
  "transactionHash": "0x1b824e8ad21eec4f69dc245b6b410d8d0704d560840a17335fc067d2bbe4c8c1",
  "args": [],
  "numDeployments": 1,
  "solcInputHash": "49a2cc6c1f83f81dd68c4fcaaa0a2c26",
  "bytecode": "0x60808060405234601557610e12908161001b8239f35b600080fdfe608080604052600436101561001357600080fd5b60003560e01c9081632fe699bd1461035b5750806394de1ba5146102e25763aa83207f1461004057600080fd5b346102dd5760607ffffffffffffffffffffffffffffffffffffffffffffffffffffffffffffffffc3601126102dd576100776104aa565b60243573ffffffffffffffffffffffffffffffffffffffff6044359261009b6106e9565b50166100a6816107f2565b928083028381048214841517156102ae576100c390949394610733565b9060009360019585925b81841080610272575b156101e5576040517fcc2f845200000000000000000000000000000000000000000000000000000000815273ffffffffffffffffffffffffffffffffffffffff98909816600489015260248801819052959694959394936000856044818a5afa9687156101d95760009586986101b0575b5060005b8651811015610192578073ffffffffffffffffffffffffffffffffffffffff6101766001938a6107af565b511661018b6101848d610782565b9c8b6107af565b520161014b565b50939291966101a391955092610782565b92949396959091966100cd565b9097506101cf91953d8091833e6101c781836105a2565b8101906106b0565b9490949638610147565b6040513d6000823e3d90fd5b848389896101f281610733565b9060005b81811061023d575050610232935060a083015273ffffffffffffffffffffffffffffffffffffffff604051938493604085526040850190610517565b911660208301520390f35b8073ffffffffffffffffffffffffffffffffffffffff61025f600193896107af565b511661026b82866107af565b52016101f6565b508315806100d6575073ffffffffffffffffffffffffffffffffffffffff881680151590816102a2575b506100d6565b6001915014153861029c565b7f4e487b7100000000000000000000000000000000000000000000000000000000600052601160045260246000fd5b600080fd5b346102dd5760207ffffffffffffffffffffffffffffffffffffffffffffffffffffffffffffffffc3601126102dd5761035761034373ffffffffffffffffffffffffffffffffffffffff6103346104aa565b61033c6106e9565b50166107f2565b604051918291602083526020830190610517565b0390f35b346102dd5760607ffffffffffffffffffffffffffffffffffffffffffffffffffffffffffffffffc3601126102dd576103926104aa565b60243573ffffffffffffffffffffffffffffffffffffffff811681036102dd577fcc2f845200000000000000000000000000000000000000000000000000000000835273ffffffffffffffffffffffffffffffffffffffff908116600484015260448035602485015260009284928391165afa9081156101d95760009060009261048c575b50604051906040820160408352815180915260206060840192019060005b8181106104605750505073ffffffffffffffffffffffffffffffffffffffff82931660208301520390f35b825173ffffffffffffffffffffffffffffffffffffffff16845260209384019390920191600101610435565b90506104a391503d806000833e6101c781836105a2565b9082610417565b6004359073ffffffffffffffffffffffffffffffffffffffff821682036102dd57565b906020808351928381520192019060005b8181106104eb5750505090565b825173ffffffffffffffffffffffffffffffffffffffff168452602093840193909201916001016104de565b9073ffffffffffffffffffffffffffffffffffffffff825116815260c073ffffffffffffffffffffffffffffffffffffffff81610598610566602087015160e0602088015260e08701906104cd565b604087015160408701528360608801511660608701526080870151608087015260a087015186820360a08801526104cd565b9401511691015290565b90601f7fffffffffffffffffffffffffffffffffffffffffffffffffffffffffffffffe0910116810190811067ffffffffffffffff8211176105e357604052565b7f4e487b7100000000000000000000000000000000000000000000000000000000600052604160045260246000fd5b67ffffffffffffffff81116105e35760051b60200190565b519073ffffffffffffffffffffffffffffffffffffffff821682036102dd57565b9080601f830112156102dd57815161066281610612565b9261067060405194856105a2565b81845260208085019260051b8201019283116102dd57602001905b8282106106985750505090565b602080916106a58461062a565b81520191019061068b565b91906040838203126102dd5782519067ffffffffffffffff82116102dd576106df6020916106e693860161064b565b930161062a565b90565b6040519060e0820182811067ffffffffffffffff8211176105e357604052600060c08382815260606020820152826040820152826060820152826080820152606060a08201520152565b9061073d82610612565b61074a60405191826105a2565b8281527fffffffffffffffffffffffffffffffffffffffffffffffffffffffffffffffe06107788294610612565b0190602036910137565b7fffffffffffffffffffffffffffffffffffffffffffffffffffffffffffffffff81146102ae5760010190565b80518210156107c35760209160051b010190565b7f4e487b7100000000000000000000000000000000000000000000000000000000600052603260045260246000fd5b906107fb6106e9565b9173ffffffffffffffffffffffffffffffffffffffff60009116906040517f5624b25b000000000000000000000000000000000000000000000000000000008152816004820152600160248201528181604481865afa908115610ba6578291610d19575b50602081805181010312610aaa57602001519073ffffffffffffffffffffffffffffffffffffffff8216809203610aa7575083526040517fa0e67e2b000000000000000000000000000000000000000000000000000000008152600081600481855afa9081156101d957600091610cd8575b5060208401526040517fe75235b8000000000000000000000000000000000000000000000000000000008152602081600481855afa9081156101d957600091610ca6575b50604084015260006040517f5624b25b0000000000000000000000000000000000000000000000000000000081527f6c9a6c4a39284e37ed1cf53d337577d14212a4870fb976a4366c693b939918d56004820152600160248201528181604481865afa908115610ba6578291610be3575b50602081805181010312610aaa57602001519073ffffffffffffffffffffffffffffffffffffffff8216809203610aa7575060608401526040517faffed0e0000000000000000000000000000000000000000000000000000000008152602081600481855afa9081156101d957600091610bb1575b506080840152604460008092604051928380927f5624b25b0000000000000000000000000000000000000000000000000000000082527f4a204f620c8c5ccdca3fd54d003badd85ba500436a431f0cbda4f558c93c34c86004830152600160248301525afa908115610ba6578291610aae575b50602081805181010312610aaa57602001519073ffffffffffffffffffffffffffffffffffffffff8216809203610aa7575060c0830152565b80fd5b5080fd5b90503d8083833e610abf81836105a2565b810190602081830312610ba25780519067ffffffffffffffff8211610b71570181601f82011215610ba25780519067ffffffffffffffff8211610b755760405192610b3260207fffffffffffffffffffffffffffffffffffffffffffffffffffffffffffffffe0601f86011601856105a2565b82845260208383010111610b7157908391825b828110610b5a57505082016020015238610a6e565b602082820181015186830182015286945001610b45565b8380fd5b6024847f4e487b710000000000000000000000000000000000000000000000000000000081526041600452fd5b8280fd5b6040513d84823e3d90fd5b90506020813d602011610bdb575b81610bcc602093836105a2565b810103126102dd5751386109fb565b3d9150610bbf565b90503d8083833e610bf481836105a2565b810190602081830312610ba25780519067ffffffffffffffff8211610b71570181601f82011215610ba25780519067ffffffffffffffff8211610b755760405192610c6760207fffffffffffffffffffffffffffffffffffffffffffffffffffffffffffffffe0601f86011601856105a2565b82845260208383010111610b7157908391825b828110610c8f57505082016020015238610986565b602082820181015186830182015286945001610c7a565b90506020813d602011610cd0575b81610cc1602093836105a2565b810103126102dd575138610915565b3d9150610cb4565b903d8082843e610ce881846105a2565b820191602081840312610aaa5780519167ffffffffffffffff8311610aa75750610d1392910161064b565b386108d1565b90503d8083833e610d2a81836105a2565b810190602081830312610ba25780519067ffffffffffffffff8211610b71570181601f82011215610ba25780519067ffffffffffffffff8211610b755760405192610d9d60207fffffffffffffffffffffffffffffffffffffffffffffffffffffffffffffffe0601f86011601856105a2565b82845260208383010111610b7157908391825b828110610dc55750508201602001523861085f565b602082820181015186830182015286945001610db056fea264697066735822122026cd087b249962d74d6f91824cac9076ffc5c349b1d8c61e45d061c9e6e043d964736f6c634300081d0033",
  "devdoc": {
    "details": "Provides gas-optimized methods for reading storage and modules with pagination.",
    "kind": "dev",
    "methods": {
      "getBasicConfiguration(address)": {
        "params": {
          "safe": "The address of the Safe contract."
        },
        "returns": {
          "config": "The basic SafeConfiguration with owners, threshold, fallbackHandler, nonce, guard, and an empty modules array."
        }
      },
      "getFullConfiguration(address,uint256,uint256)": {
        "params": {
          "maxIterations": "Maximum number of pagination loops.",
          "pageSize": "Number of modules to fetch per iteration.",
          "safe": "The address of the Safe contract."
        },
        "returns": {
          "fullConfig": "Complete SafeConfiguration with modules populated.",
          "nextCursor": "Cursor for additional pagination (address(0) if none left)."
        }
      },
      "getModulesPaginated(address,address,uint256)": {
        "params": {
          "pageSize": "The maximum number of modules to retrieve.",
          "safe": "The address of the Safe contract.",
          "start": "The starting module address (use SENTINEL_MODULES for first page)."
        },
        "returns": {
          "modulePage": "List of module addresses in the retrieved page.",
          "nextCursor": "Address cursor for the next page (address(0) if end reached)."
        }
      }
    },
    "stateVariables": {
      "FALLBACK_HANDLER_STORAGE_SLOT": {
        "details": "Storage slot for fallback handler (keccak256(\"fallback_manager.handler.address\"))."
      },
      "GUARD_STORAGE_SLOT": {
        "details": "Storage slot for guard contract (keccak256(\"guard_manager.guard.address\"))."
      },
      "SENTINEL_MODULES": {
        "details": "Sentinel address for module linked-list iteration."
      },
      "SINGLETON_STORAGE_SLOT": {
        "details": "Storage slot for singleton"
      }
    },
    "title": "Safe Configuration Fetcher",
    "version": 1
  },
  "userdoc": {
    "kind": "user",
    "methods": {
      "getBasicConfiguration(address)": {
        "notice": "Returns the basic Safe configuration (excluding modules, modules array will be empty)."
      },
      "getFullConfiguration(address,uint256,uint256)": {
        "notice": "Returns the full Safe configuration, including all modules up to the specified cap."
      },
      "getModulesPaginated(address,address,uint256)": {
        "notice": "Returns a page of Safe modules and the next cursor for pagination."
      }
    },
    "notice": "A utility contract to fetch basic and full configurations of a Safe.",
    "version": 1
  },
  "storageLayout": {
    "storage": [],
    "types": null
  }
}